:100000000C9463000C948B000C948B000C948B006C
:100010000C948B000C948B000C948B000C948B0034
:100020000C948B000C948B000C948B000C948B0024
:100030000C948B000C948B000C948B000C948B0014
:100040000C94CA0B0C948B000C9415080C94EF07BD
:100050000C948B000C948B000C948B000C948B00F4
:100060000C948B000C948B000000000024002700EF
:100070002A0000000000250028002B0000000000DE
:1000800023002600290004040404040404040202DA
:100090000202020203030303030301020408102007
:1000A0004080010204081020010204081020000012
:1000B0000008000201000003040700000000000027
:1000C0000000A30E970E11241FBECFEFD8E0DEBFB5
:1000D000CDBF23E0A2EDB2E001C01D92A33BB20769
:1000E000E1F712E0A0E0B1E0E4E2F3E202C0059043
:1000F0000D92A23DB107D9F710E0C2E6D0E004C0EE
:100100002197FE010E947A0FC136D107C9F70E94DC
:100110004A0D0C9485110C940000CF92DF92EF925F
:10012000FF920F931F93CF93DF936C017A018B01A2
:10013000C0E0D0E0CE15DF0581F0D8016D918D01D2
:10014000D601ED91FC910190F081E02DC601099559
:10015000892B11F02196EECF7E01C701DF91CF915F
:100160001F910F91FF90EF90DF90CF900895FC01C9
:10017000538D448D252F30E0842F90E0821B930B0C
:10018000541710F0CF96089501970895FC01918DB2
:10019000828D981761F0828DDF01A80FB11D5D96E9
:1001A0008C91928D9F5F9F73928F90E008958FEF57
:1001B0009FEF0895FC01918D828D981731F0828D0B
:1001C000E80FF11D858D90E008958FEF9FEF089562
:1001D000FC01918D228D892F90E0805C9F4F821BC6
:1001E00091098F73992708958FED92E00E94E8009E
:1001F00021E0892B09F420E0822F0895FC01848DF1
:10020000DF01A80FB11DA35ABF4F2C91848D90E040
:1002100001968F739927848FA689B7892C93A0891B
:10022000B1898C91837080648C93938D848D9813A5
:1002300006C00288F389E02D80818F7D8083089538
:10024000EF92FF920F931F93CF93DF93EC0181E026
:10025000888F9B8D8C8D981305C0E889F9898081E2
:1002600085FD26C0F62E0B8D10E00F5F1F4F0F731C
:100270001127E02E8C8DE8120CC00FB607FCFACFC8
:10028000E889F989808185FFF5CFCE010E94FE00C3
:10029000F1CF8B8DFE01E80FF11DE35AFF4FF08285
:1002A0009FB7F8940B8FEA89FB89808180620AC02E
:1002B0009FB7F894EE89FF896083E889F989808186
:1002C0008370806480839FBF81E090E0DF91CF9155
:1002D0001F910F91FF90EF900895CF93DF93EC0162
:1002E000888D8823C9F0EA89FB89808185FD05C056
:1002F000A889B9898C9186FD0FC00FB607FCF5CF90
:10030000808185FFF2CFA889B9898C9185FFEDCFD7
:10031000CE010E94FE00E7CFDF91CF91089580E0EB
:1003200090E0892B29F00E94F40081110C940000C8
:10033000089580E090E0089581E08093DC021092BF
:100340000D010895CF93DF93EC0160E08E810E9450
:10035000840A61E08E810E94840A60E08E810E949E
:10036000840A8BE891E00197F1F7DF91CF9108952E
:10037000CF93DF93382F292FE0E0F0E0CAE0D0E000
:10038000009731F0BE010E94300FCB013196F8CFBB
:10039000E330F10519F4632F722F14C0E901E23044
:1003A000F10541F03197A1F460E070E08FED92E04B
:1003B0000E949D0C60E070E08FED92E00E949D0C29
:1003C0006D2F7C2F8FED92E0DF91CF910C949D0CDF
:1003D000DF91CF9108958091DB02811105C01092C9
:1003E000DA021092D9022BC0833019F481E090E038
:1003F00022C08C3019F482E090E01DC08F3019F4D7
:1004000083E090E018C0833319F484E090E013C0D7
:100410008F3319F485E090E00EC08C3C19F486E02F
:1004200090E009C08F3C19F487E090E004C08F3F52
:1004300031F488E090E09093DA028093D90266E389
:1004400071E08FED92E00E94D70C80910A019091AB
:100450000B010E94B8016EE072E08FED92E00E9405
:10046000D70C80910801909109010E94B80168E3BE
:1004700071E08FED92E00E94D70C8091060190917F
:1004800007010E94B8016AE371E08FED92E00E94DB
:10049000D70C80910401909105010E94B80160ED94
:1004A00072E08FED92E00E94D70C8091D90290917A
:1004B000DA020E94B8010E94C3096CE371E08EE881
:1004C00093E00E94D70C68EB7BE080E090E00E9414
:1004D000900B8DED92E09093DE028093DD0261E05F
:1004E00080E00E94CB094091DB0250E060E070E0C8
:1004F00022E08EE893E00E94540C61E08FE00E94BD
:10050000CB096091D9027091DA028EE893E00C94E5
:100510009D0CCF93DF9300D000D000D0CDB7DEB7D5
:100520000E94C30961E080E00E94CB0965E471E0AC
:100530008EE893E00E94D70C68EE73E080E090E0D4
:100540000E94900B60E080E00E94CB0966E571E0BC
:100550008EE893E00E94D70C8FED92E00E94E800B5
:10056000892BD1F3CE0101960E941A0ACE01019681
:100570000E94DD09CE0101960E94350C80918C030A
:1005800090918D03892B41F367E671E08091880398
:10059000909189030E947511892BF1F68BE097E009
:1005A0009093DE028093DD0226960FB6F894DEBFAC
:1005B0000FBECDBFDF91CF910895CF93DF9300D0D1
:1005C00000D000D0CDB7DEB78FED92E00E94E800FA
:1005D000892B81F1CE0101960E941A0ACE01019663
:1005E0000E94DD09CE0101960E94350C80918C039A
:1005F00090918D03892BF1F067E671E0809188037B
:10060000909189030E947511892BA1F40E94C3095E
:1006100069E671E08EE893E00E94D70C68EE73E023
:1006200080E090E00E94900B8CE991E09093DE02D4
:100630008093DD0226960FB6F894DEBF0FBECDBFC5
:10064000DF91CF9108950F93CF93DF93CDB7DEB7AE
:100650002C970FB6F894DEBF0FBECDBF6FE771E0E9
:1006600082E893E00E94140C8091040190910501AE
:100670009093D8028093D70285E090E09093D602C1
:100680008093D5026BE871E08CE793E00E94140C34
:100690006CE773E0CE0107960E943A0C62E873E0C3
:1006A000CE0101960E943A0C6091D5027091D6025B
:1006B00001E09E01295F3F4FAE014F5F5F4F809188
:1006C000D7029091D8020E94D90C90930501809393
:1006D0000401CE0101960E94350CCE0107960E94BE
:1006E000350C64EF71E080E090E00E94900B83E0B5
:1006F0000E945B0A892B51F48BEE91E09093DE020D
:100700008093DD0261E083E00E94840A2C960FB69C
:10071000F894DEBF0FBECDBFDF91CF910F9108954A
:100720000F93CF93DF93CDB7DEB72C970FB6F89426
:10073000DEBF0FBECDBF6EE871E082E893E00E949D
:10074000140C80910601909107019093D802809338
:10075000D7028AE090E09093D6028093D50260EAB7
:1007600071E08CE793E00E94140C6CE773E0CE011B
:1007700007960E943A0C62E873E0CE0101960E944F
:100780003A0C6091D5027091D60201E09E01295F7A
:100790003F4FAE014F5F5F4F8091D7029091D802DB
:1007A0000E94D90C9093070180930601CE01019617
:1007B0000E94350CCE0107960E94350C64EF71E063
:1007C00080E090E00E94900B83E00E945B0A892BFE
:1007D00051F483E293E09093DE028093DD0261E0C6
:1007E00083E00E94840A2C960FB6F894DEBF0FBEF9
:1007F000CDBFDF91CF910F910895EF92FF920F93AC
:10080000CF93DF93CDB7DEB72C970FB6F894DEBF4A
:100810000FBECDBF8091DB02837009F45BC061E045
:1008200083E00E94840A6AEF70E080E090E00E941A
:10083000900B32E0E32EF12C83E00E945B0A0197DB
:1008400009F048C063EA71E082E893E00E94140C6A
:1008500080910A0190910B019093D8028093D70266
:10086000F092D602E092D50264EB71E08CE793E05F
:100870000E94140C6CE773E0CE0107960E943A0CBC
:1008800062E873E0CE0101960E943A0C6091D502B5
:100890007091D60201E09E01295F3F4FAE014F5F8C
:1008A0005F4F8091D7029091D8020E94D90C90930B
:1008B0000B0180930A01CE0101960E94350CCE01F6
:1008C00007960E94350C64E670E080E090E00E949C
:1008D000900BB2CF8091DB02807309F463C061E0BA
:1008E00083E00E94840A6AEF70E080E090E00E945A
:1008F000900B80910A0190910B01909303018093DA
:10090000020122E0E22EF12C83E00E945B0A0197B3
:1009100009F048C062EC71E082E893E00E94140C98
:1009200080910201909103019093D8028093D702A5
:10093000F092D602E092D50263ED71E08CE793E08D
:100940000E94140C6CE773E0CE0107960E943A0CEB
:1009500062E873E0CE0101960E943A0C6091D502E4
:100960007091D60201E09E01295F3F4FAE014F5FBB
:100970005F4F8091D7029091D8020E94D90C90933A
:10098000030180930201CE0101960E94350CCE0135
:1009900007960E94350C64E670E080E090E00E94CB
:1009A000900BB2CF8091DB028C7009F45BC061E0E8
:1009B00083E00E94840A6AEF70E080E090E00E9489
:1009C000900B92E0E92EF12C83E00E945B0A0197E4
:1009D00009F048C061EE71E082E893E00E94140CD7
:1009E00080910801909109019093D8028093D702D9
:1009F000F092D602E092D50261EF71E08CE793E0CD
:100A00000E94140C6CE773E0CE0107960E943A0C2A
:100A100062E873E0CE0101960E943A0C6091D50223
:100A20007091D60201E09E01295F3F4FAE014F5FFA
:100A30005F4F8091D7029091D8020E94D90C909379
:100A4000090180930801CE0101960E94350CCE0168
:100A500007960E94350C64E670E080E090E00E940A
:100A6000900BB2CF8091DB02807C09F463C061E01F
:100A700083E00E94840A6AEF70E080E090E00E94C8
:100A8000900B80910801909109019093010180934E
:100A9000000182E0E82EF12C83E00E945B0A0197BE
:100AA00009F048C06FEF71E082E893E00E94140CF7
:100AB00080910001909101019093D8028093D70218
:100AC000F092D602E092D50260E172E08CE793E00A
:100AD0000E94140C6CE773E0CE0107960E943A0C5A
:100AE00062E873E0CE0101960E943A0C6091D50253
:100AF0007091D60201E09E01295F3F4FAE014F5F2A
:100B00005F4F8091D7029091D8020E94D90C9093A8
:100B1000010180930001CE0101960E94350CCE01A7
:100B200007960E94350C64E670E080E090E00E9439
:100B3000900BB2CF80E993E09093DE028093DD02C8
:100B40002C960FB6F894DEBF0FBECDBFDF91CF91CC
:100B50000F91FF90EF9008950F93CF93DF93CDB750
:100B6000DEB72C970FB6F894DEBF0FBECDBF6EE197
:100B700072E082E893E00E94140C0E94C30982E8AC
:100B800093E00E94520A81E090E09093D602809315
:100B9000D50260E472E08CE793E00E94140C80912F
:100BA000D40290E09093D8028093D7026CE773E070
:100BB000CE0107960E943A0C62E873E0CE010196DE
:100BC0000E943A0C6091D5027091D60200E09E011D
:100BD000295F3F4FAE014F5F5F4F8091D7029091E9
:100BE000D8020E94D90C9093D8028093D702CE01EC
:100BF00001960E94350CCE0107960E94350C80911B
:100C0000D7029091D802892BA1F41092D40261E00E
:100C100080E00E94CB0960E372E08EE893E00E94DE
:100C2000D70C1092D30264E670E080E090E00E945E
:100C3000900B8091D7029091D8020197B1F481E096
:100C40008093D40261E080E00E94CB0961E472E00D
:100C50008EE893E00E94D70C80EC8093D30264E688
:100C600070E080E090E00E94900B83E00E945B0ABD
:100C7000892B69F49091DB028091D302892B8093B8
:100C8000DB028DEF93E09093DE028093DD026AEF4A
:100C900070E080E090E00E94900B2C960FB6F894E4
:100CA000DEBF0FBECDBFDF91CF910F9108950F939F
:100CB000CF93DF93CDB7DEB72C970FB6F894DEBF96
:100CC0000FBECDBF6DE472E082E893E00E94140C89
:100CD0000E94C30982E893E00E94520A81E090E0FA
:100CE0009093D6028093D50260E472E08CE793E0A3
:100CF0000E94140C8091D20290E09093D8028093CD
:100D0000D7026CE773E0CE0107960E943A0C62E8C6
:100D100073E0CE0101960E943A0C6091D502709169
:100D2000D60200E09E01295F3F4FAE014F5F5F4F4B
:100D30008091D7029091D8020E94D90C9093D8024A
:100D40008093D702CE0101960E94350CCE01079602
:100D50000E94350C8091D7029091D802892BA1F482
:100D60001092D20261E080E00E94CB0960E372E061
:100D70008EE893E00E94D70C1092D30264E670E0F4
:100D800080E090E00E94900B8091D7029091D80271
:100D90000197B1F481E08093D20261E080E00E948B
:100DA000CB096EE572E08EE893E00E94D70C80E3F9
:100DB0008093D30264E670E080E090E00E94900BA4
:100DC00083E00E945B0A892BE1F49091DB02809121
:100DD000D302892B8093DB028091D9029091DA02B1
:100DE000019719F48DEF93E002C08CEA95E090939F
:100DF000DE028093DD026AEF70E080E090E00E9406
:100E0000900B2C960FB6F894DEBF0FBECDBFDF91CE
:100E1000CF910F9108950F93CF93DF93CDB7DEB7A6
:100E20002C970FB6F894DEBF0FBECDBF6AE672E016
:100E300082E893E00E94140C0E94C30982E893E0C8
:100E40000E94520A8091D9029091DA029093D802BE
:100E50008093D70281E090E09093D6028093D502F0
:100E600060E472E08CE793E00E94140C6CE773E09E
:100E7000CE0107960E943A0C62E873E0CE0101961B
:100E80000E943A0C6091D5027091D60200E09E015A
:100E9000295F3F4FAE014F5F5F4F8091D702909126
:100EA000D8020E94D90C9093DA028093D902CE0125
:100EB00001960E94350CCE0107960E94350C809158
:100EC000D9029091DA02892B31F483E090E090937B
:100ED000DA028093D9028091D9029091DA020497C4
:100EE00031F481E090E09093DA028093D90280910E
:100EF000D9029091DA02019769F461E080E00E94E2
:100F0000CB096CE772E08EE893E00E94D70C83E097
:100F10008093DB028091D9029091DA02029769F402
:100F200061E080E00E94CB096CE872E08EE893E01B
:100F30000E94D70C8CE08093DB028091D9029091C3
:100F4000DA02039769F461E080E00E94CB096CE962
:100F500072E08EE893E00E94D70C8FE08093DB0272
:100F600064E670E080E090E00E94900B83E00E94D5
:100F70005B0A892BA9F48091D9029091DA02029739
:100F800019F48CEA95E002C087E596E09093DE02C2
:100F90008093DD026AEF70E080E090E00E94900BA9
:100FA0002C960FB6F894DEBF0FBECDBFDF91CF9168
:100FB0000F9108956115710579F0FB0101900020F2
:100FC000E9F73197AF01461B570BDC01ED91FC911E
:100FD0000280F381E02D099480E090E008951F9253
:100FE0000F920FB60F9211242F933F934F935F935D
:100FF0006F937F938F939F93AF93BF93EF93FF93E1
:101000008FED92E00E94FE00FF91EF91BF91AF91B2
:101010009F918F917F916F915F914F913F912F9110
:101020000F900FBE0F901F9018951F920F920FB642
:101030000F9211242F938F939F93EF93FF93E0913F
:10104000EF02F091F0028081E091F502F091F6025A
:1010500082FD12C090818091F8028F5F8F73209182
:10106000F902821751F0E091F802F0E0E152FD4FF1
:10107000958F8093F80201C08081FF91EF919F913D
:101080008F912F910F900FBE0F901F901895CF92B8
:10109000DF92EF92FF920F931F93CF93DF936C0138
:1010A0007C0187E0E80EF11CC0E0D0E0062F10E0E4
:1010B000B8010C2E02C0759567950A94E2F761702D
:1010C000F70181917F010E94840A2196C430D105E5
:1010D00079F7C601DF91CF911F910F91FF90EF90AB
:1010E000DF90CF900C94A201CF92DF92EF92FF920B
:1010F0000F931F93CF93DF93EC01F62E642F8C8117
:101100000E94840A8D818F3F19F060E00E94840A5A
:101110008F850F2D10E084FF25C06E0187E0C80E7B
:10112000D11CE12CF12CB8010E2C02C075956795ED
:101130000A94E2F76170F60181916F010E94840ABE
:10114000FFEFEF1AFF0A88E0E816F10461F7CE011D
:10115000DF91CF911F910F91FF90EF90DF90CF9093
:101160000C94A201B80184E0759567958A95E1F722
:10117000CE010E9447086F2DCE01DF91CF911F91C4
:101180000F91FF90EF90DF90CF900C94470841E0D3
:101190000E94740881E090E00895833081F028F483
:1011A000813099F08230A1F008958730A9F088301D
:1011B000B9F08430D1F4809180008F7D03C080919C
:1011C00080008F7780938000089584B58F7702C068
:1011D00084B58F7D84BD08958091B0008F7703C062
:1011E0008091B0008F7D8093B00008953FB7F89450
:1011F0008091AB039091AC03A091AD03B091AE038D
:1012000026B5A89B05C02F3F19F00196A11DB11D61
:101210003FBFBA2FA92F982F8827820F911DA11D9C
:10122000B11DBC01CD0142E0660F771F881F991FD9
:101230004A95D1F708952FB7F8946091A70370915C
:10124000A8038091A9039091AA032FBF0895089540
:101250000F931F930E941B096093E7027093E802AB
:101260008093E9029093EA028FED92E00E94C6001B
:1012700097FF1FC00E941B090091E7021091E8022E
:101280002091E9023091EA02DC01CB01801B910B35
:10129000A20BB30B0091E3021091E4022091E5024E
:1012A0003091E60280179107A207B307E8F28FEFAB
:1012B0009FEF1F910F91089540E0682F8EE893E013
:1012C0000C9474080E9467110F931F93CF93DF93C0
:1012D000EC0188819981009729F02A813B812617AA
:1012E000370788F48B016F5F7F4F0E94A110009732
:1012F00061F0998388831B830A832C813D81232B92
:1013000011F4FC01108281E001C080E0DF91CF91F7
:101310001F910F910895EF92FF920F931F93CF9318
:10132000DF93EC017B018A01BA010E9464092881E4
:10133000398181110DC02115310519F0C9010E94B3
:101340001810198218821D821C821B821A8206C004
:101350001D830C83B701C9010E947E11CE01DF916C
:10136000CF911F910F91FF90EF900895FC01118292
:101370001082138212821582148240E050E060E4F1
:1013800072E00C948B0981E00E945C098BE39FE181
:101390000197F1F70895643008F063E09091A1039C
:1013A000691710F06FEF690FE62FF0E0E257FC4F7E
:1013B0009489890F80680C945C09CF93DF93EC01CA
:1013C0008091880390918903009739F06881798131
:1013D00061157105C9F40E94181088819981909354
:1013E0008903809388038A819B8190938B038093E8
:1013F0008A038C819D8190938D0380938C03198245
:1014000018821B821A8211C040918A0350918B036B
:101410002C813D8142175307F0F20E947E118C818E
:101420009D8190938D0380938C031D821C82DF919C
:10143000CF910895EF92FF920F931F93CF93DF9375
:1014400000D0CDB7DEB78C010E94B6090E942809F2
:1014500097FD1EC089831A82F801E480F580FFEFB2
:10146000EF1AFF0AB701C8010E946409882371F3CB
:10147000F8012081318184819581BE016F5F7F4FAA
:10148000820F931F0E947E11F801F582E482DECF65
:10149000C8010F900F90DF91CF911F910F91FF9096
:1014A000EF900895FC0144815581608171818EE83F
:1014B00093E00C948D00CF93DF93282F30E0F90157
:1014C000E255FF4F8491F901E656FF4FD491F9019F
:1014D000EA57FF4FC491CC2391F081110E94CD08AF
:1014E000EC2FF0E0EE0FFF1FE458FF4FA591B491F1
:1014F000EC91ED2381E090E021F480E002C080E0F7
:1015000090E0DF91CF9108951F93CF93DF93282F21
:1015100030E0F901E255FF4F8491F901E656FF4FA3
:10152000D491F901EA57FF4FC491CC23C1F0162F93
:1015300081110E94CD08EC2FF0E0EE0FFF1FEE5856
:10154000FF4FA591B4919FB7F894111104C08C91ED
:10155000D095D82302C0EC91DE2BDC939FBFDF91A6
:10156000CF911F910895CF93DF9390E0FC01E65651
:10157000FF4F2491FC01EA57FF4F8491882361F1CA
:1015800090E0880F991FFC01E859FF4FC591D49155
:10159000FC01EE58FF4FA591B491611109C09FB7AE
:1015A000F8948881209582238883EC912E230BC0A8
:1015B000623061F49FB7F8948881322F309583238D
:1015C0008883EC912E2B2C939FBF06C08FB7F89485
:1015D000E8812E2B28838FBFDF91CF910895CF9381
:1015E000DF93823028F090919D03986090939D0343
:1015F0008093A1031092A20380E48093A30380E16F
:101600008093A40380E58093A50361E08091920319
:101610000E94B30A809193038F3F19F061E00E940A
:10162000B30A61E0809194030E94B30ACEE8D3E04C
:101630009E012E58334080919D0384FD03C084E0B9
:1016400090E002C088E090E02196281739072CF43A
:1016500061E08E810E94B30AEBCF8BE39DE001979E
:10166000F1F760E0809192030E94840A60E080912B
:1016700094030E94840A809193038F3F19F060E0E5
:101680000E94840A80919D0384FD20C063E08EE85F
:1016900093E00E944708CBE4D6E4CE010197F1F72E
:1016A00063E08EE893E00E9447082197F1F763E03A
:1016B0008EE893E00E94470883E592E00197F1F7F6
:1016C00062E08EE893E00E94470815C080620E94A5
:1016D0005C098BE496E40197F1F780919D038062A9
:1016E0000E945C0983E592E00197F1F780919D03E8
:1016F00080620E945C0980919D0380620E945C0967
:1017000084E080939E038CE00E945C090E94C309E0
:1017100082E080939F0386E0DF91CF910C945C0977
:101720008F929F92AF92BF92CF92DF92EF92FF92F1
:101730006B017C010E94F6084B015C01C114D104CD
:10174000E104F104F1F00E94F608DC01CB018819F4
:101750009909AA09BB09883E9340A105B10570F318
:1017600021E0C21AD108E108F10888EE880E83E072
:10177000981EA11CB11CC114D104E104F10419F795
:10178000DDCFFF90EF90DF90CF90BF90AF909F9014
:101790008F9008951F920F920FB60F9211242F93DE
:1017A0003F938F939F93AF93BF938091A7039091A3
:1017B000A803A091A903B091AA033091A60323E046
:1017C000230F2D3720F40196A11DB11D05C026E879
:1017D000230F0296A11DB11D2093A6038093A7039A
:1017E0009093A803A093A903B093AA038091AB039D
:1017F0009091AC03A091AD03B091AE030196A11DF1
:10180000B11D8093AB039093AC03A093AD03B09351
:10181000AE03BF91AF919F918F913F912F910F9008
:101820000FBE0F901F901895CF93DF93EC016115B9
:10183000710559F0FB0101900020E9F73197AF01E4
:10184000461B570B0E948B090CC088819981009719
:1018500011F00E941810198218821D821C821B82AE
:101860001A82CE01DF91CF910895FC018081918190
:101870000C941810FB01DC0111961C921E92139619
:101880001C921E92129715961C921E921497861700
:10189000970749F0608171816115710521F04481DC
:1018A00055810C948B0908958F929F92AF92BF92AD
:1018B000EF92FF920F931F93CF93DF93CDB7DEB7D5
:1018C000A1970FB6F894DEBF0FBECDBF7C01FA0121
:1018D000CB0119A2223008F42AE08E010F5D1F4FC0
:1018E000822E912CA12CB12CBF01A50194010E9444
:1018F000440FF901CA01015011096A3014F4605D06
:1019000001C0695CD8016C93232B242B252B61F734
:10191000B801C7010E94DA07A1960FB6F894DEBF9E
:101920000FBECDBFDF91CF911F910F91FF90EF9030
:10193000BF90AF909F908F900895CF92DF92EF92DB
:10194000FF920F931F93CF93DF936B01770FEE08F6
:10195000FF08F7FE1FC0EC01E881F9810190F081DA
:10196000E02D6DE209958C0144275527BA014C19E9
:101970005D096E097F092AE0CE010E94540C800F98
:10198000911FDF91CF911F910F91FF90EF90DF900A
:10199000CF9008952AE0B701A601DF91CF911F9162
:1019A0000F91FF90EF90DF90CF900C94540C0C941B
:1019B000DA076F927F928F929F92AF92BF92CF92EF
:1019C000DF92EF92FF920F93CF93DF93EC017B01B5
:1019D0004A01390182E00E945B0A5C0184E00E94B6
:1019E0005B0A6C01002319F10E94C309C4010E9423
:1019F000520A61E080E00E94CB09BE018EE893E0CC
:101A00000E949D0C6FE372E08EE893E00E94D70C79
:101A1000C3010E94520A6DE372E08EE893E00E94D7
:101A2000D70C64E670E080E090E00E94900BAB2859
:101A300071F40E941B090E941B090E941B09CE0D14
:101A4000DF1D64E670E080E090E00E94900BCD28FE
:101A500091F40E941B090E941B090E941B09CE19C8
:101A6000DF09D7FF02C0C0E0D0E064E670E080E0AC
:101A700090E00E94900BCE01DF91CF910F91FF90EB
:101A8000EF90DF90CF90BF90AF909F908F907F901E
:101A90006F900895789484B5826084BD84B5816028
:101AA00084BD85B5826085BD85B5816085BD809129
:101AB0006E00816080936E001092810080918100A1
:101AC0008260809381008091810081608093810099
:101AD000809180008160809380008091B10084605B
:101AE0008093B1008091B00081608093B0008091BC
:101AF0007A00846080937A0080917A00826080937B
:101B00007A0080917A00816080937A0080917A00D7
:101B1000806880937A001092C10082E00E94EF0AF0
:101B2000E091EF02F091F00282E08083E091EB021D
:101B3000F091EC021082E091ED02F091EE028FEC58
:101B400080831092F702E091F302F091F40286E0B4
:101B50008083E091F102F091F202808180618083C4
:101B6000E091F102F091F202808188608083E0913F
:101B7000F102F091F202808180688083E091F102AD
:101B8000F091F20280818F7D80838FED92E00E9440
:101B90006D0162E083E00E94B30A62E084E00E948B
:101BA000B30A62E082E00E94B30A61E086E00E942C
:101BB000B30A61E085E00E94B30A61E08DE00E9413
:101BC000B30A89E892E09093DE028093DD0280916F
:101BD0000D01882309F454C0E091DD02F091DE028A
:101BE0000995F5CF83E00E945B0A892B09F098C024
:101BF00061E083E00E94840A0330110509F47DC08E
:101C0000C3E0D0E0BE018FED92E00E949D0C0E94E7
:101C1000C3096CEA72E08EE893E00E94D70C61E0A1
:101C200080E00E94CB096DEB72E08EE893E00E94A9
:101C3000D70C60E08DE00E94840A60E085E00E949D
:101C4000840AC330D10509F458C06EE170E080E029
:101C500090E00E94900B8E0180910C0181111CC0BC
:101C600064EF71E080E090E00E94900B61E086E01C
:101C70000E94840A64EF71E080E090E00E94900B83
:101C80008091DC02882309F4A2CF60E086E00E9404
:101C9000840A01E010E0E0CF82E00E945B0A892B19
:101CA00099F461E082E00E94840A0E94C3096BEA11
:101CB00071E08EE893E00E94D70C61E085E00E941D
:101CC000840AC1E0D0E02EC084E00E945B0A892B28
:101CD00009F088CF61E084E00E94840A0E94C30971
:101CE0006AEE71E08EE893E00E94D70C61E08DE02F
:101CF0000E94840AC2E0D0E015C063E070E08FED7E
:101D000092E00E949D0C10920C010E94C3096EEC9F
:101D100072E08EE893E00E94D70CC3E0D0E095CF4C
:101D2000C0E0D0E0C017D10709F48FCF6BCF8CE7AC
:101D300093E00E94350C82E893E00E94350C88E81D
:101D400093E00C94350CEFEDF2E01382128288EEF2
:101D500093E0A0E0B0E084839583A683B7838CE111
:101D600091E09183808385EC90E09587848784EC73
:101D700090E09787868780EC90E0918B808B81EC58
:101D800090E0938B828B82EC90E0958B848B86EC39
:101D900090E0978B868B118E128E138E148EEEE848
:101DA000F3E0138212828EE291E09183808389E0D6
:101DB00084838FEF858387E0868388E087838CE048
:101DC00080878AE081878BE0828713861486158658
:101DD0001686178681E00E94EF0A88E893E00E9449
:101DE000B60982E893E00E94B6098CE793E00C9470
:101DF000B6092F923F924F925F926F927F928F928D
:101E00009F92AF92BF92CF92DF92EF92FF920F9389
:101E10001F93CF93DF93CDB7DEB7CA1BDB0B0FB693
:101E2000F894DEBF0FBECDBF09942A883988488850
:101E30005F846E847D848C849B84AA84B984C884E6
:101E4000DF80EE80FD800C811B81AA81B981CE0FDD
:101E5000D11D0FB6F894DEBF0FBECDBFED010895C2
:101E600097FB072E16F4009407D077FD09D00E9447
:101E7000660F07FC05D03EF4909581959F4F08951D
:101E8000709561957F4F0895A1E21A2EAA1BBB1B86
:101E9000FD010DC0AA1FBB1FEE1FFF1FA217B30736
:101EA000E407F50720F0A21BB30BE40BF50B661F4C
:101EB000771F881F991F1A9469F760957095809510
:101EC00090959B01AC01BD01CF010895AA1BBB1BDE
:101ED00051E107C0AA1FBB1FA617B70710F0A61B2A
:101EE000B70B881F991F5A95A9F780959095BC014B
:101EF000CD010895EE0FFF1F0590F491E02D099498
:101F00000F931F93CF93DF938230910510F482E0FB
:101F100090E0E091B103F091B20320E030E0A0E066
:101F2000B0E0309719F14081518102811381481747
:101F30005907C8F08417950769F4109731F0129685
:101F40000C93129713961C9327C00093B103109320
:101F5000B20322C02115310519F04217530718F4B6
:101F60009A01BD01EF01DF01F801DBCF2115310539
:101F7000F9F0281B390B2430310580F48A819B81CC
:101F80006115710521F0FB019383828304C0909356
:101F9000B2038093B103FE01329644C0FE01E20F0A
:101FA000F31F8193919322503109398328833AC0DA
:101FB0002091AF033091B003232B41F42091100105
:101FC000309111013093B0032093AF0320910E01A3
:101FD00030910F012115310541F42DB73EB74091E5
:101FE000120150911301241B350BE091AF03F091C6
:101FF000B003E217F307A0F42E1B3F0B2817390795
:1020000078F0AC014E5F5F4F2417350748F04E0F54
:102010005F1F5093B0034093AF038193919302C02D
:10202000E0E0F0E0CF01DF91CF911F910F91089593
:10203000CF93DF93009709F481C0FC01329713829C
:102040001282A091B103B091B203109781F4208164
:102050003181820F931F2091AF033091B003281775
:10206000390751F5F093B003E093AF0367C0ED017A
:1020700020E030E0CE17DF0740F44A815B819E010B
:1020800041155105F1F0EA01F5CFD383C2834081B8
:102090005181840F951FC817D90759F488819981F8
:1020A000840F951F0296918380838A819B819383FD
:1020B00082832115310529F4F093B203E093B10333
:1020C0003DC0E901FB83EA8349915991C40FD51FB3
:1020D000EC17FD0761F480819181840F951F0296B2
:1020E000E90199838883828193819B838A83E0E0DD
:1020F000F0E012968D919C911397009719F0FD01D5
:10210000DC01F7CF8D919C9111979D012E5F3F4F80
:10211000820F931F2091AF033091B0032817390726
:1021200069F4309729F41092B2031092B10302C0FF
:1021300013821282B093B003A093AF03DF91CF91CB
:102140000895A0E0B0E0E7EAF0E10C94FD0EEC01A8
:10215000009721F4CB010E94800FB4C0FC01E60F70
:10216000F71F9C0122503109E217F30708F4A8C0B9
:10217000D9010D911C91119706171707B0F0053082
:10218000110508F49BC0C80104978617970708F447
:1021900095C002501109061B170B019311936D9303
:1021A0007C93CF010E94181089C05B01A01AB10A6C
:1021B0004C01800E911EA091B103B091B203612C2D
:1021C000712CE12CF12C109709F446C08D919C9153
:1021D0001197A815B905B1F56C0142E0C40ED11CE8
:1021E000CA14DB0478F14C018A189B08640142E0B0
:1021F000C40ED11C1296BC9012971396AC91B5E008
:10220000CB16D10440F0B282A38391828082D9019F
:102210006D937C9309C00E5F1F4F800F911FF901D2
:1022200091838083EB2DFA2FE114F10431F0D70173
:102230001396FC93EE93129741C0F093B203E09390
:10224000B1033CC06816790608F43C017D01129682
:102250000D90BC91A02DB7CF8091AF039091B003AA
:1022600088169906E1F466167706C8F480910E0187
:1022700090910F01009741F48DB79EB740911201E4
:1022800050911301841B950BE817F907C8F4F093DC
:10229000B003E093AF03F901718360830FC0CB01FA
:1022A0000E94800F7C01009759F0A801BE010E9496
:1022B0006C11CE010E941810C70104C0CE0102C0EB
:1022C00080E090E0CDB7DEB7EEE00C94190F81E02E
:1022D00090E0F8940C948511FB01DC0102C00190A0
:1022E0000D9241505040D8F70895FB01DC018D91CB
:1022F000019080190110D9F3990B0895FB01DC01BD
:1023000001900D920020E1F7089510E0C2E6D0E0C0
:1023100004C0FE010E947A0F2196C336D107C9F787
:04232000F894FFCF5F
:1023240006000A0028002C0106000A000101000032
:10233400B3038000040002000000000020018D00AF
:10234400B7006D01E800C600DA0000000000C7080D
:102354008D0099012709630070006600456E766957
:10236400616E646F0020454D41204645532D526FE8
:1023740077696E672000202020436F6E6563746167
:102384006E646F2E2E2E006100496E696369616E62
:10239400646F20657374696D756C6163616F004669
:1023A40072657175656E6369613A00487A004C61C3
:1023B40072677572612064652050756C736F3A00A2
:1023C4006D7300436F7272656E7465457874656EE3
:1023D40073616F006D4120284348205B312C325DCE
:1023E4002900436F7272656E7465204175782045CB
:1023F4007874006D4120284348205B352C365D29D4
:1024040000436F7272656E746520466C6578616F07
:10241400006D4120284348205B332C345D29004360
:102424006F7272656E746520417578466C657800CC
:102434006D4120284348205B372C385D2900466CC9
:1024440065782E632F20417578696C6961723F004D
:102454004E616F20202020202020202020202020BA
:102464000053696D2C20434820372F380045787479
:102474002E632F20417578696C6961723F0053693E
:102484006D2C20434820352F360053656C2E4D6F3C
:1024940076696D656E746F2873293A0045787465A2
:1024A4006E73616F20202020202020002020202017
:1024B4002020202020666C6578616F004578746563
:1024C4006E73616F2B666C6578616F00202020202D
:1024D4005072657373696F6E65202020003C2D4631
:1024E4006C657820202020204578742D3E004669B4
:0224F4006D0079
:00000001FF
