:100000000C9463000C948B000C948B000C948B006C
:100010000C948B000C948B000C948B000C948B0034
:100020000C948B000C948B000C948B000C948B0024
:100030000C948B000C948B000C948B000C948B0014
:100040000C94E20B0C948B000C942D080C94070874
:100050000C948B000C948B000C948B000C948B00F4
:100060000C948B000C948B000000000024002700EF
:100070002A0000000000250028002B0000000000DE
:1000800023002600290004040404040404040202DA
:100090000202020203030303030301020408102007
:1000A0004080010204081020010204081020000012
:1000B0000008000201000003040700000000000027
:1000C0000000BB0EAF0E11241FBECFEFD8E0DEBF85
:1000D000CDBF23E0A6EDB2E001C01D92A73BB20761
:1000E000E1F712E0A0E0B1E0E4E5F3E202C0059040
:1000F0000D92A63DB107D9F710E0C2E6D0E004C0EA
:100100002197FE010E94920FC136D107C9F70E94C4
:10011000620D0C949D110C940000CF92DF92EF922F
:10012000FF920F931F93CF93DF936C017A018B01A2
:10013000C0E0D0E0CE15DF0581F0D8016D918D01D2
:10014000D601ED91FC910190F081E02DC601099559
:10015000892B11F02196EECF7E01C701DF91CF915F
:100160001F910F91FF90EF90DF90CF900895FC01C9
:10017000538D448D252F30E0842F90E0821B930B0C
:10018000541710F0CF96089501970895FC01918DB2
:10019000828D981761F0828DDF01A80FB11D5D96E9
:1001A0008C91928D9F5F9F73928F90E008958FEF57
:1001B0009FEF0895FC01918D828D981731F0828D0B
:1001C000E80FF11D858D90E008958FEF9FEF089562
:1001D000FC01918D228D892F90E0805C9F4F821BC6
:1001E00091098F739927089583EE92E00E94E800A9
:1001F00021E0892B09F420E0822F0895FC01848DF1
:10020000DF01A80FB11DA35ABF4F2C91848D90E040
:1002100001968F739927848FA689B7892C93A0891B
:10022000B1898C91837080648C93938D848D9813A5
:1002300006C00288F389E02D80818F7D8083089538
:10024000EF92FF920F931F93CF93DF93EC0181E026
:10025000888F9B8D8C8D981305C0E889F9898081E2
:1002600085FD26C0F62E0B8D10E00F5F1F4F0F731C
:100270001127E02E8C8DE8120CC00FB607FCFACFC8
:10028000E889F989808185FFF5CFCE010E94FE00C3
:10029000F1CF8B8DFE01E80FF11DE35AFF4FF08285
:1002A0009FB7F8940B8FEA89FB89808180620AC02E
:1002B0009FB7F894EE89FF896083E889F989808186
:1002C0008370806480839FBF81E090E0DF91CF9155
:1002D0001F910F91FF90EF900895CF93DF93EC0162
:1002E000888D8823C9F0EA89FB89808185FD05C056
:1002F000A889B9898C9186FD0FC00FB607FCF5CF90
:10030000808185FFF2CFA889B9898C9185FFEDCFD7
:10031000CE010E94FE00E7CFDF91CF91089580E0EB
:1003200090E0892B29F00E94F40081110C940000C8
:10033000089580E090E0089581E08093E0021092BB
:100340000D010895CF93DF93EC0160E08E810E9450
:100350009C0A61E08E810E949C0A60E08E810E946E
:100360009C0A8BE891E00197F1F7DF91CF91089516
:10037000CF93DF93382F292FE0E0F0E0CAE0D0E000
:10038000009731F0BE010E94480FCB013196F8CFA3
:10039000E330F10519F4632F722F14C0E901E23044
:1003A000F10541F03197A1F460E070E083EE92E056
:1003B0000E94B50C60E070E083EE92E00E94B50C04
:1003C0006D2F7C2F83EE92E0DF91CF910C94B50CD2
:1003D000DF91CF9108958091DF02811105C01092C5
:1003E000DE021092DD022BC0833019F481E090E030
:1003F00022C08C3019F482E090E01DC08F3019F4D7
:1004000083E090E018C0833319F484E090E013C0D7
:100410008F3319F485E090E00EC08C3C19F486E02F
:1004200090E009C08F3C19F487E090E004C08F3F52
:1004300031F488E090E09093DE028093DD0266E381
:1004400071E083EE92E00E94EF0C80910A0190919E
:100450000B010E94B80168E371E083EE92E00E9414
:10046000EF0C80910801909109010E94B8016AE3A4
:1004700071E083EE92E00E94EF0C80910601909172
:1004800007010E94B80162E172E083EE92E00E94EF
:10049000EF0C80910401909105010E94B8016CE37A
:1004A00071E083EE92E00E94EF0C80910201909146
:1004B00003010E94B8016EE371E083EE92E00E94B6
:1004C000EF0C80910001909101010E94B80164ED50
:1004D00072E083EE92E00E94EF0C8091DD02909139
:1004E000DE020E94B8010E94DB0960E471E082E94B
:1004F00093E00E94EF0C68EB7BE080E090E00E94CC
:10050000A80B85EF92E09093E2028093E10261E014
:1005100080E00E94E3094091DF0250E060E070E07B
:1005200022E082E993E00E946C0C61E08FE00E947F
:10053000E3096091DD027091DE0282E993E00C94A0
:10054000B50CCF93DF9300D000D000D0CDB7DEB78D
:100550000E94DB0961E080E00E94E30969E471E048
:1005600082E993E00E94EF0C68EE73E080E090E097
:100570000E94A80B60E080E00E94E3096AE571E058
:1005800082E993E00E94EF0C83EE92E00E94E80083
:10059000892BD1F3CE0101960E94320ACE01019639
:1005A0000E94F509CE0101960E944D0C80919003A6
:1005B00090919103892B41F36BE671E080918C035C
:1005C00090918D030E948D11892BF1F683E297E0C3
:1005D0009093E2028093E10226960FB6F894DEBF74
:1005E0000FBECDBFDF91CF910895CF93DF9300D0A1
:1005F00000D000D0CDB7DEB783EE92E00E94E800D5
:10060000892B81F1CE0101960E94320ACE0101961A
:100610000E94F509CE0101960E944D0C8091900335
:1006200090919103892BF1F06BE671E080918C033E
:1006300090918D030E948D11892BA1F40E94DB09FA
:100640006DE671E082E993E00E94EF0C68EE73E0E2
:1006500080E090E00E94A80B8CE991E09093E20288
:100660008093E10226960FB6F894DEBF0FBECDBF91
:10067000DF91CF9108950F93CF93DF93CDB7DEB77E
:100680002C970FB6F894DEBF0FBECDBF63E871E0C4
:1006900086E893E00E942C0C80910001909101016A
:1006A0009093DC028093DB0285E090E09093DA0285
:1006B0008093D9026FE871E080E893E00E942C0CEF
:1006C00060E873E0CE0107960E94520C66E873E082
:1006D000CE0101960E94520C6091D9027091DA020B
:1006E00001E09E01295F3F4FAE014F5F5F4F809158
:1006F000DB029091DC020E94F10C90930101809347
:100700000001CE0101960E944D0CCE0107960E9479
:100710004D0C64EF71E080E090E00E94A80B83E054
:100720000E94730A892B51F48BEE91E09093E202C0
:100730008093E10261E083E00E949C0A2C960FB650
:10074000F894DEBF0FBECDBFDF91CF910F9108951A
:100750000F93CF93DF93CDB7DEB72C970FB6F894F6
:10076000DEBF0FBECDBF62E971E086E893E00E9474
:100770002C0C80910201909103019093DC028093F4
:10078000DB028AE090E09093DA028093D90264EA77
:1007900071E080E893E00E942C0C60E873E0CE01E9
:1007A00007960E94520C66E873E0CE0101960E9403
:1007B000520C6091D9027091DA0201E09E01295F2A
:1007C0003F4FAE014F5F5F4F8091DB029091DC02A3
:1007D0000E94F10C9093030180930201CE010196D7
:1007E0000E944D0CCE0107960E944D0C64EF71E003
:1007F00080E090E00E94A80B83E00E94730A892B9E
:1008000051F48BE393E09093E2028093E10261E084
:1008100083E00E949C0A2C960FB6F894DEBF0FBEB0
:10082000CDBFDF91CF910F910895EF92FF920F937B
:10083000CF93DF93CDB7DEB72C970FB6F894DEBF1A
:100840000FBECDBF8091DF02837009F463C061E009
:1008500083E00E949C0A6AEF70E080E090E00E94D2
:10086000A80B32E0E32EF12C83E00E94730A01977B
:1008700009F050C067EA71E086E893E00E942C0C12
:1008800080910A0190910B019093DC028093DB022E
:10089000F092DA02E092D90268EB71E080E893E02E
:1008A0000E942C0C60E873E0CE0107960E94520C67
:1008B00066E873E0CE0101960E94520C6091D90265
:1008C0007091DA0201E09E01295F3F4FAE014F5F58
:1008D0005F4F8091DB029091DC020E94F10C9093BB
:1008E0000B0180930A01CE0101960E944D0CCE01AE
:1008F00007960E944D0C80910A0190910B019093F4
:1009000007018093060164E670E080E090E00E94B9
:10091000A80BAACF8091DF02807309F45BC061E06D
:1009200083E00E949C0A6AEF70E080E090E00E9401
:10093000A80B22E0E22EF12C83E00E94730A0197BB
:1009400009F048C066EC71E086E893E00E942C0C48
:1009500080910601909107019093DC028093DB0265
:10096000F092DA02E092D90267ED71E080E893E05C
:100970000E942C0C60E873E0CE0107960E94520C96
:1009800066E873E0CE0101960E94520C6091D90294
:100990007091DA0201E09E01295F3F4FAE014F5F87
:1009A0005F4F8091DB029091DC020E94F10C9093EA
:1009B000070180930601CE0101960E944D0CCE01E5
:1009C00007960E944D0C64E670E080E090E00E9483
:1009D000A80BB2CF8091DF028C7009F463C061E094
:1009E00083E00E949C0A6AEF70E080E090E00E9441
:1009F000A80B92E0E92EF12C83E00E94730A019784
:100A000009F050C065EE71E086E893E00E942C0C7E
:100A100080910801909109019093DC028093DB02A0
:100A2000F092DA02E092D90265EF71E080E893E09B
:100A30000E942C0C60E873E0CE0107960E94520CD5
:100A400066E873E0CE0101960E94520C6091D902D3
:100A50007091DA0201E09E01295F3F4FAE014F5FC6
:100A60005F4F8091DB029091DC020E94F10C909329
:100A7000090180930801CE0101960E944D0CCE0120
:100A800007960E944D0C8091080190910901909366
:100A900005018093040164E670E080E090E00E942C
:100AA000A80BAACF8091DF02807C09F45BC061E0D3
:100AB00083E00E949C0A6AEF70E080E090E00E9470
:100AC000A80B82E0E82EF12C83E00E94730A0197C4
:100AD00009F048C063E072E086E893E00E942C0CC5
:100AE00080910401909105019093DC028093DB02D8
:100AF000F092DA02E092D90264E172E080E893E0D9
:100B00000E942C0C60E873E0CE0107960E94520C04
:100B100066E873E0CE0101960E94520C6091D90202
:100B20007091DA0201E09E01295F3F4FAE014F5FF5
:100B30005F4F8091DB029091DC020E94F10C909358
:100B4000050180930401CE0101960E944D0CCE0157
:100B500007960E944D0C64E670E080E090E00E94F1
:100B6000A80BB2CF88EA93E09093E2028093E1026F
:100B70002C960FB6F894DEBF0FBECDBFDF91CF919C
:100B80000F91FF90EF9008950F93CF93DF93CDB720
:100B9000DEB72C970FB6F894DEBF0FBECDBF62E272
:100BA00072E086E893E00E942C0C0E94DB0986E844
:100BB00093E00E946A0A81E090E09093DA028093C9
:100BC000D90264E472E080E893E00E942C0C8091EA
:100BD000D80290E09093DC028093DB0260E873E03F
:100BE000CE0107960E94520C66E873E0CE01019692
:100BF0000E94520C6091D9027091DA0200E09E01CD
:100C0000295F3F4FAE014F5F5F4F8091DB029091B4
:100C1000DC020E94F10C9093DC028093DB02CE0197
:100C200001960E944D0CCE0107960E944D0C8091BA
:100C3000DB029091DC02892BA1F41092D80261E0D2
:100C400080E00E94E30964E372E082E993E00E949D
:100C5000EF0C1092D70264E670E080E090E00E9412
:100C6000A80B8091DB029091DC020197B1F481E046
:100C70008093D80261E080E00E94E30965E472E0BD
:100C800082E993E00E94EF0C80EC8093D70264E647
:100C900070E080E090E00E94A80B83E00E94730A5D
:100CA000892B69F49091DF028091D702892B809380
:100CB000DF0285E194E09093E2028093E1026AEF23
:100CC00070E080E090E00E94A80B2C960FB6F8949C
:100CD000DEBF0FBECDBFDF91CF910F9108950F936F
:100CE000CF93DF93CDB7DEB72C970FB6F894DEBF66
:100CF0000FBECDBF61E572E086E893E00E942C0C48
:100D00000E94DB0986E893E00E946A0A81E090E095
:100D10009093DA028093D90264E472E080E893E071
:100D20000E942C0C8091D60290E09093DC0280937C
:100D3000DB0260E873E0CE0107960E94520C66E881
:100D400073E0CE0101960E94520C6091D90270911D
:100D5000DA0200E09E01295F3F4FAE014F5F5F4F17
:100D60008091DB029091DC020E94F10C9093DC02F6
:100D70008093DB02CE0101960E944D0CCE010796B6
:100D80000E944D0C8091DB029091DC02892BA1F432
:100D90001092D60261E080E00E94E30964E372E011
:100DA00082E993E00E94EF0C1092D70264E670E0B3
:100DB00080E090E00E94A80B8091DB029091DC0221
:100DC0000197B1F481E08093D60261E080E00E9457
:100DD000E30962E672E082E993E00E94EF0C80E3AF
:100DE0008093D70264E670E080E090E00E94A80B58
:100DF00083E00E94730A892BE1F49091DF028091D5
:100E0000D702892B8093DF028091DD029091DE0270
:100E1000019719F485E194E002C084EC95E0909389
:100E2000E2028093E1026AEF70E080E090E00E94CD
:100E3000A80B2C960FB6F894DEBF0FBECDBFDF9186
:100E4000CF910F9108950F93CF93DF93CDB7DEB776
:100E50002C970FB6F894DEBF0FBECDBF6EE672E0E2
:100E600086E893E00E942C0C0E94DB0986E893E060
:100E70000E946A0A8091DD029091DE029093DC026A
:100E80008093DB0281E090E09093DA028093D902B4
:100E900064E472E080E893E00E942C0C60E873E068
:100EA000CE0107960E94520C66E873E0CE010196CF
:100EB0000E94520C6091D9027091DA0200E09E010A
:100EC000295F3F4FAE014F5F5F4F8091DB029091F2
:100ED000DC020E94F10C9093DE028093DD02CE01D1
:100EE00001960E944D0CCE0107960E944D0C8091F8
:100EF000DD029091DE02892B31F483E090E0909343
:100F0000DE028093DD028091DD029091DE02049783
:100F100031F481E090E09093DE028093DD028091D5
:100F2000DD029091DE02019769F461E080E00E94A9
:100F3000E30960E872E082E993E00E94EF0C83E04D
:100F40008093DF028091DD029091DE02029769F4C6
:100F500061E080E00E94E30960E972E082E993E0E9
:100F60000E94EF0C8CE08093DF028091DD02909173
:100F7000DE02039769F461E080E00E94E30960EA21
:100F800072E082E993E00E94EF0C8FE08093DF0231
:100F900064E670E080E090E00E94A80B83E00E948D
:100FA000730A892BA9F48091DD029091DE020297E9
:100FB00019F484EC95E002C08FE696E09093E2028B
:100FC0008093E1026AEF70E080E090E00E94A80B5D
:100FD0002C960FB6F894DEBF0FBECDBFDF91CF9138
:100FE0000F9108956115710579F0FB0101900020C2
:100FF000E9F73197AF01461B570BDC01ED91FC91EE
:101000000280F381E02D099480E090E008951F9222
:101010000F920FB60F9211242F933F934F935F932C
:101020006F937F938F939F93AF93BF93EF93FF93B0
:1010300083EE92E00E94FE00FF91EF91BF91AF918D
:101040009F918F917F916F915F914F913F912F91E0
:101050000F900FBE0F901F9018951F920F920FB612
:101060000F9211242F938F939F93EF93FF93E0910F
:10107000F302F091F4028081E091F902F091FA021A
:1010800082FD12C090818091FC028F5F8F7320914E
:10109000FD02821751F0E091FC02F0E0ED51FD4FAE
:1010A000958F8093FC0201C08081FF91EF919F9109
:1010B0008F912F910F900FBE0F901F901895CF9288
:1010C000DF92EF92FF920F931F93CF93DF936C0108
:1010D0007C0187E0E80EF11CC0E0D0E0062F10E0B4
:1010E000B8010C2E02C0759567950A94E2F76170FD
:1010F000F70181917F010E949C0A2196C430D1059D
:1011000079F7C601DF91CF911F910F91FF90EF907A
:10111000DF90CF900C94A201CF92DF92EF92FF92DA
:101120000F931F93CF93DF93EC01F62E642F8C81E6
:101130000E949C0A8D818F3F19F060E00E949C0AFA
:101140008F850F2D10E084FF25C06E0187E0C80E4B
:10115000D11CE12CF12CB8010E2C02C075956795BD
:101160000A94E2F76170F60181916F010E949C0A76
:10117000FFEFEF1AFF0A88E0E816F10461F7CE01ED
:10118000DF91CF911F910F91FF90EF90DF90CF9063
:101190000C94A201B80184E0759567958A95E1F7F2
:1011A000CE010E945F086F2DCE01DF91CF911F917C
:1011B0000F91FF90EF90DF90CF900C945F0841E08B
:1011C0000E948C0881E090E00895833081F028F43B
:1011D000813099F08230A1F008958730A9F08830ED
:1011E000B9F08430D1F4809180008F7D03C080916C
:1011F00080008F7780938000089584B58F7702C038
:1012000084B58F7D84BD08958091B0008F7703C031
:101210008091B0008F7D8093B00008953FB7F8941F
:101220008091AF039091B003A091B103B091B2034C
:1012300026B5A89B05C02F3F19F00196A11DB11D31
:101240003FBFBA2FA92F982F8827820F911DA11D6C
:10125000B11DBC01CD0142E0660F771F881F991FA9
:101260004A95D1F708952FB7F8946091AB03709128
:10127000AC038091AD039091AE032FBF0895089504
:101280000F931F930E9433096093EB027093EC025B
:101290008093ED029093EE0283EE92E00E94C600EE
:1012A00097FF1FC00E9433090091EB021091EC02DE
:1012B0002091ED023091EE02DC01CB01801B910BFD
:1012C000A20BB30B0091E7021091E8022091E90212
:1012D0003091EA0280179107A207B307E8F28FEF77
:1012E0009FEF1F910F91089540E0682F82E993E0EE
:1012F0000C948C080E947F110F931F93CF93DF9360
:10130000EC0188819981009729F02A813B81261779
:10131000370788F48B016F5F7F4F0E94B9100097E9
:1013200061F0998388831B830A832C813D81232B61
:1013300011F4FC01108281E001C080E0DF91CF91C7
:101340001F910F910895EF92FF920F931F93CF93E8
:10135000DF93EC017B018A01BA010E947C0928819C
:10136000398181110DC02115310519F0C9010E9483
:101370003010198218821D821C821B821A8206C0BC
:101380001D830C83B701C9010E949611CE01DF9124
:10139000CF911F910F91FF90EF900895FC01118262
:1013A0001082138212821582148240E050E064E4BD
:1013B00072E00C94A30981E00E9474098BE39FE121
:1013C0000197F1F70895643008F063E09091A50368
:1013D000691710F06FEF690FE62FF0E0EE56FC4F43
:1013E0009489890F80680C947409CF93DF93EC0182
:1013F00080918C0390918D03009739F068817981F9
:1014000061157105C9F40E9430108881998190930B
:101410008D0380938C038A819B8190938F038093AB
:101420008E038C819D819093910380939003198208
:1014300018821B821A8211C040918E0350918F0333
:101440002C813D8142175307F0F20E9496118C8146
:101450009D8190939103809390031D821C82DF9164
:10146000CF910895EF92FF920F931F93CF93DF9345
:1014700000D0CDB7DEB78C010E94CE090E94400992
:1014800097FD1EC089831A82F801E480F580FFEF82
:10149000EF1AFF0AB701C8010E947C09882371F383
:1014A000F8012081318184819581BE016F5F7F4F7A
:1014B000820F931F0E949611F801F582E482DECF1D
:1014C000C8010F900F90DF91CF911F910F91FF9066
:1014D000EF900895FC01448155816081718182E91A
:1014E00093E00C948D00CF93DF93282F30E0F90127
:1014F000E255FF4F8491F901E656FF4FD491F9016F
:10150000EA57FF4FC491CC2391F081110E94E50866
:10151000EC2FF0E0EE0FFF1FE458FF4FA591B491C0
:10152000EC91ED2381E090E021F480E002C080E0C6
:1015300090E0DF91CF9108951F93CF93DF93282FF1
:1015400030E0F901E255FF4F8491F901E656FF4F73
:10155000D491F901EA57FF4FC491CC23C1F0162F63
:1015600081110E94E508EC2FF0E0EE0FFF1FEE580E
:10157000FF4FA591B4919FB7F894111104C08C91BD
:10158000D095D82302C0EC91DE2BDC939FBFDF9176
:10159000CF911F910895CF93DF9390E0FC01E65621
:1015A000FF4F2491FC01EA57FF4F8491882361F19A
:1015B00090E0880F991FFC01E859FF4FC591D49125
:1015C000FC01EE58FF4FA591B491611109C09FB77E
:1015D000F8948881209582238883EC912E230BC078
:1015E000623061F49FB7F8948881322F309583235D
:1015F0008883EC912E2B2C939FBF06C08FB7F89455
:10160000E8812E2B28838FBFDF91CF910895CF9350
:10161000DF93823028F09091A10398609093A1030A
:101620008093A5031092A60380E48093A70380E132
:101630008093A80380E58093A90361E080919603DD
:101640000E94CB0A809197038F3F19F061E00E94BE
:10165000CB0A61E0809198030E94CB0AC2E9D3E0F3
:101660009E01225933408091A10384FD03C084E090
:1016700090E002C088E090E02196281739072CF40A
:1016800061E08E810E94CB0AEBCF8BE39DE0019756
:10169000F1F760E0809196030E949C0A60E08091DF
:1016A00098030E949C0A809197038F3F19F060E095
:1016B0000E949C0A8091A10384FD20C063E082E91E
:1016C00093E00E945F08CBE4D6E4CE010197F1F7E6
:1016D00063E082E993E00E945F082197F1F763E0FD
:1016E00082E993E00E945F0883E592E00197F1F7B9
:1016F00062E082E993E00E945F0815C080620E9468
:1017000074098BE496E40197F1F78091A10380625C
:101710000E94740983E592E00197F1F78091A1039B
:1017200080620E9474098091A10380620E94740902
:1017300084E08093A2038CE00E9474090E94DB097C
:1017400082E08093A30386E0DF91CF910C9474092B
:101750008F929F92AF92BF92CF92DF92EF92FF92C1
:101760006B017C010E940E094B015C01C114D10484
:10177000E104F104F1F00E940E09DC01CB018819AB
:101780009909AA09BB09883E9340A105B10570F3E8
:1017900021E0C21AD108E108F10888EE880E83E042
:1017A000981EA11CB11CC114D104E104F10419F765
:1017B000DDCFFF90EF90DF90CF90BF90AF909F90E4
:1017C0008F9008951F920F920FB60F9211242F93AE
:1017D0003F938F939F93AF93BF938091AB0390916F
:1017E000AC03A091AD03B091AE033091AA0323E006
:1017F000230F2D3720F40196A11DB11D05C026E849
:10180000230F0296A11DB11D2093AA038093AB0361
:101810009093AC03A093AD03B093AE038091AF035C
:101820009091B003A091B103B091B2030196A11DB4
:10183000B11D8093AF039093B003A093B103B09315
:10184000B203BF91AF919F918F913F912F910F90D4
:101850000FBE0F901F901895CF93DF93EC01611589
:10186000710559F0FB0101900020E9F73197AF01B4
:10187000461B570B0E94A3090CC0888199810097D1
:1018800011F00E943010198218821D821C821B8266
:101890001A82CE01DF91CF910895FC018081918160
:1018A0000C943010FB01DC0111961C921E921396D1
:1018B0001C921E92129715961C921E9214978617D0
:1018C000970749F0608171816115710521F04481AC
:1018D00055810C94A30908958F929F92AF92BF9265
:1018E000EF92FF920F931F93CF93DF93CDB7DEB7A5
:1018F000A1970FB6F894DEBF0FBECDBF7C01FA01F1
:10190000CB0119A2223008F42AE08E010F5D1F4F8F
:10191000822E912CA12CB12CBF01A50194010E9413
:101920005C0FF901CA01015011096A3014F4605DBD
:1019300001C0695CD8016C93232B242B252B61F704
:10194000B801C7010E94F207A1960FB6F894DEBF56
:101950000FBECDBFDF91CF911F910F91FF90EF9000
:10196000BF90AF909F908F900895CF92DF92EF92AB
:10197000FF920F931F93CF93DF936B01770FEE08C6
:10198000FF08F7FE1FC0EC01E881F9810190F081AA
:10199000E02D6DE209958C0144275527BA014C19B9
:1019A0005D096E097F092AE0CE010E946C0C800F50
:1019B000911FDF91CF911F910F91FF90EF90DF90DA
:1019C000CF9008952AE0B701A601DF91CF911F9132
:1019D0000F91FF90EF90DF90CF900C946C0C0C94D3
:1019E000F2076F927F928F929F92AF92BF92CF92A7
:1019F000DF92EF92FF920F93CF93DF93EC017B0185
:101A00004A01390182E00E94730A5C0184E00E946D
:101A1000730A6C01002319F10E94DB09C4010E94C2
:101A20006A0A61E080E00E94E309BE0182E993E076
:101A30000E94B50C63E472E082E993E00E94EF0C2F
:101A4000C3010E946A0A61E472E082E993E00E94A5
:101A5000EF0C64E670E080E090E00E94A80BAB28F9
:101A600071F40E9433090E9433090E943309CE0D9C
:101A7000DF1D64E670E080E090E00E94A80BCD28B6
:101A800091F40E9433090E9433090E943309CE1950
:101A9000DF09D7FF02C0C0E0D0E064E670E080E07C
:101AA00090E00E94A80BCE01DF91CF910F91FF90A3
:101AB000EF90DF90CF90BF90AF909F908F907F90EE
:101AC0006F900895789484B5826084BD84B58160F8
:101AD00084BD85B5826085BD85B5816085BD8091F9
:101AE0006E00816080936E00109281008091810071
:101AF0008260809381008091810081608093810069
:101B0000809180008160809380008091B10084602A
:101B10008093B1008091B00081608093B00080918B
:101B20007A00846080937A0080917A00826080934A
:101B30007A0080917A00816080937A0080917A00A7
:101B4000806880937A001092C10082E00E94070BA7
:101B5000E091F302F091F40282E08083E091EF02E1
:101B6000F091F0021082E091F102F091F2028FEC1C
:101B700080831092FB02E091F702F091F80286E078
:101B80008083E091F502F091F6028081806180838C
:101B9000E091F502F091F602808188608083E09107
:101BA000F502F091F602808180688083E091F50271
:101BB000F091F60280818F7D808383EE92E00E9417
:101BC0006D0162E083E00E94CB0A62E084E00E9443
:101BD000CB0A62E082E00E94CB0A61E086E00E94CC
:101BE000CB0A61E085E00E94CB0A61E08DE00E94B3
:101BF000CB0A81EA92E09093E2028093E102809125
:101C00000D01882309F454C0E091E102F091E20251
:101C10000995F5CF83E00E94730A892B09F098C0DB
:101C200061E083E00E949C0A0330110509F47DC045
:101C3000C3E0D0E0BE0183EE92E00E94B50C0E94AA
:101C4000DB0960EB72E082E993E00E94EF0C61E057
:101C500080E00E94E30961EC72E082E993E00E9477
:101C6000EF0C60E08DE00E949C0A60E085E00E943D
:101C70009C0AC330D10509F458C06EE170E080E0E1
:101C800090E00E94A80B8E0180910C0181111CC074
:101C900064EF71E080E090E00E94A80B61E086E0D4
:101CA0000E949C0A64EF71E080E090E00E94A80B23
:101CB0008091E002882309F4A2CF60E086E00E94D0
:101CC0009C0A01E010E0E0CF82E00E94730A892BB9
:101CD00099F461E082E00E949C0A0E94DB096FEAAD
:101CE00071E082E993E00E94EF0C61E085E00E94E0
:101CF0009C0AC1E0D0E02EC084E00E94730A892BC8
:101D000009F088CF61E084E00E949C0A0E94DB0910
:101D10006EEE71E082E993E00E94EF0C61E08DE0ED
:101D20000E949C0AC2E0D0E015C063E070E083EE40
:101D300092E00E94B50C10920C010E94DB0962ED4A
:101D400072E082E993E00E94EF0CC3E0D0E095CF0F
:101D5000C0E0D0E0C017D10709F48FCF6BCF80E887
:101D600093E00E944D0C86E893E00E944D0C8CE8B5
:101D700093E00C944D0CE3EEF2E01382128288EEB5
:101D800093E0A0E0B0E084839583A683B7838CE1E1
:101D900091E09183808385EC90E09587848784EC43
:101DA00090E09787868780EC90E0918B808B81EC28
:101DB00090E0938B828B82EC90E0958B848B86EC09
:101DC00090E0978B868B118E128E138E148EE2E923
:101DD000F3E0138212828EE291E09183808389E0A6
:101DE00084838FEF858387E0868388E087838CE018
:101DF00080878AE081878BE0828713861486158628
:101E00001686178681E00E94070B8CE893E00E94FB
:101E1000CE0986E893E00E94CE0980E893E00C9416
:101E2000CE092F923F924F925F926F927F928F9244
:101E30009F92AF92BF92CF92DF92EF92FF920F9359
:101E40001F93CF93DF93CDB7DEB7CA1BDB0B0FB663
:101E5000F894DEBF0FBECDBF09942A883988488820
:101E60005F846E847D848C849B84AA84B984C884B6
:101E7000DF80EE80FD800C811B81AA81B981CE0FAD
:101E8000D11D0FB6F894DEBF0FBECDBFED01089592
:101E900097FB072E16F4009407D077FD09D00E9417
:101EA0007E0F07FC05D03EF4909581959F4F0895D5
:101EB000709561957F4F0895A1E21A2EAA1BBB1B56
:101EC000FD010DC0AA1FBB1FEE1FFF1FA217B30706
:101ED000E407F50720F0A21BB30BE40BF50B661F1C
:101EE000771F881F991F1A9469F7609570958095E0
:101EF00090959B01AC01BD01CF010895AA1BBB1BAE
:101F000051E107C0AA1FBB1FA617B70710F0A61BF9
:101F1000B70B881F991F5A95A9F780959095BC011A
:101F2000CD010895EE0FFF1F0590F491E02D099467
:101F30000F931F93CF93DF938230910510F482E0CB
:101F400090E0E091B503F091B60320E030E0A0E02E
:101F5000B0E0309719F14081518102811381481717
:101F60005907C8F08417950769F4109731F0129655
:101F70000C93129713961C9327C00093B5031093EC
:101F8000B60322C02115310519F04217530718F482
:101F90009A01BD01EF01DF01F801DBCF2115310509
:101FA000F9F0281B390B2430310580F48A819B819C
:101FB0006115710521F0FB019383828304C0909326
:101FC000B6038093B503FE01329644C0FE01E20FD2
:101FD000F31F8193919322503109398328833AC0AA
:101FE0002091B3033091B403232B41F420911001CD
:101FF000309111013093B4032093B30320910E016B
:1020000030910F012115310541F42DB73EB74091B4
:10201000120150911301241B350BE091B303F09191
:10202000B403E217F307A0F42E1B3F0B2817390760
:1020300078F0AC014E5F5F4F2417350748F04E0F24
:102040005F1F5093B4034093B3038193919302C0F5
:10205000E0E0F0E0CF01DF91CF911F910F91089563
:10206000CF93DF93009709F481C0FC01329713826C
:102070001282A091B503B091B603109781F420812C
:102080003181820F931F2091B3033091B40328173D
:10209000390751F5F093B403E093B30367C0ED0142
:1020A00020E030E0CE17DF0740F44A815B819E01DB
:1020B00041155105F1F0EA01F5CFD383C283408188
:1020C0005181840F951FC817D90759F488819981C8
:1020D000840F951F0296918380838A819B819383CD
:1020E00082832115310529F4F093B603E093B503FB
:1020F0003DC0E901FB83EA8349915991C40FD51F83
:10210000EC17FD0761F480819181840F951F029681
:10211000E90199838883828193819B838A83E0E0AC
:10212000F0E012968D919C911397009719F0FD01A4
:10213000DC01F7CF8D919C9111979D012E5F3F4F50
:10214000820F931F2091B3033091B40328173907EE
:1021500069F4309729F41092B6031092B50302C0C7
:1021600013821282B093B403A093B303DF91CF9193
:102170000895A0E0B0E0EFEBF0E10C94150FEC0156
:10218000009721F4CB010E94980FB4C0FC01E60F28
:10219000F71F9C0122503109E217F30708F4A8C089
:1021A000D9010D911C91119706171707B0F0053052
:1021B000110508F49BC0C80104978617970708F417
:1021C00095C002501109061B170B019311936D93D3
:1021D0007C93CF010E94301089C05B01A01AB10A24
:1021E0004C01800E911EA091B503B091B603612CF5
:1021F000712CE12CF12C109709F446C08D919C9123
:102200001197A815B905B1F56C0142E0C40ED11CB7
:10221000CA14DB0478F14C018A189B08640142E07F
:10222000C40ED11C1296BC9012971396AC91B5E0D7
:10223000CB16D10440F0B282A38391828082D9016F
:102240006D937C9309C00E5F1F4F800F911FF901A2
:1022500091838083EB2DFA2FE114F10431F0D70143
:102260001396FC93EE93129741C0F093B603E0935C
:10227000B5033CC06816790608F43C017D0112964E
:102280000D90BC91A02DB7CF8091B3039091B40372
:1022900088169906E1F466167706C8F480910E0157
:1022A00090910F01009741F48DB79EB740911201B4
:1022B00050911301841B950BE817F907C8F4F093AC
:1022C000B403E093B303F901718360830FC0CB01C2
:1022D0000E94980F7C01009759F0A801BE010E944E
:1022E0008411CE010E943010C70104C0CE0102C08B
:1022F00080E090E0CDB7DEB7EEE00C94310F81E0E6
:1023000090E0F8940C949D11FB01DC0102C0019057
:102310000D9241505040D8F70895FB01DC018D919A
:10232000019080190110D9F3990B0895FB01DC018C
:1023300001900D920020E1F7089510E0C2E6D0E090
:1023400004C0FE010E94920F2196C336D107C9F73F
:04235000F894FFCF2F
:1023540028002C0106000A0006000A000101000002
:10236400B7038000040002000000000020018D007B
:10237400B7006D01E800C600DA0000000000DF08C5
:102384008D0099013F0963006400650070006600D8
:10239400456E7669616E646F0020454D4120464567
:1023A400532D526F77696E672000202020436F6E93
:1023B400656374616E646F2E2E2E006100496E6930
:1023C4006369616E646F20657374696D756C6163B4
:1023D400616F004672657175656E6369613A0048A4
:1023E4007A004C6172677572612064652050756C67
:1023F400736F3A006D7300436F7272656E74654556
:102404007874656E73616F006D4120284348205BCA
:10241400312C325D2900436F7272656E7465204100
:10242400757820457874006D4120284348205B3539
:102434002C365D2900436F7272656E746520466C9C
:102444006578616F006D4120284348205B332C344C
:102454005D2900436F7272656E746520417578461C
:102464006C6578006D4120284348205B372C385D2B
:102474002900466C65782E632F20417578696C6954
:1024840061723F004E616F202020202020202020F8
:10249400202020200053696D2C20434820372F38FA
:1024A400004578742E632F20417578696C696172D8
:1024B4003F0053696D2C20434820352F3600536567
:1024C4006C2E4D6F76696D656E746F2873293A00B2
:1024D400457874656E73616F2020202020202000D1
:1024E400202020202020202020666C6578616F0049
:1024F400457874656E73616F2B666C6578616F00E7
:10250400202020205072657373696F6E652020202F
:10251400003C2D466C657820202020204578742DC1
:062524003E0046696D0057
:00000001FF
