:100000000C9463000C948B000C948B000C948B006C
:100010000C948B000C948B000C948B000C948B0034
:100020000C948B000C948B000C948B000C948B0024
:100030000C948B000C948B000C948B000C948B0014
:100040000C94060C0C948B000C9451080C942B0807
:100050000C948B000C948B000C948B000C948B00F4
:100060000C948B000C948B000000000024002700EF
:100070002A0000000000250028002B0000000000DE
:1000800023002600290004040404040404040202DA
:100090000202020203030303030301020408102007
:1000A0004080010204081020010204081020000012
:1000B0000008000201000003040700000000000027
:1000C0000000DD0ED10E11241FBECFEFD8E0DEBF41
:1000D000CDBF23E0A6EDB2E001C01D92AB3BB2075D
:1000E000E1F712E0A0E0B1E0E8E9F3E202C0059038
:1000F0000D92A63DB107D9F710E0C2E6D0E004C0EA
:100100002197FE010E94B40FC136D107C9F70E94A2
:10011000860D0C94BF110C940000CF92DF92EF92E9
:10012000FF920F931F93CF93DF936C017A018B01A2
:10013000C0E0D0E0CE15DF0581F0D8016D918D01D2
:10014000D601ED91FC910190F081E02DC601099559
:10015000892B11F02196EECF7E01C701DF91CF915F
:100160001F910F91FF90EF90DF90CF900895FC01C9
:10017000538D448D252F30E0842F90E0821B930B0C
:10018000541710F0CF96089501970895FC01918DB2
:10019000828D981761F0828DDF01A80FB11D5D96E9
:1001A0008C91928D9F5F9F73928F90E008958FEF57
:1001B0009FEF0895FC01918D828D981731F0828D0B
:1001C000E80FF11D858D90E008958FEF9FEF089562
:1001D000FC01918D228D892F90E0805C9F4F821BC6
:1001E00091098F739927089587EE92E00E94E800A5
:1001F00021E0892B09F420E0822F0895FC01848DF1
:10020000DF01A80FB11DA35ABF4F2C91848D90E040
:1002100001968F739927848FA689B7892C93A0891B
:10022000B1898C91837080648C93938D848D9813A5
:1002300006C00288F389E02D80818F7D8083089538
:10024000EF92FF920F931F93CF93DF93EC0181E026
:10025000888F9B8D8C8D981305C0E889F9898081E2
:1002600085FD26C0F62E0B8D10E00F5F1F4F0F731C
:100270001127E02E8C8DE8120CC00FB607FCFACFC8
:10028000E889F989808185FFF5CFCE010E94FE00C3
:10029000F1CF8B8DFE01E80FF11DE35AFF4FF08285
:1002A0009FB7F8940B8FEA89FB89808180620AC02E
:1002B0009FB7F894EE89FF896083E889F989808186
:1002C0008370806480839FBF81E090E0DF91CF9155
:1002D0001F910F91FF90EF900895CF93DF93EC0162
:1002E000888D8823C9F0EA89FB89808185FD05C056
:1002F000A889B9898C9186FD0FC00FB607FCF5CF90
:10030000808185FFF2CFA889B9898C9185FFEDCFD7
:10031000CE010E94FE00E7CFDF91CF91089580E0EB
:1003200090E0892B29F00E94F40081110C940000C8
:10033000089580E090E0089581E08093E4021092B7
:1003400008010895CF93DF93EC0160E08E810E9455
:10035000480A61E08E810E94480A60E08E810E9416
:10036000480A8BE891E00197F1F7DF91CF9108956A
:10037000CF93DF93382F292FE0E0F0E0CAE0D0E000
:10038000009731F0BE010E946A0FCB013196F8CF81
:10039000E330F10519F4632F722F14C0E901E23044
:1003A000F10541F03197A1F460E070E087EE92E052
:1003B0000E94D90C60E070E087EE92E00E94D90CB8
:1003C0006D2F7C2F87EE92E0DF91CF910C94D90CAA
:1003D000DF91CF910895CF92DF92EF92FF92CF936A
:1003E000DF930E948E0B6093E0027093E102809392
:1003F000E2029093E30283E00E941F0A892B19F422
:1004000081E08093DF02C4EBD3E08091DF02882398
:1004100009F44DC00E948E0B6B017C0183E00E94A9
:100420001F0A019741F41092DF0261E083E00E940D
:10043000480A80E03DC08091E0029091E102A091E5
:10044000E202B091E302C81AD90AEA0AFB0A88EB71
:10045000C8168BE0D806E104F104B8F20E94BF0987
:1004600060E080E00E94D0096FE271E086E993E0ED
:100470000E94130D6CED75E080E090E00E94540B3B
:100480001092DF021092DE021092DD021092DC0266
:100490001092DB021092DA021092D902D093E60297
:1004A000C093E50261E083E00E94480AAECF81E09C
:1004B000DF91CF91FF90EF90DF90CF9008958091E2
:1004C000DC02811105C01092DE021092DD022BC009
:1004D000833019F481E090E022C08C3019F482E07E
:1004E00090E01DC08F3019F483E090E018C0833392
:1004F00019F484E090E013C08F3319F485E090E0A4
:100500000EC08C3C19F486E090E009C08F3C19F4D1
:1005100087E090E004C08F3F31F488E090E0909352
:10052000DE028093DD0265E371E087EE92E00E94D7
:10053000130D80910601082E000C990B0E94B80142
:1005400067E371E087EE92E00E94130D8091050150
:10055000082E000C990B0E94B80169E371E087EE48
:1005600092E00E94130D80910401082E000C990B5B
:100570000E94B80163E572E087EE92E00E94130DDD
:1005800080910301082E000C990B0E94B8016BE3C7
:1005900071E087EE92E00E94130D8091010190912D
:1005A00002010E94B8016DE371E087EE92E00E94C3
:1005B000130D80910001082E000C990B0E94B801C8
:1005C00063ED72E087EE92E00E94130D8091DD02F0
:1005D0009091DE020E94B8010E94BF096FE371E0B2
:1005E00086E993E00E94130D60ED77E080E090E0F3
:1005F0000E94540B8EE693E09093E6028093E5020E
:1006000061E080E00E94D0094091DC0250E060E0AF
:1006100070E022E086E993E00E94900C61E08FE0B8
:100620000E94D0096091DD027091DE0286E993E0BC
:100630000C94D90CCF93DF9300D000D000D0CDB76D
:10064000DEB70E94BF0961E080E00E94D00968E443
:1006500071E086E993E00E94130D68EE73E080E09C
:1006600090E00E94540B60E080E00E94D00969E5B0
:1006700071E086E993E00E94130D87EE92E00E94FC
:10068000E800892BD1F3CE0101960E94CE0BCE015A
:1006900001960E94E209CE0101960E94710C8091A0
:1006A000940390919503892B41F36AE671E0809160
:1006B0009003909191030E94AF11892BF1F684EB86
:1006C00093E09093E6028093E50226960FB6F894A5
:1006D000DEBF0FBECDBFDF91CF910895CF93DF93E3
:1006E00000D000D000D0CDB7DEB787EE92E00E94F8
:1006F000E800892B81F1CE0101960E94CE0BCE013C
:1007000001960E94E209CE0101960E94710C80912F
:10071000940390919503892BF1F06AE671E0809142
:100720009003909191030E94AF11892BA1F40E9434
:10073000BF096CE671E086E993E00E94130D68EE54
:1007400073E080E090E00E94540B8CE991E090937C
:10075000E6028093E50226960FB6F894DEBF0FBE40
:10076000CDBFDF91CF9108950F93CF93DF93CDB796
:10077000DEB72C970FB6F894DEBF0FBECDBF62E890
:1007800071E08AE893E00E94500C0E94BF098AE859
:1007900093E00E94C7098091DD029091DE02909360
:1007A000DA028093D90281E08093D80265E872E092
:1007B00084E893E00E94500C64E873E0CE01079651
:1007C0000E94760C6AE873E0CE0101960E94760CD6
:1007D0006091D802062E000C770B00E09E01295F85
:1007E0003F4FAE014F5F5F4F8091D9029091DA0287
:1007F0000E94150D9093DE028093DD02CE010196DA
:100800000E94710CCE0107960E94710C8091DD024E
:100810009091DE02892B31F483E090E09093DE0228
:100820008093DD028091DD029091DE02049731F425
:1008300081E090E09093DE028093DD028091DD0202
:100840009091DE02019769F461E080E00E94D00996
:1008500064E971E086E993E00E94130D83E08093E0
:10086000DC028091DD029091DE02029769F461E082
:1008700080E00E94D00964EA71E086E993E00E947A
:10088000130D8CE08093DC028091DD029091DE02FA
:10089000039769F461E080E00E94D00964EB71E0A5
:1008A00086E993E00E94130D8FE08093DC026AEFEB
:1008B00070E080E090E00E94540B0E94EB018111F7
:1008C00015C08091DD029091DE02029719F48AEB47
:1008D00096E002C085E697E09093E6028093E502F9
:1008E0006AEF70E080E090E00E94540B2C960FB607
:1008F000F894DEBF0FBECDBFDF91CF910F91089569
:100900000F93CF93DF93CDB7DEB72C970FB6F89444
:10091000DEBF0FBECDBF64EC71E08AE893E00E94B9
:10092000500C80910001082E000C990B9093DA0274
:100930008093D90285E08093D80260ED71E084E86D
:1009400093E00E94500C64E873E0CE0107960E9489
:10095000760C6AE873E0CE0101960E94760C6091F5
:10096000D802062E000C770B01E09E01295F3F4F55
:10097000AE014F5F5F4F8091D9029091DA020E94E1
:10098000150D80930001CE0101960E94710CCE01DD
:1009900007960E94710C6AEF70E080E090E00E9480
:1009A000540B0E94EB0181110AC08FE592E09093F5
:1009B000E6028093E50261E083E00E94480A2C96FB
:1009C0000FB6F894DEBF0FBECDBFDF91CF910F9170
:1009D00008950F93CF93DF93CDB7DEB72C970FB663
:1009E000F894DEBF0FBECDBF63ED71E08AE893E0FF
:1009F0000E94500C80910101909102019093DA02C3
:100A00008093D9028AE08093D80265EE71E084E891
:100A100093E00E94500C64E873E0CE0107960E94B8
:100A2000760C6AE873E0CE0101960E94760C609124
:100A3000D802062E000C770B01E09E01295F3F4F84
:100A4000AE014F5F5F4F8091D9029091DA020E9410
:100A5000150D9093020180930101CE0101960E9431
:100A6000710CCE0107960E94710C6AEF70E080E075
:100A700090E00E94540B0E94EB0181110AC080E8B3
:100A800094E09093E6028093E50261E083E00E94A7
:100A9000480A2C960FB6F894DEBF0FBECDBFDF918B
:100AA000CF910F9108950F93CF93DF93CDB7DEB71A
:100AB0002C970FB6F894DEBF0FBECDBF9091DB022E
:100AC000911106C029EE34E03093E6022093E5024E
:100AD0008091DC028923837009F44AC068EE71E0DA
:100AE0008AE893E00E94500C80910601082E000CC9
:100AF000990B9093DA028093D90282E08093D80216
:100B000069EF71E084E893E00E94500C64E873E0C0
:100B1000CE0107960E94760C6AE873E0CE0101963A
:100B20000E94760C6091D802062E000C770B01E033
:100B30009E01295F3F4FAE014F5F5F4F8091D90209
:100B40009091DA020E94150D80930601CE01019664
:100B50000E94710CCE0107960E94710C80910601D3
:100B6000809304016AEF70E080E090E00E94540BF3
:100B70009091DC028091DB028923807309F446C0E6
:100B800067E072E08AE893E00E94500C80910401D3
:100B9000082E000C990B9093DA028093D90282E020
:100BA0008093D80268E172E084E893E00E94500CE0
:100BB00064E873E0CE0107960E94760C6AE873E061
:100BC000CE0101960E94760C6091D802062E000C90
:100BD000770B01E09E01295F3F4FAE014F5F5F4FF2
:100BE0008091D9029091DA020E94150D8093040140
:100BF000CE0101960E94710CCE0107960E94710CE5
:100C00006AEF70E080E090E00E94540B9091DC026B
:100C10008091DB0289238C7009F44AC066E272E09D
:100C20008AE893E00E94500C80910501082E000C88
:100C3000990B9093DA028093D90282E08093D802D4
:100C400066E372E084E893E00E94500C64E873E08D
:100C5000CE0107960E94760C6AE873E0CE010196F9
:100C60000E94760C6091D802062E000C770B01E0F2
:100C70009E01295F3F4FAE014F5F5F4F8091D902C8
:100C80009091DA020E94150D80930501CE01019624
:100C90000E94710CCE0107960E94710C8091050193
:100CA000809303016AEF70E080E090E00E94540BB3
:100CB0009091DC028091DB028923807C09F446C09C
:100CC00064E472E08AE893E00E94500C8091030192
:100CD000082E000C990B9093DA028093D90282E0DF
:100CE0008093D80265E572E084E893E00E94500C9E
:100CF00064E873E0CE0107960E94760C6AE873E020
:100D0000CE0101960E94760C6091D802062E000C4E
:100D1000770B01E09E01295F3F4FAE014F5F5F4FB0
:100D20008091D9029091DA020E94150D80930301FF
:100D3000CE0101960E94710CCE0107960E94710CA3
:100D40006AEF70E080E090E00E94540B0E94EB019B
:100D5000811106C08091DB02880F880F8093DB022F
:100D60002C960FB6F894DEBF0FBECDBFDF91CF91AA
:100D70000F9108950F93CF93DF93CDB7DEB72C97E4
:100D80000FB6F894DEBF0FBECDBF63E672E08AE80F
:100D900093E00E94500C0E94BF098AE893E00E94F1
:100DA000C70981E08093D80265E872E084E893E0A7
:100DB0000E94500C8091D70290E09093DA028093C9
:100DC000D90264E873E0CE0107960E94760C6AE8C7
:100DD00073E0CE0101960E94760C6091D802062E37
:100DE000000C770B00E09E01295F3F4FAE014F5F83
:100DF0005F4F8091D9029091DA020E94150D909375
:100E0000DA028093D902CE0101960E94710CCE01C4
:100E100007960E94710C8091D9029091DA02892B79
:100E2000A1F41092D70261E080E00E94D00965E74A
:100E300072E086E993E00E94130D1092DB026AEFE4
:100E400070E080E090E00E94540B8091D902909174
:100E5000DA020197B1F481E08093D70261E080E08B
:100E60000E94D00966E872E086E993E00E94130DC3
:100E700080EC8093DB026AEF70E080E090E00E94FB
:100E8000540B0E94EB01811110C09091DC02809103
:100E9000DB02892B8093DC0283E08093DB0283E515
:100EA00095E09093E6028093E5026AEF70E080E0BF
:100EB00090E00E94540B2C960FB6F894DEBF0FBE44
:100EC000CDBFDF91CF910F9108950F93CF93DF9313
:100ED000CDB7DEB72C970FB6F894DEBF0FBECDBFEF
:100EE00062E972E08AE893E00E94500C0E94BF0918
:100EF0008AE893E00E94C70981E08093D80265E800
:100F000072E084E893E00E94500C8091D60290E059
:100F10009093DA028093D90264E873E0CE010796D9
:100F20000E94760C6AE873E0CE0101960E94760C6E
:100F30006091D802062E000C770B00E09E01295F1D
:100F40003F4FAE014F5F5F4F8091D9029091DA021F
:100F50000E94150D9093DA028093D902CE0101967A
:100F60000E94710CCE0107960E94710C8091D902EB
:100F70009091DA02892BA1F41092D60261E080E010
:100F80000E94D00965E772E086E993E00E94130DA4
:100F90001092DB026AEF70E080E090E00E94540B58
:100FA0008091D9029091DA020197B1F481E08093A7
:100FB000D60261E080E00E94D00963EA72E086E92F
:100FC00093E00E94130D80E38093DB026AEF70E0F0
:100FD00080E090E00E94540B0E94EB0181111CC044
:100FE0009091DC028091DB02892B8093DC0280915E
:100FF000DD029091DE02019719F483E595E002C0CD
:101000008AEB96E09093E6028093E5026AEF70E047
:1010100080E090E00E94540B2C960FB6F894DEBF4F
:101020000FBECDBFDF91CF910F910895611571056E
:1010300079F0FB0101900020E9F73197AF01461BE1
:10104000570BDC01ED91FC910280F381E02D0994B6
:1010500080E090E008951F920F920FB60F92112436
:101060002F933F934F935F936F937F938F939F93B0
:10107000AF93BF93EF93FF9387EE92E00E94FE0041
:10108000FF91EF91BF91AF919F918F917F916F9160
:101090005F914F913F912F910F900FBE0F901F9036
:1010A00018951F920F920FB60F9211242F938F93C2
:1010B0009F93EF93FF93E091F702F091F802808104
:1010C000E091FD02F091FE0282FD12C090818091BC
:1010D00000038F5F8F7320910103821751F0E0911D
:1010E0000003F0E0E951FD4F958F8093000301C0AC
:1010F0008081FF91EF919F918F912F910F900FBE63
:101100000F901F901895CF92DF92EF92FF920F935E
:101110001F93CF93DF936C017C0187E0E80EF11CF5
:10112000C0E0D0E0062F10E0B8010C2E02C075958B
:1011300067950A94E2F76170F70181917F010E943F
:10114000480A2196C430D10579F7C601DF91CF91C5
:101150001F910F91FF90EF90DF90CF900C94A20120
:10116000CF92DF92EF92FF920F931F93CF93DF9373
:10117000EC01F62E642F8C810E94480A8D818F3FEE
:1011800019F060E00E94480A8F850F2D10E084FF5F
:1011900025C06E0187E0C80ED11CE12CF12CB801EE
:1011A0000E2C02C0759567950A94E2F76170F601FE
:1011B00081916F010E94480AFFEFEF1AFF0A88E051
:1011C000E816F10461F7CE01DF91CF911F910F91E5
:1011D000FF90EF90DF90CF900C94A201B80184E0D3
:1011E000759567958A95E1F7CE010E9483086F2D6A
:1011F000CE01DF91CF911F910F91FF90EF90DF9083
:10120000CF900C94830841E00E94B00881E090E008
:101210000895833081F028F4813099F08230A1F074
:1012200008958730A9F08830B9F08430D1F48091E6
:1012300080008F7D03C0809180008F778093800035
:10124000089584B58F7702C084B58F7D84BD0895DD
:101250008091B0008F7703C08091B0008F7D809324
:10126000B00008953FB7F8948091B3039091B40310
:10127000A091B503B091B60326B5A89B05C02F3F3A
:1012800019F00196A11DB11D3FBFBA2FA92F982FAC
:101290008827820F911DA11DB11DBC01CD0142E027
:1012A000660F771F881F991F4A95D1F708950895F3
:1012B00040E0682F86E993E00C94B0080E94A111E9
:1012C0000F931F93CF93DF93EC018881998100974F
:1012D00029F02A813B812617370788F48B016F5F3D
:1012E0007F4F0E94DB10009761F0998388831B83F6
:1012F0000A832C813D81232B11F4FC01108281E0B3
:1013000001C080E0DF91CF911F910F910895EF927E
:10131000FF920F931F93CF93DF93EC017B018A0120
:10132000BA010E9460092881398181110DC02115FF
:10133000310519F0C9010E945210198218821D82CC
:101340001C821B821A8206C01D830C83B701C9014F
:101350000E94B811CE01DF91CF911F910F91FF90A4
:10136000EF900895FC01118210821382128215827F
:10137000148240E050E065E872E00C94870981E057
:101380000E9458098BE39FE10197F1F70895FC0152
:10139000448155816081718186E993E00C948D00D0
:1013A000643008F063E09091A903691710F06FEFC3
:1013B000690FE62FF0E0EA56FC4F9489890F8068A8
:1013C0000C945809CF93DF93EC0180919003909196
:1013D0009103009739F06881798161157105C9F42D
:1013E0000E94521088819981909391038093900379
:1013F0008A819B8190939303809392038C819D813A
:101400009093950380939403198218821B821A8209
:1014100011C040919203509193032C813D8142175A
:101420005307F0F20E94B8118C819D81909395032F
:10143000809394031D821C82DF91CF910895CF93F6
:10144000DF93282F30E0F901E255FF4F8491F90135
:10145000E656FF4FD491F901EA57FF4FC491CC23D0
:1014600091F081110E940909EC2FF0E0EE0FFF1FAF
:10147000E458FF4FA591B491EC91ED2381E090E009
:1014800021F480E002C080E090E0DF91CF910895E8
:101490001F93CF93DF93282F30E0F901E255FF4FE0
:1014A0008491F901E656FF4FD491F901EA57FF4FB5
:1014B000C491CC23C1F0162F81110E940909EC2F91
:1014C000F0E0EE0FFF1FEE58FF4FA591B4919FB7CC
:1014D000F894111104C08C91D095D82302C0EC91DE
:1014E000DE2BDC939FBFDF91CF911F910895CF93A7
:1014F000DF9390E0FC01E656FF4F2491FC01EA5790
:10150000FF4F8491882361F190E0880F991FFC01BF
:10151000E859FF4FC591D491FC01EE58FF4FA591BA
:10152000B491611109C09FB7F894888120958223F6
:101530008883EC912E230BC0623061F49FB7F8943E
:101540008881322F309583238883EC912E2B2C9326
:101550009FBF06C08FB7F894E8812E2B28838FBFDA
:10156000DF91CF910895CF93DF93823028F090914F
:10157000A50398609093A5038093A9031092AA03F2
:1015800080E48093AB0380E18093AC0380E580939B
:10159000AD0361E080919A030E94770A80919B03DA
:1015A0008F3F19F061E00E94770A61E080919C030F
:1015B0000E94770AC6E9D3E09E0126593340809104
:1015C000A50384FD03C084E090E002C088E090E0C1
:1015D0002196281739072CF461E08E810E94770A42
:1015E000EBCF8BE39DE00197F1F760E080919A03E8
:1015F0000E94480A60E080919C030E94480A809102
:101600009B038F3F19F060E00E94480A8091A50378
:1016100084FD20C063E086E993E00E948308CBE468
:10162000D6E4CE010197F1F763E086E993E00E94EA
:1016300083082197F1F763E086E993E00E9483082D
:1016400083E592E00197F1F762E086E993E00E947A
:10165000830815C080620E9458098BE496E40197C4
:10166000F1F78091A50380620E94580983E592E01A
:101670000197F1F78091A50380620E94580980913B
:10168000A50380620E94580984E08093A6038CE041
:101690000E9458090E94BF0982E08093A70386E058
:1016A000DF91CF910C9458098F929F92AF92BF9285
:1016B000CF92DF92EF92FF926B017C010E94320980
:1016C0004B015C01C114D104E104F104F1F00E946A
:1016D0003209DC01CB0188199909AA09BB09883EA6
:1016E0009340A105B10570F321E0C21AD108E108C9
:1016F000F10888EE880E83E0981EA11CB11CC1146D
:10170000D104E104F10419F7DDCFFF90EF90DF90F1
:10171000CF90BF90AF909F908F9008952FB7F8947F
:101720006091AF037091B0038091B1039091B203C7
:101730002FBF08950F931F930E948E0B6093EF02AB
:101740007093F0028093F1029093F20287EE92E0A0
:101750000E94C60097FF1FC00E948E0B0091EF02EF
:101760001091F0022091F1023091F202DC01CB01E4
:10177000801B910BA20BB30B0091EB021091EC02BA
:101780002091ED023091EE0280179107A207B30776
:10179000E8F28FEF9FEF1F910F910895EF92FF9264
:1017A0000F931F93CF93DF9300D0CDB7DEB78C019B
:1017B0000E94B2090E949A0B97FD1EC089831A826B
:1017C000F801E480F580FFEFEF1AFF0AB701C801C6
:1017D0000E946009882371F3F8012081318184819E
:1017E0009581BE016F5F7F4F820F931F0E94B811DA
:1017F000F801F582E482DECFC8010F900F90DF91EF
:10180000CF911F910F91FF90EF9008951F920F922B
:101810000FB60F9211242F933F938F939F93AF9303
:10182000BF938091AF039091B003A091B103B091A9
:10183000B2033091AE0323E0230F2D3720F401963D
:10184000A11DB11D05C026E8230F0296A11DB11DE3
:101850002093AE038093AF039093B003A093B103A2
:10186000B093B2038091B3039091B403A091B503F8
:10187000B091B6030196A11DB11D8093B30390935F
:10188000B403A093B503B093B603BF91AF919F91FA
:101890008F913F912F910F900FBE0F901F90189531
:1018A000CF93DF93EC016115710559F0FB010190B5
:1018B0000020E9F73197AF01461B570B0E948709BB
:1018C0000CC088819981009711F00E9452101982F2
:1018D00018821D821C821B821A82CE01DF91CF9159
:1018E0000895FC01808191810C945210FB01DC0170
:1018F00011961C921E9213961C921E921297159688
:101900001C921E9214978617970749F06081718187
:101910006115710521F0448155810C948709089562
:101920008F929F92AF92BF92EF92FF920F931F936D
:10193000CF93DF93CDB7DEB7A1970FB6F894DEBF94
:101940000FBECDBF7C01FA01CB0119A2223008F4F1
:101950002AE08E010F5D1F4F822E912CA12CB12CFD
:10196000BF01A50194010E947E0FF901CA01015037
:1019700011096A3014F4605D01C0695CD8016C9390
:10198000232B242B252B61F7B801C7010E941608D1
:10199000A1960FB6F894DEBF0FBECDBFDF91CF91F9
:1019A0001F910F91FF90EF90BF90AF909F908F90FD
:1019B0000895CF92DF92EF92FF920F931F93CF93F0
:1019C000DF936B01770FEE08FF08F7FE1FC0EC01F5
:1019D000E881F9810190F081E02D6DE209958C019B
:1019E00044275527BA014C195D096E097F092AE081
:1019F000CE010E94900C800F911FDF91CF911F911B
:101A00000F91FF90EF90DF90CF9008952AE0B701FB
:101A1000A601DF91CF911F910F91FF90EF90DF9082
:101A2000CF900C94900C0C9416086F927F928F922A
:101A30009F92AF92BF92CF92DF92EF92FF920F935D
:101A4000CF93DF93EC017B014A01390182E00E94D0
:101A50001F0A5C0184E00E941F0A6C01002319F137
:101A60000E94BF09C4010E94C70961E080E00E9492
:101A7000D009BE0186E993E00E94D90C64E872E0C7
:101A800086E993E00E94130DC3010E94C70962E832
:101A900072E086E993E00E94130D6AEF70E080E047
:101AA00090E00E94540BAB2871F40E948E0B0E94B0
:101AB0008E0B0E948E0BCE0DDF1D6AEF70E080E072
:101AC00090E00E94540BCD2891F40E948E0B0E944E
:101AD0008E0B0E948E0BCE19DF09D7FF02C0C0E02B
:101AE000D0E06AEF70E080E090E00E94540BCE01FD
:101AF000DF91CF910F91FF90EF90DF90CF90BF904B
:101B0000AF909F908F907F906F900895789484B558
:101B1000826084BD84B5816084BD85B5826085BDE9
:101B200085B5816085BD80916E00816080936E0077
:101B30001092810080918100826080938100809169
:101B4000810081608093810080918000816080931A
:101B500080008091B10084608093B1008091B000DA
:101B600081608093B00080917A00846080937A00D5
:101B700080917A00826080937A0080917A008160FF
:101B800080937A0080917A00806880937A00109226
:101B9000C10082E00E94B30AE091F702F091F802DE
:101BA00082E08083E091F302F091F4021082E091F0
:101BB000F502F091F6028FEC80831092FF02E09123
:101BC000FB02F091FC0286E08083E091F902F09143
:101BD000FA02808180618083E091F902F091FA023B
:101BE000808188608083E091F902F091FA0280811F
:101BF00080688083E091F902F091FA0280818F7D04
:101C0000808387EE92E00E946D0162E083E00E9493
:101C1000770A62E084E00E94770A62E082E00E9434
:101C2000770A61E086E00E94770A61E085E00E9421
:101C3000770A61E08DE00E94770A8AE193E0909351
:101C4000E6028093E50280910801882309F452C0DE
:101C5000E091E502F091E6020995F5CF0E94EB01D3
:101C6000811198C061E083E00E94480A03301105A9
:101C700009F47DC0C3E0D0E0BE0187EE92E00E948F
:101C8000D90C0E94BF096FEA72E086E993E00E94D6
:101C9000130D61E080E00E94D00960EC72E086E9FB
:101CA00093E00E94130D60E08DE00E94480A60E01E
:101CB00085E00E94480AC330D10509F458C06EE19E
:101CC00070E080E090E00E94540B8E01809107014B
:101CD00081111CC06AEF70E080E090E00E94540B1C
:101CE00061E086E00E94480A6AEF70E080E090E0E0
:101CF0000E94540B8091E402882309F4A4CF60E091
:101D000086E00E94480A01E010E0E0CF82E00E94F5
:101D10001F0A892B99F461E082E00E94480A0E9420
:101D2000BF0960EF71E086E993E00E94130D61E066
:101D300085E00E94480AC1E0D0E02EC084E00E9405
:101D40001F0A892B09F08ACF61E084E00E94480ACB
:101D50000E94BF096FE272E086E993E00E94130DD2
:101D600061E08DE00E94480AC2E0D0E015C063E067
:101D700070E087EE92E00E94D90C109207010E9459
:101D8000BF0961ED72E086E993E00E94130DC3E0A4
:101D9000D0E095CFC0E0D0E0C017D10709F48FCFD5
:101DA0006BCF84E893E00E94710C8AE893E00E9474
:101DB000710C80E993E00C94710CE7EEF2E0138271
:101DC000128288EE93E0A0E0B0E084839583A6833E
:101DD000B78385E191E09183808385EC90E09587DE
:101DE000848784EC90E09787868780EC90E0918BE5
:101DF000808B81EC90E0938B828B82EC90E0958BD2
:101E0000848B86EC90E0978B868B118E128E138ECE
:101E1000148EE6E9F3E01382128287E291E0918367
:101E2000808389E084838FEF858387E0868388E0E1
:101E300087838CE080878AE081878BE082871386A6
:101E4000148615861686178681E00E94B30A80E9FB
:101E500093E00E94B2098AE893E00E94B20984E804
:101E600093E00C94B2092F923F924F925F926F923F
:101E70007F928F929F92AF92BF92CF92DF92EF921A
:101E8000FF920F931F93CF93DF93CDB7DEB7CA1B9B
:101E9000DB0B0FB6F894DEBF0FBECDBF09942A88C6
:101EA000398848885F846E847D848C849B84AA846E
:101EB000B984C884DF80EE80FD800C811B81AA81FB
:101EC000B981CE0FD11D0FB6F894DEBF0FBECDBFC6
:101ED000ED01089597FB072E16F4009407D077FDC7
:101EE00009D00E94A00F07FC05D03EF49095819583
:101EF0009F4F0895709561957F4F0895A1E21A2E26
:101F0000AA1BBB1BFD010DC0AA1FBB1FEE1FFF1F9D
:101F1000A217B307E407F50720F0A21BB30BE40BED
:101F2000F50B661F771F881F991F1A9469F7609534
:101F30007095809590959B01AC01BD01CF010895EE
:101F4000AA1BBB1B51E107C0AA1FBB1FA617B707DF
:101F500010F0A61BB70B881F991F5A95A9F78095FB
:101F60009095BC01CD010895EE0FFF1F0590F491EF
:101F7000E02D09940F931F93CF93DF938230910547
:101F800010F482E090E0E091B903F091BA0320E010
:101F900030E0A0E0B0E0309719F14081518102813A
:101FA000138148175907C8F08417950769F41097EB
:101FB00031F012960C93129713961C9327C000933E
:101FC000B9031093BA0322C02115310519F0421745
:101FD000530718F49A01BD01EF01DF01F801DBCFCF
:101FE00021153105F9F0281B390B2430310580F417
:101FF0008A819B816115710521F0FB0193838283A6
:1020000004C09093BA038093B903FE01329644C092
:10201000FE01E20FF31F819391932250310939831E
:1020200028833AC02091B7033091B803232B41F4A1
:1020300020910B0130910C013093B8032093B7032A
:102040002091090130910A012115310541F42DB784
:102050003EB740910D0150910E01241B350BE091CC
:10206000B703F091B803E217F307A0F42E1B3F0B60
:102070002817390778F0AC014E5F5F4F24173507FA
:1020800048F04E0F5F1F5093B8034093B7038193FE
:10209000919302C0E0E0F0E0CF01DF91CF911F917A
:1020A0000F910895CF93DF93009709F481C0FC014D
:1020B000329713821282A091B903B091BA0310979C
:1020C00081F420813181820F931F2091B7033091D9
:1020D000B8032817390751F5F093B803E093B70315
:1020E00067C0ED0120E030E0CE17DF0740F44A8101
:1020F0005B819E0141155105F1F0EA01F5CFD383D3
:10210000C28340815181840F951FC817D90759F4A4
:1021100088819981840F951F0296918380838A819B
:102120009B81938382832115310529F4F093BA03AF
:10213000E093B9033DC0E901FB83EA8349915991DA
:10214000C40FD51FEC17FD0761F480819181840FC6
:10215000951F0296E90199838883828193819B83ED
:102160008A83E0E0F0E012968D919C91139700979E
:1021700019F0FD01DC01F7CF8D919C9111979D0124
:102180002E5F3F4F820F931F2091B7033091B8030A
:102190002817390769F4309729F41092BA0310927E
:1021A000B90302C013821282B093B803A093B7039D
:1021B000DF91CF910895A0E0B0E0E1EEF0E10C9462
:1021C000370FEC01009721F4CB010E94BA0FB4C085
:1021D000FC01E60FF71F9C0122503109E217F307BB
:1021E00008F4A8C0D9010D911C9111970617170783
:1021F000B0F00530110508F49BC0C801049786179C
:10220000970708F495C002501109061B170B01939C
:1022100011936D937C93CF010E94521089C05B0192
:10222000A01AB10A4C01800E911EA091B903B09181
:10223000BA03612C712CE12CF12C109709F446C0E3
:102240008D919C911197A815B905B1F56C0142E0EB
:10225000C40ED11CCA14DB0478F14C018A189B0807
:10226000640142E0C40ED11C1296BC9012971396E2
:10227000AC91B5E0CB16D10440F0B282A383918239
:102280008082D9016D937C9309C00E5F1F4F800F30
:10229000911FF90191838083EB2DFA2FE114F10452
:1022A00031F0D7011396FC93EE93129741C0F0934F
:1022B000BA03E093B9033CC06816790608F43C0100
:1022C0007D0112960D90BC91A02DB7CF8091B703E0
:1022D0009091B80388169906E1F466167706C8F45B
:1022E0008091090190910A01009741F48DB79EB742
:1022F00040910D0150910E01841B950BE817F907D1
:10230000C8F4F093B803E093B703F90171836083D5
:102310000FC0CB010E94BA0F7C01009759F0A801B1
:10232000BE010E94A611CE010E945210C70104C036
:10233000CE0102C080E090E0CDB7DEB7EEE00C94B5
:10234000530F81E090E0F8940C94BF11FB01DC0185
:1023500002C001900D9241505040D8F70895FB0102
:10236000DC018D91019080190110D9F3990B08952A
:10237000FB01DC0101900D920020E1F7089510E0CF
:10238000C2E6D0E004C0FE010E94B40F2196C3361D
:08239000D107C9F7F894FFCF53
:10239800282C01060A060A01010000BB038000047C
:1023A800020000000020018D00B7006D01E800C6A2
:1023B80000DA000000000003098D00990157095256
:1023C800657365740063006400650070006600450D
:1023D8006E7669616E646F0020454D412046455315
:1023E8002D526F77696E672000202020436F6E653D
:1023F8006374616E646F2E2E2E006100496E6963EE
:1024080069616E646F20657374696D756C61636171
:102418006F0053656C2E4D6F76696D656E746F280D
:1024280073293A00457874656E73616F2020202007
:1024380020202000202020202020202020666C65DD
:1024480078616F00457874656E73616F2B666C6593
:1024580078616F004672657175656E6369613A00EF
:10246800487A004C61726775726120646520507506
:102478006C736F3A006D7300436F7272656E7465AA
:10248800457874656E73616F006D4120284348205C
:102498005B312C325D2900436F7272656E74652062
:1024A80041757820457874006D4120284348205BA9
:1024B800352C365D2900436F7272656E746520464F
:1024C8006C6578616F006D4120284348205B332C90
:1024D800345D2900436F7272656E746520417578AA
:1024E800466C6578006D4120284348205B372C38BE
:1024F8005D2900466C65782E632F20417578696CDC
:102508006961723F004E616F20202020202020202A
:1025180020202020200053696D2C20434820372F8D
:1025280038004578742E632F20417578696C69618D
:10253800723F0053696D2C20434820352F36002008
:102548002020205072657373696F6E65202020000B
:102558003C2D466C657820202020204578742D3E3F
:062568000046696D000051
:00000001FF
