:100000000C9463000C948B000C948B000C948B006C
:100010000C948B000C948B000C948B000C948B0034
:100020000C948B000C948B000C948B000C948B0024
:100030000C948B000C948B000C948B000C948B0014
:100040000C94960D0C948B000C9422020C94FC01E1
:100050000C948B000C948B000C948B000C948B00F4
:100060000C948B000C948B000000000024002700EF
:100070002A0000000000250028002B0000000000DE
:1000800023002600290004040404040404040202DA
:100090000202020203030303030301020408102007
:1000A0004080010204081020010204081020000012
:1000B0000008000201000003040700000000000027
:1000C0000000EA10CE1011241FBECFEFD8E0DEBF33
:1000D000CDBF23E0AAEDB2E001C01D92AD3DB20755
:1000E000E1F712E0A0E0B1E0EAEDF8E202C005902D
:1000F0000D92AA3DB107D9F710E0C2E6D0E004C0E6
:100100002197FE010E945512C136D107C9F70E94FE
:100110007C0F0C9460140C940000CF92DF92EF924D
:10012000FF920F931F93CF93DF936C017A018B01A2
:10013000C0E0D0E0CE15DF0581F0D8016D918D01D2
:10014000D601ED91FC910190F081E02DC601099559
:10015000892B11F02196EECF7E01C701DF91CF915F
:100160001F910F91FF90EF90DF90CF900895FC01C9
:10017000538D448D252F30E0842F90E0821B930B0C
:10018000541710F0CF96089501970895FC01918DB2
:10019000828D981761F0828DDF01A80FB11D5D96E9
:1001A0008C91928D9F5F9F73928F90E008958FEF57
:1001B0009FEF0895FC01918D828D981731F0828D0B
:1001C000E80FF11D858D90E008958FEF9FEF089562
:1001D000FC01918D228D892F90E0805C9F4F821BC6
:1001E00091098F739927089585EE92E00E94E800A7
:1001F00021E0892B09F420E0822F0895FC01848DF1
:10020000DF01A80FB11DA35ABF4F2C91848D90E040
:1002100001968F739927848FA689B7892C93A0891B
:10022000B1898C91837080648C93938D848D9813A5
:1002300006C00288F389E02D80818F7D8083089538
:10024000EF92FF920F931F93CF93DF93EC0181E026
:10025000888F9B8D8C8D981305C0E889F9898081E2
:1002600085FD26C0F62E0B8D10E00F5F1F4F0F731C
:100270001127E02E8C8DE8120CC00FB607FCFACFC8
:10028000E889F989808185FFF5CFCE010E94FE00C3
:10029000F1CF8B8DFE01E80FF11DE35AFF4FF08285
:1002A0009FB7F8940B8FEA89FB89808180620AC02E
:1002B0009FB7F894EE89FF896083E889F989808186
:1002C0008370806480839FBF81E090E0DF91CF9155
:1002D0001F910F91FF90EF900895CF93DF93EC0162
:1002E000888D8823C9F0EA89FB89808185FD05C056
:1002F000A889B9898C9186FD0FC00FB607FCF5CF90
:10030000808185FFF2CFA889B9898C9185FFEDCFD7
:10031000CE010E94FE00E7CFDF91CF91089580E0EB
:1003200090E0892B29F00E94F40081110C940000C8
:10033000089580E090E0089581E08093E2021092B9
:1003400001010895CF93DF93EC0160E08E810E945C
:10035000500C61E08E810E94500C60E08E810E9402
:10036000500C8BE891E00197F1F7DF91CF91089560
:10037000CF93DF93382F292FE0E0F0E0CAE0D0E000
:10038000009731F0BE010E940B12CB013196F8CFDD
:10039000E330F10519F4832F922F10C0E901E23008
:1003A000F10531F0319771F480E090E00E94880E01
:1003B00080E090E00E94880E8D2F9C2FDF91CF91DE
:1003C0000C94880EDF91CF9108950C94C61161159D
:1003D000710579F0FB0101900020E9F73197AF0139
:1003E000461B570BDC01ED91FC910280F381E02D5F
:1003F000099480E090E008951F920F920FB60F923B
:1004000011242F933F934F935F936F937F938F9319
:100410009F93AF93BF93EF93FF9385EE92E00E947B
:10042000FE00FF91EF91BF91AF919F918F917F91CE
:100430006F915F914F913F912F910F900FBE0F9051
:100440001F9018951F920F920FB60F9211242F93A1
:100450008F939F93EF93FF93E091F502F091F60253
:100460008081E091FB02F091FC0282FD12C090813C
:100470008091FE028F5F8F732091FF02821751F0EF
:10048000E091FE02F0E0EB51FD4F958F8093FE026C
:1004900001C08081FF91EF919F918F912F910F90DB
:1004A0000FBE0F901F901895CF92DF92EF92FF92A0
:1004B0000F931F93CF93DF936C017C0187E0E80ECD
:1004C000F11CC0E0D0E0062F10E0B8010C2E02C0F5
:1004D000759567950A94E2F76170F70181917F0144
:1004E0000E94500C2196C430D10579F7C601DF91E6
:1004F000CF911F910F91FF90EF90DF90CF900C94D0
:10050000A201CF92DF92EF92FF920F931F93CF93AE
:10051000DF93EC01F62E642F8C810E94500C8D81AC
:100520008F3F19F060E00E94500C8F850F2D10E076
:1005300084FF25C06E0187E0C80ED11CE12CF12C90
:10054000B8010E2C02C0759567950A94E2F76170A8
:10055000F60181916F010E94500CFFEFEF1AFF0A24
:1005600088E0E816F10461F7CE01DF91CF911F9189
:100570000F91FF90EF90DF90CF900C94A201B80103
:1005800084E0759567958A95E1F7CE010E94540243
:100590006F2DCE01DF91CF911F910F91FF90EF90C2
:1005A000DF90CF900C94540241E00E94810281E0E0
:1005B00090E008958091E102811103C01092E00261
:1005C00021C0833011F481E01BC08C3011F482E033
:1005D00017C08F3011F483E013C0833311F484E02B
:1005E0000FC08F3311F485E00BC08C3C11F486E012
:1005F00007C08F3C11F487E003C08F3F19F488E0F7
:100600008093E0026EE471E085EE92E00E94BC0E01
:1006100080919E0390919F030E94B80160E571E074
:1006200085EE92E00E94BC0E80919C0390919D0308
:100630000E94B80162E571E085EE92E00E94BC0E76
:1006400080919A0390919B030E94B80163E772E046
:1006500085EE92E00E94BC0E8091980390919903E0
:100660000E94B80164E571E085EE92E00E94BC0E44
:1006700080919603909197030E94B80166E571E01E
:1006800085EE92E00E94BC0E8091940390919503B8
:100690000E94B8016CE471E085EE92E00E94BC0E0D
:1006A0008091E002082E000C990B0E94B8010E9474
:1006B000B60B68E571E088EB93E00E94BC0E60ED3C
:1006C00077E080E090E00E945C0D8FEA95E09093E7
:1006D000E4028093E30261E080E00E94A40B409179
:1006E000E10250E060E070E022E088EB93E00E94DD
:1006F0003F0E61E08FE00E94A40B41E06091E002B8
:1007000088EB93E00E94810260919E0380E090E07C
:100710000E94E50160919C0381E090E00E94E50168
:1007200060919A0382E090E00E94E5016091980355
:1007300083E090E00E94E5018091960390919703F9
:100740006AE070E00E940B1284E090E00E94E501F4
:100750006091940385E090E00C94E5010C94BE1147
:10076000FC0124813581FB01448155812417350723
:1007700021F5FC0180819181FB01608171810097ED
:1007800019F061157105A1F46115710549F0232B6C
:10079000B1F0FB01808190E09195819591090AC0AB
:1007A000009769F0232B59F0FC01808190E002C092
:1007B0000E94501421E0892B19F020E001C021E0B3
:1007C00081E0822708951F93CF93DF93CDB7DEB7E3
:1007D0002C970FB6F894DEBF0FBECDBF61E671E077
:1007E00082EB93E00E94E00D62E771E08CEA93E017
:1007F0000E94E00D62EB73E086EA93E00E94B00392
:10080000182F6CEA73E080EA93E00E94B003812B1A
:10081000D9F06CEA73E0CE0107960E94360E62EBC7
:1008200073E0CE0101960E94360EBE01695F7F4FD4
:10083000CE0101960E94BE0BCE0101960E94310EA0
:10084000CE0107960E94310E68EE73E080E090E0E2
:100850000E945C0D85EE92E00E94E800892BD1F3A6
:10086000CE0101960E94EF0BBE016F5F7F4F8EE8B5
:1008700093E00E94F70DCE0101960E94310E809107
:10088000920390919303892B29F363E871E080919F
:100890008E0390918F030E945014892BD9F68FE517
:1008A00094E09093E4028093E3022C960FB6F894C0
:1008B000DEBF0FBECDBFDF91CF911F9108950F9383
:1008C0001F93CF93DF93CDB7DEB72C970FB6F89475
:1008D000DEBF0FBECDBF65E871E082EB93E00E9402
:1008E000E00D62EB73E086EA93E00E94B003182FFC
:1008F0006CEA73E080EA93E00E94B003812BC9F0B8
:10090000CE0107960E94E20B62EB73E0CE010196E6
:100910000E94360EBE01695F7F4FCE0101960E9494
:10092000BE0BCE0101960E94310ECE0107960E94A9
:10093000310E8091E002082E000C990B9093DF029B
:100940008093DE0281E08093DD0265EA72E082E856
:1009500093E00E94E00D62E873E0CE0107960E94EA
:10096000360E68E873E0CE0101960E94360E609163
:10097000DD02062E000C770B00E09E01295F3F4F41
:10098000AE014F5F5F4F8091DE029091DF020E94C7
:10099000BE0E8093E002CE0101960E94310ECE0180
:1009A00007960E94310E8091E002811103C083E01E
:1009B0008093E0028091E00284301CF081E080931B
:1009C000E0028091E002813099F567E971E08CEAFC
:1009D00093E00E94E00D62EB73E086EA93E00E94F0
:1009E000B003182F6CEA73E080EA93E00E94B00332
:1009F000812BD9F06CEA73E0CE0107960E94360E87
:100A000066EA73E0CE0101960E94360EBE01695F70
:100A10007F4FCE0101960E94BE0BCE0101960E942F
:100A2000310ECE0107960E94310E83E08093E102E1
:100A30008091E002823099F567EA71E08CEA93E0F8
:100A40000E94E00D62EB73E086EA93E00E94B0033F
:100A5000182F6CEA73E080EA93E00E94B003812BC8
:100A6000D9F06CEA73E0CE0107960E94360E66EA72
:100A700073E0CE0101960E94360EBE01695F7F4F82
:100A8000CE0101960E94BE0BCE0101960E94310E4E
:100A9000CE0107960E94310E8CE08093E102809196
:100AA000E002833099F567EB71E08CEA93E00E94F5
:100AB000E00D62EB73E086EA93E00E94B003182F2A
:100AC0006CEA73E080EA93E00E94B003812BD9F0D6
:100AD0006CEA73E0CE0107960E94360E66EA73E078
:100AE000CE0101960E94360EBE01695F7F4FCE0196
:100AF00001960E94BE0BCE0101960E94310ECE01DE
:100B000007960E94310E8FE08093E10266E970E063
:100B100080E090E00E945C0D83E00E94270C892B0E
:100B200099F48091E002823019F48EE698E002C0D8
:100B30008FE799E09093E4028093E30266E970E026
:100B400080E090E00E945C0D2C960FB6F894DEBF1A
:100B50000FBECDBFDF91CF911F910F9108951F93CD
:100B6000CF93DF93CDB7DEB72C970FB6F894DEBFE7
:100B70000FBECDBF85EE92E00E94E800892B09F4FC
:100B800054C0CE0101960E94EF0BBE016F5F7F4FF4
:100B90008EE893E00E94F70DCE0101960E94310E7F
:100BA0008091920390919303892B09F43EC063E8EE
:100BB00071E080918E0390918F030E945014892BD5
:100BC000A1F567EC71E082EB93E00E94E00D62EB2F
:100BD00073E086EA93E00E94B003182F6CEA73E09A
:100BE00080EA93E00E94B003812BC9F0CE01079602
:100BF0000E94E20B62EB73E0CE0101960E94360E7A
:100C0000BE01695F7F4FCE0101960E94BE0BCE01EF
:100C100001960E94310ECE0107960E94310E8CE99A
:100C200091E09093E4028093E3022C960FB6F8943F
:100C3000DEBF0FBECDBFDF91CF911F9108950F93FF
:100C4000CF93DF93CDB7DEB72C970FB6F894DEBF06
:100C50000FBECDBF6DED71E088E893E00E94E00D1E
:100C600080919403909195039093DF028093DE022C
:100C700085E08093DD0269EE71E082E893E00E94F6
:100C8000E00D62E873E0CE0107960E94360E68E838
:100C900073E0CE0101960E94360E6091DD02062EB1
:100CA000000C770B01E09E01295F3F4FAE014F5FC3
:100CB0005F4F8091DE029091DF020E94BE0E909302
:100CC000950380939403CE0101960E94310ECE01CC
:100CD00007960E94310E83E00E94270C892B81F435
:100CE0008AED92E09093E4028093E30261E083E076
:100CF0000E94500C66E970E080E090E00E945C0D7C
:100D00002C960FB6F894DEBF0FBECDBFDF91CF910A
:100D10000F9108950F93CF93DF93CDB7DEB72C9744
:100D20000FB6F894DEBF0FBECDBF6CEE71E088E861
:100D300093E00E94E00D8091960390919703909329
:100D4000DF028093DE028AE08093DD026EEF71E0C5
:100D500082E893E00E94E00D62E873E0CE0107961E
:100D60000E94360E68E873E0CE0101960E94360EAE
:100D70006091DD02062E000C770B01E09E01295FD9
:100D80003F4FAE014F5F5F4F8091DE029091DF02D7
:100D90000E94BE0E9093970380939603CE01019616
:100DA0000E94310ECE0107960E94310E83E00E9410
:100DB000270C892B81F48FE196E09093E4028093D5
:100DC000E30261E083E00E94500C66E970E080E09D
:100DD00090E00E945C0D2C960FB6F894DEBF0FBE1B
:100DE000CDBFDF91CF910F9108950F931F93CF93B4
:100DF000DF93CDB7DEB72C970FB6F894DEBF0FBEEA
:100E0000CDBF8091E102837009F452C012E083E00B
:100E10000E94270C019709F041C068E072E088E861
:100E200093E00E94E00D80919E0390919F03909328
:100E3000DF028093DE021093DD0269E172E082E856
:100E400093E00E94E00D62E873E0CE0107960E94F5
:100E5000360E68E873E0CE0101960E94360E60916E
:100E6000DD02062E000C770B01E09E01295F3F4F4B
:100E7000AE014F5F5F4F8091DE029091DF020E94D2
:100E8000BE0E90939F0380939E03CE0101960E9415
:100E9000310ECE0107960E94310EB9CF61E083E09A
:100EA0000E94500C66E970E080E090E00E945C0DCA
:100EB0008091E102807309F452C012E083E00E9445
:100EC000270C019709F041C067E272E088E893E0DF
:100ED0000E94E00D80919A0390919B039093DF0212
:100EE0008093DE021093DD0268E372E082E893E013
:100EF0000E94E00D62E873E0CE0107960E94360E74
:100F000068E873E0CE0101960E94360E6091DD0222
:100F1000062E000C770B01E09E01295F3F4FAE01CA
:100F20004F5F5F4F8091DE029091DF020E94BE0E04
:100F300090939B0380939A03CE0101960E94310EF9
:100F4000CE0107960E94310EB9CF61E083E00E9486
:100F5000500C66E970E080E090E00E945C0D8091AA
:100F6000E1028C7009F452C012E083E00E94270C69
:100F7000019709F041C066E472E088E893E00E94BE
:100F8000E00D80919C0390919D039093DF028093EC
:100F9000DE021093DD0266E572E082E893E00E94D3
:100FA000E00D62E873E0CE0107960E94360E68E815
:100FB00073E0CE0101960E94360E6091DD02062E8E
:100FC000000C770B01E09E01295F3F4FAE014F5FA0
:100FD0005F4F8091DE029091DF020E94BE0E9093DF
:100FE0009D0380939C03CE0101960E94310ECE0199
:100FF00007960E94310EB9CF61E083E00E94500C49
:1010000066E970E080E090E00E945C0D8091E10272
:10101000807C09F452C012E083E00E94270C019703
:1010200009F041C064E672E088E893E00E94E00DB8
:1010300080919803909199039093DF028093DE0250
:101040001093DD0265E772E082E893E00E94E00D14
:1010500062E873E0CE0107960E94360E68E873E0FE
:10106000CE0101960E94360E6091DD02062E000C24
:10107000770B01E09E01295F3F4FAE014F5F5F4F4D
:101080008091DE029091DF020E94BE0E9093990340
:1010900080939803CE0101960E94310ECE010796EF
:1010A0000E94310EB9CF61E083E00E94500C66E9E6
:1010B00070E080E090E00E945C0D8AE896E09093FA
:1010C000E4028093E3022C960FB6F894DEBF0FBEC5
:1010D000CDBFDF91CF911F910F9108950F931F9373
:1010E000CF93DF93CDB7DEB72C970FB6F894DEBF62
:1010F0000FBECDBF63E872E082EB93E00E94E00D8B
:1011000062EB73E086EA93E00E94B003182F6CEA6A
:1011100073E080EA93E00E94B003812BC9F0CE0116
:1011200007960E94E20B62EB73E0CE0101960E94EB
:10113000360EBE01695F7F4FCE0101960E94BE0B45
:10114000CE0101960E94310ECE0107960E94310E0B
:1011500081E08093DD0265EA72E082E893E00E941C
:10116000E00D8091DC0290E09093DF028093DE023C
:1011700062E873E0CE0107960E94360E68E873E0DD
:10118000CE0101960E94360E6091DD02062E000C03
:10119000770B00E09E01295F3F4FAE014F5F5F4F2D
:1011A0008091DE029091DF020E94BE0E9093DF02DA
:1011B0008093DE02CE0101960E94310ECE01079689
:1011C0000E94310E8091DE029091DF02892BA1F501
:1011D0001092DC0265E972E08CEA93E00E94E00D77
:1011E00062EB73E086EA93E00E94B003182F6CEA8A
:1011F00073E080EA93E00E94B003812BD9F06CEA9F
:1012000073E0CE0107960E94360E66EA73E0CE01C7
:1012100001960E94360EBE01695F7F4FCE01019696
:101220000E94BE0BCE0101960E94310ECE010796A0
:101230000E94310E1092DB028091DE029091DF025B
:101240000197B1F581E08093DC0266EA72E08CEAF6
:1012500093E00E94E00D62EB73E086EA93E00E9467
:10126000B003182F6CEA73E080EA93E00E94B003A9
:10127000812BD9F06CEA73E0CE0107960E94360EFE
:1012800066EA73E0CE0101960E94360EBE01695FE8
:101290007F4FCE0101960E94BE0BCE0101960E94A7
:1012A000310ECE0107960E94310E80EC8093DB0256
:1012B00083E00E94270C892BB9F49091E102809180
:1012C000DB02892B8093E10285EF96E09093E402A4
:1012D0008093E30261E083E00E94500C6AEF70E0CB
:1012E00080E090E00E945C0D2C960FB6F894DEBF73
:1012F0000FBECDBFDF91CF911F910F9108950F9336
:101300001F93CF93DF93CDB7DEB72C970FB6F8942A
:10131000DEBF0FBECDBF67EB72E082EB93E00E94B1
:10132000E00D62EB73E086EA93E00E94B003182FB1
:101330006CEA73E080EA93E00E94B003812BC9F06D
:10134000CE0107960E94E20B62EB73E0CE0101969C
:101350000E94360EBE01695F7F4FCE0101960E944A
:10136000BE0BCE0101960E94310ECE0107960E945F
:10137000310E81E08093DD0265EA72E082E893E05D
:101380000E94E00D8091DA0290E09093DF0280935A
:10139000DE0262E873E0CE0107960E94360E68E82E
:1013A00073E0CE0101960E94360E6091DD02062E9A
:1013B000000C770B00E09E01295F3F4FAE014F5FAD
:1013C0005F4F8091DE029091DF020E94BE0E9093EB
:1013D000DF028093DE02CE0101960E94310ECE0123
:1013E00007960E94310E8091DE029091DF02892BD8
:1013F000A1F51092DA0265E972E08CEA93E00E94AE
:10140000E00D62EB73E086EA93E00E94B003182FD0
:101410006CEA73E080EA93E00E94B003812BD9F07C
:101420006CEA73E0CE0107960E94360E66EA73E01E
:10143000CE0101960E94360EBE01695F7F4FCE013C
:1014400001960E94BE0BCE0101960E94310ECE0184
:1014500007960E94310E1092DB028091DE0290917D
:10146000DF020197B1F581E08093DA0268EC72E067
:101470008CEA93E00E94E00D62EB73E086EA93E071
:101480000E94B003182F6CEA73E080EA93E00E9498
:10149000B003812BD9F06CEA73E0CE0107960E946D
:1014A000360E66EA73E0CE0101960E94360EBE014A
:1014B000695F7F4FCE0101960E94BE0BCE0101965F
:1014C0000E94310ECE0107960E94310E80E3809378
:1014D000DB0283E00E94270C892BD1F49091E1027A
:1014E0008091DB02892B8093E1028091E0028130C0
:1014F00019F485EF96E002C08EE698E09093E4023E
:101500008093E3026AEF70E080E090E00E945C0D5F
:101510002C960FB6F894DEBF0FBECDBFDF91CF91F2
:101520001F910F910895833081F028F4813099F054
:101530008230A1F008958730A9F08830B9F0843066
:10154000D1F4809180008F7D03C0809180008F77DF
:1015500080938000089584B58F7702C084B58F7D15
:1015600084BD08958091B0008F7703C08091B00052
:101570008F7D8093B00008953FB7F8948091D50394
:101580009091D603A091D703B091D80326B5A89B1C
:1015900005C02F3F19F00196A11DB11D3FBFBA2F05
:1015A000A92F982F8827820F911DA11DB11DBC0165
:1015B000CD0142E0660F771F881F991F4A95D1F72A
:1015C00008952FB7F8946091D1037091D203809160
:1015D000D3039091D4032FBF08950895FC01448153
:1015E00055816081718188EB93E00C948D000F939D
:1015F0001F930E94E10A6093ED027093EE028093C4
:10160000EF029093F00285EE92E00E94C60097FFF1
:101610001FC00E94E10A0091ED021091EE0220919C
:10162000EF023091F002DC01CB01801B910BA20B89
:10163000B30B0091E9021091EA022091EB02309184
:10164000EC0280179107A207B307E8F28FEF9FEF34
:101650001F910F91089540E0682F88EB93E00C9460
:1016600081020E944214CF93DF93EC01888199811B
:10167000009711F00E94F312198218821D821C82B9
:101680001B821A82DF91CF9108950F931F93CF93FE
:10169000DF93EC0188819981009729F02A813B81B1
:1016A0002617370788F48B016F5F7F4F0E947C13EA
:1016B000009761F0998388831B830A832C813D8185
:1016C000232B11F4FC01108281E001C080E0DF9146
:1016D000CF911F910F910895EF92FF920F931F9357
:1016E000CF93DF93EC017B018A01BA010E94450B85
:1016F000811104C0CE010E94330B07C01D830C83EF
:10170000B701888199810E945914CE01DF91CF9150
:101710001F910F91FF90EF900895CF93DF93EC010D
:10172000FB018617970761F0608171816115710572
:1017300029F0448155810E946C0B02C00E94330B3A
:10174000CE01DF91CF910895643008F063E090916D
:10175000CB03691710F06FEF690FE62FF0E0E85444
:10176000FC4F9489890F80680C942B0B81E00E94B8
:101770002B0B8BE39FE10197F1F708950F931F93D4
:10178000CF93DF938C01EB010E94B60B60E080E009
:101790000E94A40BC8010E94EE0A61E080E00E9452
:1017A000A40BCE010E94EE0AB80186EA93E00E94E3
:1017B0008D0BBE0180EA93E0DF91CF911F910F91D5
:1017C0000C948D0BFC0111821082138212821582FF
:1017D000148240E050E065EA72E00C946C0BEF92EA
:1017E000FF920F931F93CF93DF9300D0CDB7DEB757
:1017F0008C010E94E20B0E94F70A97FD1EC08983AC
:101800001A82F801E480F580FFEFEF1AFF0AB701B2
:10181000C8010E94450B882371F3F80120813181B2
:1018200084819581BE016F5F7F4F820F931F0E945D
:101830005914F801F582E482DECFC8010F900F90B1
:10184000DF91CF911F910F91FF90EF900895CF936B
:10185000DF93282F30E0F901E255FF4F8491F90121
:10186000E656FF4FD491F901EA57FF4FC491CC23BC
:1018700091F081110E94930AEC2FF0E0EE0FFF1F10
:10188000E458FF4FA591B491EC91ED2381E090E0F5
:1018900021F480E002C080E090E0DF91CF910895D4
:1018A0001F93CF93DF93282F30E0F901E255FF4FCC
:1018B0008491F901E656FF4FD491F901EA57FF4FA1
:1018C000C491CC23C1F0162F81110E94930AEC2FF2
:1018D000F0E0EE0FFF1FEE58FF4FA591B4919FB7B8
:1018E000F894111104C08C91D095D82302C0EC91CA
:1018F000DE2BDC939FBFDF91CF911F910895CF9393
:10190000DF9390E0FC01E656FF4F2491FC01EA577B
:10191000FF4F8491882361F190E0880F991FFC01AB
:10192000E859FF4FC591D491FC01EE58FF4FA591A6
:10193000B491611109C09FB7F894888120958223E2
:101940008883EC912E230BC0623061F49FB7F8942A
:101950008881322F309583238883EC912E2B2C9312
:101960009FBF06C08FB7F894E8812E2B28838FBFC6
:10197000DF91CF910895CF93DF93823028F090913B
:10198000C70398609093C7038093CB031092CC0356
:1019900080E48093CD0380E18093CE0380E5809343
:1019A000CF0361E08091BC030E947F0C8091BD0356
:1019B0008F3F19F061E00E947F0C61E08091BE03CF
:1019C0000E947F0CC8EBD3E09E01285B33408091DE
:1019D000C70384FD03C084E090E002C088E090E08B
:1019E0002196281739072CF461E08E810E947F0C24
:1019F000EBCF8BE39DE00197F1F760E08091BC03B2
:101A00000E94500C60E08091BE030E94500C8091B7
:101A1000BD038F3F19F060E00E94500C8091C70316
:101A200084FD20C063E088EB93E00E945402CBE485
:101A3000D6E4CE010197F1F763E088EB93E00E94D2
:101A400054022197F1F763E088EB93E00E9454027F
:101A500083E592E00197F1F762E088EB93E00E9462
:101A6000540215C080620E942B0B8BE496E4019710
:101A7000F1F78091C70380620E942B0B83E592E00F
:101A80000197F1F78091C70380620E942B0B809130
:101A9000C70380620E942B0B84E08093C8038CE014
:101AA0000E942B0B0E94B60B82E08093C90386E054
:101AB000DF91CF910C942B0B8F929F92AF92BF929C
:101AC000CF92DF92EF92FF926B017C010E94BC0AE1
:101AD0004B015C01C114D104E104F104F1F00E9456
:101AE000BC0ADC01CB0188199909AA09BB09883E07
:101AF0009340A105B10570F321E0C21AD108E108B5
:101B0000F10888EE880E83E0981EA11CB11CC11458
:101B1000D104E104F10419F7DDCFFF90EF90DF90DD
:101B2000CF90BF90AF909F908F9008951F920F928B
:101B30000FB60F9211242F933F938F939F93AF93E0
:101B4000BF938091D1039091D203A091D303B09120
:101B5000D4033091D00323E0230F2D3720F40196D6
:101B6000A11DB11D05C026E8230F0296A11DB11DC0
:101B70002093D0038093D1039093D203A093D303F7
:101B8000B093D4038091D5039091D603A091D7034D
:101B9000B091D8030196A11DB11D8093D5039093F8
:101BA000D603A093D703B093D803BF91AF919F9171
:101BB0008F913F912F910F900FBE0F901F9018950E
:101BC000CF93DF93EC016115710559F0FB01019092
:101BD0000020E9F73197AF01461B570B0E946C0BB1
:101BE00002C00E94330BCE01DF91CF9108950F9375
:101BF0001F93CF93DF938C01EB01FC0180819181D6
:101C0000009739F06881798161157105A1F40E940E
:101C1000F31288819981F801918380838A819B8165
:101C2000938382838C819D8195838483198218821A
:101C30001B821A820FC0F801428153812C813D81A1
:101C40004217530720F30E9459148C819D81F8019B
:101C5000958384831D821C82DF91CF911F910F9108
:101C60000895FC01808191810C94F312FC01118292
:101C7000108213821282158214820C948D0B8F9223
:101C80009F92AF92BF92EF92FF920F931F93CF93C9
:101C9000DF93CDB7DEB7A1970FB6F894DEBF0FBEC6
:101CA000CDBF7C01FA01CB0119A2223008F42AE051
:101CB0008E010F5D1F4F822E912CA12CB12CBF01E4
:101CC000A50194010E941F12F901CA0101501109D6
:101CD0006A3014F4605D01C0695CD8016C93232BF9
:101CE000242B252B61F7B801C7010E94E701A196BB
:101CF0000FB6F894DEBF0FBECDBFDF91CF911F911D
:101D00000F91FF90EF90BF90AF909F908F900895AC
:101D1000CF92DF92EF92FF92CF93DF936C01990FF6
:101D2000EE08FF08F7FE1BC06DE285EE92E00E9410
:101D30002001EC0144275527BA014C195D096E09B1
:101D40007F092AE085EE92E00E943F0E8C0F9D1FD6
:101D5000DF91CF91FF90EF90DF90CF9008952AE030
:101D6000B701A60185EE92E0DF91CF91FF90EF9051
:101D7000DF90CF900C943F0E0C94E7014F925F924E
:101D80006F927F928F929F92AF92BF92CF92DF928B
:101D9000EF92FF920F93CF93DF93CDB7DEB76897A3
:101DA0000FB6F894DEBF0FBECDBF7C016B012A01D8
:101DB000390182E00E94270C4C0184E00E94270C2C
:101DC0005C01002309F45DC0B20182EB93E00E9444
:101DD0008D0B1C8A1B8A1E8A1D8A188E1F8A4AE058
:101DE000BE016F5F7F4FC7010E948911BE016F5F07
:101DF0007F4FCE0143960E94E00DBE016D5E7F4F86
:101E00008CEA93E00E94F70DCE0143960E94310EBA
:101E100066EA73E082EB93E00E94B003582E60EA1A
:101E200073E08CEA93E00E94B003852951F16CEADB
:101E300073E0CE0101960E94360E62EB73E0CE0194
:101E400043960E94360EBE016F5F7F4FCE014396D0
:101E50000E94BE0BCE0143960E94310ECE01019628
:101E60000E94310E64EA72E088EB93E00E94BC0E9F
:101E7000C3010E94EE0A62EA72E088EB93E00E94DE
:101E8000BC0E892871F40E94E10A0E94E10A0E94B6
:101E9000E10AEC0CFD1C64EF71E080E090E00E9430
:101EA0005C0DAB2891F40E94E10A0E94E10A0E94B5
:101EB000E10AEC18FD08F7FE02C0E12CF12C64EFFA
:101EC00071E080E090E00E945C0DC70168960FB65B
:101ED000F894DEBF0FBECDBFDF91CF910F91FF9081
:101EE000EF90DF90CF90BF90AF909F908F907F90BA
:101EF0006F905F904F900895789484B5826084BD10
:101F000084B5816084BD85B5826085BD85B58160FD
:101F100085BD80916E00816080936E00109281007B
:101F20008091810082608093810080918100816036
:101F300080938100809180008160809380008091F7
:101F4000B10084608093B1008091B0008160809383
:101F5000B00080917A00846080937A0080917A004A
:101F6000826080937A0080917A00816080937A0009
:101F700080917A00806880937A001092C10082E09C
:101F80000E94BB0CE091F502F091F60282E08083A2
:101F9000E091F102F091F2021082E091F302F091EF
:101FA000F4028FEC80831092FD02E091F902F0912F
:101FB000FA0286E08083E091F702F091F8028081D6
:101FC00080618083E091F702F091F802808188605F
:101FD0008083E091F702F091F8028081806880832D
:101FE000E091F702F091F80280818F7D808385EE89
:101FF00092E00E946D0162E083E00E947F0C62E04B
:1020000084E00E947F0C62E082E00E947F0C61E02D
:1020100086E00E947F0C61E085E00E947F0C61E019
:102020008DE00E947F0C83EE93E09093E402809316
:10203000E3028FE5C82E84E0D82E80910101882329
:1020400031F0E091E302F091E4020995F6CFFF242C
:10205000F3948091E202882381F360E086E00E949D
:10206000500C01E010E080910001882309F485C044
:1020700083E00E94270C892B59F461E083E00E94E1
:10208000500C0330110509F458C0C3E0D0E035C04E
:1020900084E00E94270C892B99F461E084E00E947F
:1020A000500C0E94B60B6FE472E088EB93E00E9444
:1020B000BC0E61E08DE00E94500CC2E0D0E01AC07E
:1020C00082E00E94270C892B99F461E082E00E9453
:1020D000500C0E94B60B60E172E088EB93E00E9426
:1020E000BC0E61E085E00E94500CC1E0D0E002C06F
:1020F000C0E0D0E0C017D107C1F1CE010E94880E28
:102100000E94B60B68E271E088EB93E00E94BC0E7F
:1021100061E080E00E94A40B69E371E088EB93E04A
:102120000E94BC0E60E08DE00E94500C60E085E0F3
:102130000E94500CC330D105C1F483E090E00E94AE
:10214000880E0E94B60B6AE471E088EB93E00E946F
:10215000BC0E1092E20210920001F0920101D092A6
:10216000E402C092E302C3E0D0E066E970E080E000
:1021700090E00E945C0D8E0176CF66E970E080E011
:1021800090E00E945C0D61E086E00E94500C66E9E0
:1021900070E080E090E00E945C0D5BCF82E893E00D
:1021A0000E94310E88E893E00E94310E8EE893E0A1
:1021B0000E94310E80EA93E00E94310E86EA93E09D
:1021C0000E94310E8CEA93E00E94310E82EB93E084
:1021D0000C94310EE5EEF2E01382128288EE93E069
:1021E000A0E0B0E084839583A683B7838EE091E07E
:1021F0009183808385EC90E09587848784EC90E0E0
:102200009787868780EC90E0918B808B81EC90E0C3
:10221000938B828B82EC90E0958B848B86EC90E0A4
:10222000978B868B118E128E138E148EE8EBF3E053
:102230001382128280E291E09183808389E084831B
:102240008FEF858387E0868388E087838CE08087B3
:102250008AE081878BE0828713861486158616862E
:10226000178681E00E94BB0C82EB93E00E94E20B98
:102270008CEA93E00E94E20B86EA93E00E94E20B74
:1022800080EA93E00E94E20B80E090E00E94AE03BF
:1022900090E090939F0380939E0381E090E00E94E2
:1022A000AE0390E090939D0380939C0382E090E0C6
:1022B0000E94AE0390E090939B0380939A0383E087
:1022C00090E00E94AE0390E090939903809398036E
:1022D00084E090E00E94AE032AE0829FC0011124B6
:1022E000909397038093960385E090E00E94AE035D
:1022F00090E090939503809394038EE893E00E947E
:10230000E20B88E893E00E94E20B82E893E00C94F1
:10231000E20BBB274A3031F4992322F4BDE29095B9
:1023200081959F4F0C949511BB27FB015527AA2738
:10233000880F991FAA1FA41710F0A41B8395505152
:10234000B9F7A05DAA3308F0A95DA193009779F7CA
:10235000B111B1931192CB010C94AE11DC01FC01CF
:10236000672F71917723E1F7329704C07C916D93C9
:1023700070836291AE17BF07C8F30895F999FECF35
:1023800092BD81BDF89A992780B50895262FF999B5
:10239000FECF1FBA92BD81BD20BD0FB6F894FA9A48
:1023A000F99A0FBE019608952F923F924F925F9235
:1023B0006F927F928F929F92AF92BF92CF92DF9255
:1023C000EF92FF920F931F93CF93DF93CDB7DEB7BA
:1023D000CA1BDB0B0FB6F894DEBF0FBECDBF09944E
:1023E0002A88398848885F846E847D848C849B84A5
:1023F000AA84B984C884DF80EE80FD800C811B81B3
:10240000AA81B981CE0FD11D0FB6F894DEBF0FBEE1
:10241000CDBFED01089597FB072E16F4009407D069
:1024200077FD09D00E94411207FC05D03EF490953B
:1024300081959F4F0895709561957F4F0895A1E212
:102440001A2EAA1BBB1BFD010DC0AA1FBB1FEE1F2E
:10245000FF1FA217B307E407F50720F0A21BB30B79
:10246000E40BF50B661F771F881F991F1A9469F7F5
:1024700060957095809590959B01AC01BD01CF0151
:102480000895AA1BBB1B51E107C0AA1FBB1FA617BB
:10249000B70710F0A61BB70B881F991F5A95A9F70D
:1024A00080959095BC01CD010895EE0FFF1F05901A
:1024B000F491E02D09940F931F93CF93DF93823013
:1024C000910510F482E090E0E091DB03F091DC03F1
:1024D00020E030E0A0E0B0E0309719F14081518178
:1024E0000281138148175907C8F08417950769F4CA
:1024F000109731F012960C93129713961C9327C0E5
:102500000093DB031093DC0322C02115310519F081
:102510004217530718F49A01BD01EF01DF01F801DA
:10252000DBCF21153105F9F0281B390B243031059B
:1025300080F48A819B816115710521F0FB019383F1
:10254000828304C09093DC038093DB03FE01329608
:1025500044C0FE01E20FF31F819391932250310991
:10256000398328833AC02091D9033091DA03232B91
:1025700041F420910401309105013093DA03209356
:10258000D90320910201309103012115310541F455
:102590002DB73EB74091060150910701241B350B22
:1025A000E091D903F091DA03E217F307A0F42E1BB0
:1025B0003F0B2817390778F0AC014E5F5F4F2417A7
:1025C000350748F04E0F5F1F5093DA034093D9034D
:1025D0008193919302C0E0E0F0E0CF01DF91CF91D1
:1025E0001F910F910895CF93DF93009709F481C055
:1025F000FC01329713821282A091DB03B091DC03BD
:10260000109781F420813181820F931F2091D9038B
:102610003091DA032817390751F5F093DA03E09384
:10262000D90367C0ED0120E030E0CE17DF0740F4AA
:102630004A815B819E0141155105F1F0EA01F5CF18
:10264000D383C28340815181840F951FC817D90756
:1026500059F488819981840F951F02969183808314
:102660008A819B81938382832115310529F4F0931C
:10267000DC03E093DB033DC0E901FB83EA8349917E
:102680005991C40FD51FEC17FD0761F4808191812A
:10269000840F951F0296E901998388838281938133
:1026A0009B838A83E0E0F0E012968D919C911397D2
:1026B000009719F0FD01DC01F7CF8D919C911197E6
:1026C0009D012E5F3F4F820F931F2091D9033091C0
:1026D000DA032817390769F4309729F41092DC03DC
:1026E0001092DB0302C013821282B093DA03A0932C
:1026F000D903DF91CF910895A0E0B0E0E2E8F3E1E3
:102700000C94D811EC01009721F4CB010E945B12CC
:10271000B4C0FC01E60FF71F9C0122503109E217FB
:10272000F30708F4A8C0D9010D911C911197061761
:102730001707B0F00530110508F49BC0C8010497D5
:102740008617970708F495C002501109061B170B4E
:10275000019311936D937C93CF010E94F31289C072
:102760005B01A01AB10A4C01800E911EA091DB03FF
:10277000B091DC03612C712CE12CF12C109709F441
:1027800046C08D919C911197A815B905B1F56C01C2
:1027900042E0C40ED11CCA14DB0478F14C018A1843
:1027A0009B08640142E0C40ED11C1296BC901297A3
:1027B0001396AC91B5E0CB16D10440F0B282A3835E
:1027C00091828082D9016D937C9309C00E5F1F4F67
:1027D000800F911FF90191838083EB2DFA2FE11473
:1027E000F10431F0D7011396FC93EE93129741C098
:1027F000F093DC03E093DB033CC06816790608F431
:102800003C017D0112960D90BC91A02DB7CF809117
:10281000D9039091DA0388169906E1F466167706D3
:10282000C8F48091020190910301009741F48DB7A3
:102830009EB74091060150910701841B950BE81744
:10284000F907C8F4F093DA03E093D903F90171832F
:1028500060830FC0CB010E945B127C01009759F08E
:10286000A801BE010E944714CE010E94F312C701C5
:1028700004C0CE0102C080E090E0CDB7DEB7EEE04C
:102880000C94F41181E090E0F8940C946014FB0136
:10289000DC0102C001900D9241505040D8F70895DC
:1028A000FB01DC018D91019080190110D9F3990B86
:1028B0000895FB01DC0101900D920020E1F70895DD
:1028C00010E0C2E6D0E004C0FE010E94551221963D
:0A28D000C336D107C9F7F894FFCF13
:1028DA0001010000DD038000040200000000200165
:1028EA008D00B7006D01E800C600DA0000000000A4
:1028FA00D4028D009901ED0A2020202050726573C0
:10290A0073696F6E65202020003C2D466C65782027
:10291A00202020204578742D3E0046696D00630012
:10292A006400650070006600456E7669616E646FCA
:10293A0000202020436F6E656374616E646F2E2ED3
:10294A002E0020454D41204645532D526F77696E22
:10295A00672000610053656C2E4D6F76696D656E58
:10296A00746F2873293A00457874656E73616F2015
:10297A00202020202020002020202020202020206D
:10298A00666C6578616F00457874656E73616F2B4C
:10299A00666C6578616F00496E696369616E646F20
:1029AA0020657374696D756C6163616F0046726549
:1029BA007175656E6369613A00487A004C617267A5
:1029CA007572612064652050756C736F3A006D6989
:1029DA0063726F2073656700436F7272656E746508
:1029EA00457874656E73616F006D412028434820F5
:1029FA005B312C325D2900436F7272656E746520FB
:102A0A0041757820457874006D4120284348205B41
:102A1A00352C365D2900436F7272656E74652046E7
:102A2A006C6578616F006D4120284348205B332C28
:102A3A00345D2900436F7272656E74652041757842
:102A4A00466C6578006D4120284348205B372C3856
:102A5A005D2900466C65782E632F20417578696C74
:102A6A006961723F004E616F2020202020202020C3
:102A7A0020202020200053696D2C20434820372F26
:102A8A00382020202020004578742E632F2041759D
:102A9A0078696C6961723F0053696D2C2043482044
:0A2AAA00352F3620202020200000E8
:00000001FF
