:100000000C9463000C948B000C948B000C948B006C
:100010000C948B000C948B000C948B000C948B0034
:100020000C948B000C948B000C948B000C948B0024
:100030000C948B000C948B000C948B000C948B0014
:100040000C94C70B0C948B000C943C070C94160773
:100050000C948B000C948B000C948B000C948B00F4
:100060000C948B000C948B000000000024002700EF
:100070002A0000000000250028002B0000000000DE
:1000800023002600290004040404040404040202DA
:100090000202020203030303030301020408102007
:1000A0004080010204081020010204081020000012
:1000B0000008000201000003040700000000000027
:1000C0000000A90E9D0E11241FBECFEFD8E0DEBFA9
:1000D000CDBF23E0A8ECB2E001C01D92A33BB20764
:1000E000E1F712E0A0E0B1E0EEECF3E202C005902F
:1000F0000D92A83CB107D9F710E0C2E6D0E004C0E9
:100100002197FE010E94CF0FC136D107C9F70E9487
:10011000470D0C94DA110C940000CF92DF92EF920D
:10012000FF920F931F93CF93DF936C017A018B01A2
:10013000C0E0D0E0CE15DF0581F0D8016D918D01D2
:10014000D601ED91FC910190F081E02DC601099559
:10015000892B11F02196EECF7E01C701DF91CF915F
:100160001F910F91FF90EF90DF90CF900895FC01C9
:10017000538D448D252F30E0842F90E0821B930B0C
:10018000541710F0CF96089501970895FC01918DB2
:10019000828D981761F0828DDF01A80FB11D5D96E9
:1001A0008C91928D9F5F9F73928F90E008958FEF57
:1001B0009FEF0895FC01918D828D981731F0828D0B
:1001C000E80FF11D858D90E008958FEF9FEF089562
:1001D000FC01918D228D892F90E0805C9F4F821BC6
:1001E00091098F739927089583ED92E00E94E800AA
:1001F00021E0892B09F420E0822F0895FC01848DF1
:10020000DF01A80FB11DA35ABF4F2C91848D90E040
:1002100001968F739927848FA689B7892C93A0891B
:10022000B1898C91837080648C93938D848D9813A5
:1002300006C00288F389E02D80818F7D8083089538
:10024000EF92FF920F931F93CF93DF93EC0181E026
:10025000888F9B8D8C8D981305C0E889F9898081E2
:1002600085FD26C0F62E0B8D10E00F5F1F4F0F731C
:100270001127E02E8C8DE8120CC00FB607FCFACFC8
:10028000E889F989808185FFF5CFCE010E94FE00C3
:10029000F1CF8B8DFE01E80FF11DE35AFF4FF08285
:1002A0009FB7F8940B8FEA89FB89808180620AC02E
:1002B0009FB7F894EE89FF896083E889F989808186
:1002C0008370806480839FBF81E090E0DF91CF9155
:1002D0001F910F91FF90EF900895CF93DF93EC0162
:1002E000888D8823C9F0EA89FB89808185FD05C056
:1002F000A889B9898C9186FD0FC00FB607FCF5CF90
:10030000808185FFF2CFA889B9898C9185FFEDCFD7
:10031000CE010E94FE00E7CFDF91CF91089580E0EB
:1003200090E0892B29F00E94F40081110C940000C8
:10033000089580E090E0089581E08093D0021092CB
:1003400001010895CF93DF93EC0160E08E810E945C
:10035000810A61E08E810E94810A60E08E810E94A4
:10036000810A8BE891E00197F1F7DF91CF91089531
:10037000CF93DF93382F292FE0E0F0E0CAE0D0E000
:10038000009731F0BE010E94850FCB013196F8CF66
:10039000E330F10519F4632F722F14C0E901E23044
:1003A000F10541F03197A1F460E070E083ED92E057
:1003B0000E949A0C60E070E083ED92E00E949A0C3B
:1003C0006D2F7C2F83ED92E0DF91CF910C949A0CEE
:1003D000DF91CF9108950C94400FCF93DF9300D01D
:1003E00000D000D0CDB7DEB70E94C00961E080E048
:1003F0000E94C80968E271E08EE893E00E94D40C84
:1004000068EE73E080E090E00E948D0B60E080E099
:100410000E94C80969E371E08EE893E00E94D40C61
:1004200083ED92E00E94E800892BD1F3CE01019682
:100430000E94170ACE0101960E94DA09CE010196A8
:100440000E94320C8091800390918103892B41F3AB
:100450006AE471E080917C0390917D030E94CA114F
:10046000892BF1F687E892E09093D2028093D10233
:1004700026960FB6F894DEBF0FBECDBFDF91CF91A9
:100480000895CF93DF9300D000D000D0CDB7DEB772
:1004900083ED92E00E94E800892B81F1CE01019664
:1004A0000E94170ACE0101960E94DA09CE01019638
:1004B0000E94320C8091800390918103892BF1F08E
:1004C0006AE471E080917C0390917D030E94CA11DF
:1004D000892BA1F40E94C0096CE471E08EE893E0DE
:1004E0000E94D40C68EE73E080E090E00E948D0BD7
:1004F0008CE991E09093D2028093D10226960FB6B8
:10050000F894DEBF0FBECDBFDF91CF9108950F935A
:10051000CF93DF93CDB7DEB72C970FB6F894DEBF3D
:100520000FBECDBF62E671E086E793E00E94110C3A
:100530000E94C00986E793E00E944F0A8091CE0294
:10054000082E000C990B9093CD028093CC0281E091
:100550008093CB0265E672E080E793E00E94110C85
:1005600060E773E0CE0107960E94370C66E773E000
:10057000CE0101960E94370C6091CB02062E000C32
:10058000770B00E09E01295F3F4FAE014F5F5F4F49
:100590008091CC029091CD020E94D60C8093CE0225
:1005A000CE0101960E94320CCE0107960E94320CB9
:1005B0008091CE02811103C083E08093CE028091AE
:1005C000CE02843019F481E08093CE028091CE0275
:1005D000813069F461E080E00E94C80964E771E05D
:1005E0008EE893E00E94D40C83E08093CF02809148
:1005F000CE02823069F461E080E00E94C80964E8BC
:1006000071E08EE893E00E94D40C8CE08093CF02DE
:100610008091CE02833069F461E080E00E94C809D5
:1006200064E971E08EE893E00E94D40C8FE080933F
:10063000CF0266E970E080E090E00E948D0B83E0DD
:100640000E94580A892B99F48091CE02823019F4C5
:1006500088EA95E002C081E596E09093D20280930B
:10066000D10266E970E080E090E00E948D0B2C964C
:100670000FB6F894DEBF0FBECDBFDF91CF910F91C3
:1006800008950F93CF93DF93CDB7DEB72C970FB6B6
:10069000F894DEBF0FBECDBF64EA71E086E793E059
:1006A0000E94110C80918203909183039093CD025C
:1006B0008093CC0285E08093CB0260EB71E080E711
:1006C00093E00E94110C60E773E0CE0107960E9450
:1006D000370C66E773E0CE0101960E94370C6091FB
:1006E000CB02062E000C770B01E09E01295F3F4FE5
:1006F000AE014F5F5F4F8091CC029091CD020E947E
:10070000D60C9093830380938203CE0101960E94BE
:10071000320CCE0107960E94320C66E970E080E050
:1007200090E00E948D0B83E00E94580A892B51F4BF
:1007300084EF97E09093D2028093D10261E083E04E
:100740000E94810A2C960FB6F894DEBF0FBECDBF73
:10075000DF91CF910F9108950F93CF93DF93CDB792
:10076000DEB72C970FB6F894DEBF0FBECDBF63EB9C
:1007700071E086E793E00E94110C809184039091D0
:1007800085039093CD028093CC028AE08093CB02C4
:1007900065EC71E080E793E00E94110C60E773E084
:1007A000CE0107960E94370C66E773E0CE010196F2
:1007B0000E94370C6091CB02062E000C770B01E0F3
:1007C0009E01295F3F4FAE014F5F5F4F8091CC028A
:1007D0009091CD020E94D60C909385038093840360
:1007E000CE0101960E94320CCE0107960E94320C77
:1007F00066E970E080E090E00E948D0B83E00E944B
:10080000580A892B51F481E493E09093D2028093AB
:10081000D10261E083E00E94810A2C960FB6F89421
:10082000DEBF0FBECDBFDF91CF910F9108950F9323
:100830001F93CF93DF93CDB7DEB72C970FB6F89405
:10084000DEBF0FBECDBF8091CF02837009F458C0C8
:1008500061E083E00E94810A66E970E080E090E058
:100860000E948D0B12E083E00E94580A019709F064
:1008700047C068EC71E086E793E00E94110C80911C
:100880008C0390918D039093CD028093CC021093B2
:10089000CB0269ED71E080E793E00E94110C60E704
:1008A00073E0CE0107960E94370C66E773E0CE0135
:1008B00001960E94370C6091CB02062E000C770B3C
:1008C00001E09E01295F3F4FAE014F5F5F4F809176
:1008D000CC029091CD020E94D60C90938D03809310
:1008E0008C03CE0101960E94320CCE0107960E9425
:1008F000320C66E970E080E090E00E948D0BB3CF8F
:100900008091CF02807309F458C061E083E00E94B7
:10091000810A66E970E080E090E00E948D0B12E0B1
:1009200083E00E94580A019709F047C067EE71E022
:1009300086E793E00E94110C8091880390918903CF
:100940009093CD028093CC021093CB0268EF71E0BC
:1009500080E793E00E94110C60E773E0CE010796F8
:100960000E94370C66E773E0CE0101960E94370CB7
:100970006091CB02062E000C770B01E09E01295FEF
:100980003F4FAE014F5F5F4F8091CC029091CD02FF
:100990000E94D60C9093890380938803CE01019620
:1009A0000E94320CCE0107960E94320C66E970E07C
:1009B00080E090E00E948D0BB3CF8091CF028C70CD
:1009C00009F458C061E083E00E94810A66E970E0A2
:1009D00080E090E00E948D0B12E083E00E94580AB4
:1009E000019709F047C066E072E086E793E00E9455
:1009F000110C80918A0390918B039093CD02809388
:100A0000CC021093CB0266E172E080E793E00E9493
:100A1000110C60E773E0CE0107960E94370C66E781
:100A200073E0CE0101960E94370C6091CB02062E36
:100A3000000C770B01E09E01295F3F4FAE014F5F35
:100A40005F4F8091CC029091CD020E94D60C909382
:100A50008B0380938A03CE0101960E94320CCE0153
:100A600007960E94320C66E970E080E090E00E94F8
:100A70008D0BB3CF8091CF02807C09F458C061E028
:100A800083E00E94810A66E970E080E090E00E94C5
:100A90008D0B12E083E00E94580A019709F047C0CD
:100AA00064E272E086E793E00E94110C8091860375
:100AB000909187039093CD028093CC021093CB0248
:100AC00065E372E080E793E00E94110C60E773E059
:100AD000CE0107960E94370C66E773E0CE010196BF
:100AE0000E94370C6091CB02062E000C770B01E0C0
:100AF0009E01295F3F4FAE014F5F5F4F8091CC0257
:100B00009091CD020E94D60C909387038093860328
:100B1000CE0101960E94320CCE0107960E94320C43
:100B200066E970E080E090E00E948D0BB3CF8CEA24
:100B300093E09093D2028093D1022C960FB6F89452
:100B4000DEBF0FBECDBFDF91CF911F910F910895F2
:100B50000F93CF93DF93CDB7DEB72C970FB6F894F2
:100B6000DEBF0FBECDBF63E472E086E793E00E9474
:100B7000110C0E94C00986E793E00E944F0A81E0B1
:100B80008093CB0265E672E080E793E00E94110C4F
:100B90008091CA0290E09093CD028093CC0260E7EE
:100BA00073E0CE0107960E94370C66E773E0CE0132
:100BB00001960E94370C6091CB02062E000C770B39
:100BC00000E09E01295F3F4FAE014F5F5F4F809174
:100BD000CC029091CD020E94D60C9093CD028093CE
:100BE000CC02CE0101960E94320CCE0107960E94E3
:100BF000320C8091CC029091CD02892BA1F41092FD
:100C0000CA0261E080E00E94C80965E572E08EE8F2
:100C100093E00E94D40C1092C90266E970E080E073
:100C200090E00E948D0B8091CC029091CD020197B3
:100C3000B1F481E08093CA0261E080E00E94C809BB
:100C400066E672E08EE893E00E94D40C80EC80931C
:100C5000C90266E970E080E090E00E948D0B83E0BD
:100C60000E94580A892B69F49091CF028091C902A1
:100C7000892B8093CF0287E194E09093D2028093F6
:100C8000D10266E970E080E090E00E948D0B2C9626
:100C90000FB6F894DEBF0FBECDBFDF91CF910F919D
:100CA00008950F93CF93DF93CDB7DEB72C970FB690
:100CB000F894DEBF0FBECDBF62E772E086E793E037
:100CC0000E94110C0E94C00986E793E00E944F0A1F
:100CD00081E08093CB0265E672E080E793E00E94BA
:100CE000110C8091C80290E09093CD028093CC02C9
:100CF00060E773E0CE0107960E94370C66E773E069
:100D0000CE0101960E94370C6091CB02062E000C9A
:100D1000770B00E09E01295F3F4FAE014F5F5F4FB1
:100D20008091CC029091CD020E94D60C9093CD027E
:100D30008093CC02CE0101960E94320CCE01079620
:100D40000E94320C8091CC029091CD02892BA1F4AB
:100D50001092C80261E080E00E94C80965E572E077
:100D60008EE893E00E94D40C1092C90266E970E00C
:100D700080E090E00E948D0B8091CC029091CD029A
:100D80000197B1F481E08093C80261E080E00E94A5
:100D9000C80963E872E08EE893E00E94D40C80E317
:100DA0008093C90266E970E080E090E00E948D0BBC
:100DB00083E00E94580A892BD1F49091CF02809150
:100DC000C902892B8093CF028091CE02813019F421
:100DD00087E194E002C088EA95E09093D202809384
:100DE000D10266E970E080E090E00E948D0B2C96C5
:100DF0000FB6F894DEBF0FBECDBFDF91CF910F913C
:100E000008956115710579F0FB0101900020E9F763
:100E10003197AF01461B570BDC01ED91FC9102802D
:100E2000F381E02D099480E090E008951F920F92E5
:100E30000FB60F9211242F933F934F935F936F93AD
:100E40007F938F939F93AF93BF93EF93FF9383ED24
:100E500092E00E94FE00FF91EF91BF91AF919F91B0
:100E60008F917F916F915F914F913F912F910F9053
:100E70000FBE0F901F9018951F920F920FB60F92F2
:100E800011242F938F939F93EF93FF93E091E302AD
:100E9000F091E4028081E091E902F091EA0282FDA2
:100EA00012C090818091EC028F5F8F732091ED02D0
:100EB000821751F0E091EC02F0E0ED52FD4F958F7A
:100EC0008093EC0201C08081FF91EF919F918F91FF
:100ED0002F910F900FBE0F901F901895CF92DF9219
:100EE000EF92FF920F931F93CF93DF936C017C01DE
:100EF00087E0E80EF11CC0E0D0E0062F10E0B8015A
:100F00000C2E02C0759567950A94E2F76170F7019F
:100F100081917F010E94810A2196C430D10579F721
:100F2000C601DF91CF911F910F91FF90EF90DF905D
:100F3000CF900C94A201CF92DF92EF92FF920F9389
:100F40001F93CF93DF93EC01F62E642F8C810E94C8
:100F5000810A8D818F3F19F060E00E94810A8F85A0
:100F60000F2D10E084FF25C06E0187E0C80ED11C54
:100F7000E12CF12CB8010E2C02C0759567950A94EE
:100F8000E2F76170F60181916F010E94810AFFEF23
:100F9000EF1AFF0A88E0E816F10461F7CE01DF914D
:100FA000CF911F910F91FF90EF90DF90CF900C9415
:100FB000A201B80184E0759567958A95E1F7CE01A5
:100FC0000E946E076F2DCE01DF91CF911F910F917F
:100FD000FF90EF90DF90CF900C946E0741E00E945D
:100FE0009B0781E090E008958091CF02811103C0BA
:100FF0001092CE0221C0833011F481E01BC08C30EE
:1010000011F482E017C08F3011F483E013C08333F2
:1010100011F484E00FC08F3311F485E00BC08C3CD9
:1010200011F486E007C08F3C11F487E003C08F3FC6
:1010300019F488E08093CE0265EB72E083ED92E0D4
:101040000E94D40C80918C0390918D030E94B80172
:1010500067EB72E083ED92E00E94D40C80918A03EA
:1010600090918B030E94B80169EB72E083ED92E0EE
:101070000E94D40C80918803909189030E94B8014A
:1010800063E372E083ED92E00E94D40C80918603CA
:10109000909187030E94B8016BEB72E083ED92E0C0
:1010A0000E94D40C80918403909185030E94B80122
:1010B0006DEB72E083ED92E00E94D40C809182038C
:1010C000909183030E94B80163EB72E083ED92E09C
:1010D0000E94D40C8091CE02082E000C990B0E9425
:1010E000B8010E94C0096FEB72E08EE893E00E94A5
:1010F000D40C60ED77E080E090E00E948D0B81E4FD
:1011000092E09093D2028093D10261E080E00E944D
:10111000C8094091CF0250E060E070E022E08EE824
:1011200093E00E94510C61E08FE00E94C80941E009
:101130006091CE028EE893E00E949B0760918C0341
:1011400080E090E00E94EB0160918A0381E090E0F2
:101150000E94EB016091880382E090E00E94EB0125
:101160006091860383E090E00E94EB01809184030C
:10117000909185036AE070E00E94850F84E090E022
:101180000E94EB016091820385E090E00C94EB01FA
:101190000C94380F833081F028F4813099F082303C
:1011A000A1F008958730A9F08830B9F08430D1F4E7
:1011B000809180008F7D03C0809180008F77809325
:1011C0008000089584B58F7702C084B58F7D84BD7B
:1011D00008958091B0008F7703C08091B0008F7D1B
:1011E0008093B00008953FB7F8948091AB0390913D
:1011F000AC03A091AD03B091AE0326B5A89B05C08A
:101200002F3F19F00196A11DB11D3FBFBA2FA92F85
:10121000982F8827820F911DA11DB11DBC01CD0102
:1012200042E0660F771F881F991F4A95D1F70895EE
:101230002FB7F8946091A7037091A8038091A90338
:101240009091AA032FBF089508950F931F930E94B2
:1012500018096093DB027093DC028093DD029093A7
:10126000DE0283ED92E00E94C60097FF1FC00E943D
:1012700018090091DB021091DC022091DD0230910F
:10128000DE02DC01CB01801B910BA20BB30B0091A2
:10129000D7021091D8022091D9023091DA0280173A
:1012A0009107A207B307E8F28FEF9FEF1F910F910D
:1012B000089540E0682F8EE893E00C949B070E940D
:1012C000BC110F931F93CF93DF93EC018881998119
:1012D000009729F02A813B812617370788F48B0174
:1012E0006F5F7F4F0E94F610009761F099838883AB
:1012F0001B830A832C813D81232B11F4FC01108276
:1013000081E001C080E0DF91CF911F910F9108959E
:10131000EF92FF920F931F93CF93DF93EC017B012A
:101320008A01BA010E9461092881398181110DC0A9
:101330002115310519F0C9010E946D10198218821A
:101340001D821C821B821A8206C01D830C83B7017A
:10135000C9010E94D311CE01DF91CF911F910F914E
:10136000FF90EF900895FC01118210821382128287
:101370001582148240E050E065E672E00C94880922
:1013800081E00E9459098BE39FE10197F1F70895ED
:10139000643008F063E09091A103691710F06FEFDB
:1013A000690FE62FF0E0E257FC4F9489890F8068BF
:1013B0000C945909CF93DF93EC0180917C039091B9
:1013C0007D03009739F06881798161157105C9F451
:1013D0000E946D108881998190937D0380937C0396
:1013E0008A819B8190937F0380937E038C819D8172
:1013F0009093810380938003198218821B821A8242
:1014000011C040917E0350917F032C813D81421792
:101410005307F0F20E94D3118C819D819093810338
:10142000809380031D821C82DF91CF910895EF92FB
:10143000FF920F931F93CF93DF9300D0CDB7DEB70A
:101440008C010E94B3090E94250997FD1EC0898363
:101450001A82F801E480F580FFEFEF1AFF0AB70166
:10146000C8010E946109882371F3F801208131814C
:1014700084819581BE016F5F7F4F820F931F0E9411
:10148000D311F801F582E482DECFC8010F900F90EE
:10149000DF91CF911F910F91FF90EF900895FC0184
:1014A00044815581608171818EE893E00C948D00B8
:1014B000CF93DF93282F30E0F901E255FF4F84915D
:1014C000F901E656FF4FD491F901EA57FF4FC49155
:1014D000CC2391F081110E94CA08EC2FF0E0EE0FAE
:1014E000FF1FE458FF4FA591B491EC91ED2381E0EB
:1014F00090E021F480E002C080E090E0DF91CF91A5
:1015000008951F93CF93DF93282F30E0F901E25520
:10151000FF4F8491F901E656FF4FD491F901EA5744
:10152000FF4FC491CC23C1F0162F81110E94CA082D
:10153000EC2FF0E0EE0FFF1FEE58FF4FA591B49196
:101540009FB7F894111104C08C91D095D82302C094
:10155000EC91DE2BDC939FBFDF91CF911F9108951B
:10156000CF93DF9390E0FC01E656FF4F2491FC01FE
:10157000EA57FF4F8491882361F190E0880F991F0B
:10158000FC01E859FF4FC591D491FC01EE58FF4F83
:10159000A591B491611109C09FB7F89488812095F5
:1015A00082238883EC912E230BC0623061F49FB7B5
:1015B000F8948881322F309583238883EC912E2BE9
:1015C0002C939FBF06C08FB7F894E8812E2B2883F9
:1015D0008FBFDF91CF910895CF93DF93823028F0B2
:1015E00090919D03986090939D038093A103109226
:1015F000A20380E48093A30380E18093A40380E5A9
:101600008093A50361E0809192030E94B00A8091CB
:1016100093038F3F19F061E00E94B00A61E080916E
:1016200094030E94B00ACEE8D3E09E012E583340C6
:1016300080919D0384FD03C084E090E002C088E0B7
:1016400090E02196281739072CF461E08E810E94E2
:10165000B00AEBCF8BE39DE00197F1F760E080915A
:1016600092030E94810A60E0809194030E94810AA3
:10167000809193038F3F19F060E00E94810A80916E
:101680009D0384FD20C063E08EE893E00E946E0716
:10169000CBE4D6E4CE010197F1F763E08EE893E066
:1016A0000E946E072197F1F763E08EE893E00E94B5
:1016B0006E0783E592E00197F1F762E08EE893E030
:1016C0000E946E0715C080620E9459098BE496E45F
:1016D0000197F1F780919D0380620E94590983E58B
:1016E00092E00197F1F780919D0380620E94590971
:1016F00080919D0380620E94590984E080939E033B
:101700008CE00E9459090E94C00982E080939F03E7
:1017100086E0DF91CF910C9459098F929F92AF92FE
:10172000BF92CF92DF92EF92FF926B017C010E94F9
:10173000F3084B015C01C114D104E104F104F1F0A0
:101740000E94F308DC01CB0188199909AA09BB0999
:10175000883E9340A105B10570F321E0C21AD1087B
:10176000E108F10888EE880E83E0981EA11CB11CE8
:10177000C114D104E104F10419F7DDCFFF90EF901B
:10178000DF90CF90BF90AF909F908F9008951F9261
:101790000F920FB60F9211242F933F938F939F9325
:1017A000AF93BF938091A7039091A803A091A90341
:1017B000B091AA033091A60323E0230F2D3720F424
:1017C0000196A11DB11D05C026E8230F0296A11D9B
:1017D000B11D2093A6038093A7039093A803A09321
:1017E000A903B093AA038091AB039091AC03A0919D
:1017F000AD03B091AE030196A11DB11D8093AB0363
:101800009093AC03A093AD03B093AE03BF91AF919F
:101810009F918F913F912F910F900FBE0F901F902E
:101820001895CF93DF93EC016115710559F0FB0119
:1018300001900020E9F73197AF01461B570B0E943A
:1018400088090CC088819981009711F00E946D1061
:10185000198218821D821C821B821A82CE01DF919E
:10186000CF910895FC01808191810C946D10FB0152
:10187000DC0111961C921E9213961C921E921297D6
:1018800015961C921E9214978617970749F060814F
:1018900071816115710521F0448155810C9488098D
:1018A00008958F929F92AF92BF92EF92FF920F9303
:1018B0001F93CF93DF93CDB7DEB7A1970FB6F89400
:1018C000DEBF0FBECDBF7C01FA01CB0119A22230D1
:1018D00008F42AE08E010F5D1F4F822E912CA12C5F
:1018E000B12CBF01A50194010E94990FF901CA0111
:1018F000015011096A3014F4605D01C0695CD801BF
:101900006C93232B242B252B61F7B801C7010E9470
:101910000107A1960FB6F894DEBF0FBECDBFDF91D1
:10192000CF911F910F91FF90EF90BF90AF909F903C
:101930008F900895CF92DF92EF92FF920F931F93B3
:10194000CF93DF936B01770FEE08FF08F7FE1FC000
:10195000EC01E881F9810190F081E02D6DE20995BB
:101960008C0144275527BA014C195D096E097F097E
:101970002AE0CE010E94510C800F911FDF91CF9180
:101980001F910F91FF90EF90DF90CF9008952AE084
:10199000B701A601DF91CF911F910F91FF90EF90BA
:1019A000DF90CF900C94510C0C9401076F927F92B2
:1019B0008F929F92AF92BF92CF92DF92EF92FF925F
:1019C0000F93CF93DF93EC017B014A01390182E051
:1019D0000E94580A5C0184E00E94580A6C010023AE
:1019E00019F10E94C009C4010E944F0A61E080E021
:1019F0000E94C809BE018EE893E00E949A0C64E63A
:101A000072E08EE893E00E94D40CC3010E944F0A5A
:101A100062E672E08EE893E00E94D40C66E970E022
:101A200080E090E00E948D0BAB2871F40E941809B1
:101A30000E9418090E941809CE0DDF1D66E970E0AA
:101A400080E090E00E948D0BCD2891F40E9418094F
:101A50000E9418090E941809CE19DF09D7FF02C099
:101A6000C0E0D0E066E970E080E090E00E948D0B7D
:101A7000CE01DF91CF910F91FF90EF90DF90CF904B
:101A8000BF90AF909F908F907F906F9008957894C3
:101A900084B5826084BD84B5816084BD85B5826073
:101AA00085BD85B5816085BD80916E008160809324
:101AB0006E0010928100809181008260809381008D
:101AC000809181008160809381008091800081609D
:101AD000809380008091B10084608093B1008091F8
:101AE000B00081608093B00080917A008460809320
:101AF0007A0080917A00826080937A0080917A00E7
:101B0000816080937A0080917A00806880937A0067
:101B10001092C10082E00E94EC0AE091E302F09191
:101B2000E40282E08083E091DF02F091E002108223
:101B3000E091E102F091E2028FEC80831092EB02DF
:101B4000E091E702F091E80286E08083E091E5020F
:101B5000F091E602808180618083E091E502F0915E
:101B6000E602808188608083E091E502F091E602E0
:101B7000808180688083E091E502F091E6028081B7
:101B80008F7D808383ED92E00E946D0162E083E0AF
:101B90000E94B00A62E084E00E94B00A62E082E043
:101BA0000E94B00A61E086E00E94B00A61E085E030
:101BB0000E94B00A61E08DE00E94B00A8DEE91E0D3
:101BC0009093D2028093D10287E8C82E82E0D82E6B
:101BD00080910101882331F0E091D102F091D2028D
:101BE0000995F6CFFF24F3948091D002882381F3E6
:101BF00060E086E00E94810A01E010E0809100012F
:101C0000882309F489C083E00E94580A892B59F47B
:101C100061E083E00E94810A0330110509F45AC093
:101C2000C3E0D0E035C084E00E94580A892B99F4C3
:101C300061E084E00E94810A0E94C0096FE072E0C6
:101C40008EE893E00E94D40C61E08DE00E94810A4E
:101C5000C2E0D0E01AC082E00E94580A892B99F4B1
:101C600061E082E00E94810A0E94C00960ED71E09B
:101C70008EE893E00E94D40C61E085E00E94810A26
:101C8000C1E0D0E002C0C0E0D0E0C017D107E1F170
:101C9000BE0183ED92E00E949A0C0E94C0096FE899
:101CA00072E08EE893E00E94D40C61E080E00E9434
:101CB000C80960EA72E08EE893E00E94D40C60E00C
:101CC0008DE00E94810A60E085E00E94810AC330B5
:101CD000D105D1F463E070E083ED92E00E949A0CAC
:101CE0000E94C00961EB72E08EE893E00E94D40C80
:101CF0001092D00210920001F0920101D092D20213
:101D0000C092D102C3E0D0E066E970E080E090E0EC
:101D10000E948D0B8E0172CF66E970E080E090E04A
:101D20000E948D0B61E086E00E94810A66E970E006
:101D300080E090E00E948D0B57CF80E793E00E94F7
:101D4000320C86E793E00E94320C8CE793E00C940F
:101D5000320CE3EDF2E01382128288EE93E0A0E011
:101D6000B0E084839583A683B7838EE091E091836E
:101D7000808385EC90E09587848784EC90E097875A
:101D8000868780EC90E0918B808B81EC90E0938B48
:101D9000828B82EC90E0958B848B86EC90E0978B25
:101DA000868B118E128E138E148EEEE8F3E0138262
:101DB000128280E291E09183808389E084838FEFB7
:101DC000858387E0868388E087838CE080878AE04C
:101DD00081878BE082871386148615861686178680
:101DE00081E00E94EC0A80E090E00E94C80890E048
:101DF00090938D0380938C0381E090E00E94C8084B
:101E000090E090938B0380938A0382E090E00E949D
:101E1000C80890E0909389038093880383E090E062
:101E20000E94C80890E0909387038093860384E023
:101E300090E00E94C8082AE0829FC001112490937C
:101E400085038093840385E090E00E94C80890E0B9
:101E500090938303809382038CE793E00E94B309FD
:101E600086E793E00E94B30980E793E00C94B309FE
:101E7000F999FECF92BD81BDF89A992780B5089552
:101E8000262FF999FECF1FBA92BD81BD20BD0FB696
:101E9000F894FA9AF99A0FBE019608952F923F92FC
:101EA0004F925F926F927F928F929F92AF92BF926A
:101EB000CF92DF92EF92FF920F931F93CF93DF9316
:101EC000CDB7DEB7CA1BDB0B0FB6F894DEBF0FBE73
:101ED000CDBF09942A88398848885F846E847D84C0
:101EE0008C849B84AA84B984C884DF80EE80FD80C2
:101EF0000C811B81AA81B981CE0FD11D0FB6F89438
:101F0000DEBF0FBECDBFED01089597FB072E16F47F
:101F1000009407D077FD09D00E94BB0F07FC05D0C5
:101F20003EF4909581959F4F0895709561957F4FF0
:101F30000895A1E21A2EAA1BBB1BFD010DC0AA1F0A
:101F4000BB1FEE1FFF1FA217B307E407F50720F022
:101F5000A21BB30BE40BF50B661F771F881F991F9D
:101F60001A9469F760957095809590959B01AC01E6
:101F7000BD01CF010895AA1BBB1B51E107C0AA1FD9
:101F8000BB1FA617B70710F0A61BB70B881F991F1A
:101F90005A95A9F780959095BC01CD010895EE0F53
:101FA000FF1F0590F491E02D09940F931F93CF9399
:101FB000DF938230910510F482E090E0E091B1036C
:101FC000F091B20320E030E0A0E0B0E0309719F1EA
:101FD000408151810281138148175907C8F0841745
:101FE000950769F4109731F012960C931297139697
:101FF0001C9327C00093B1031093B20322C0211594
:10200000310519F04217530718F49A01BD01EF0189
:10201000DF01F801DBCF21153105F9F0281B390B61
:102020002430310580F48A819B816115710521F08E
:10203000FB019383828304C09093B2038093B10326
:10204000FE01329644C0FE01E20FF31F819391938B
:1020500022503109398328833AC02091AF0330914F
:10206000B003232B41F420910401309105013093FA
:10207000B0032093AF032091020130910301211599
:10208000310541F42DB73EB740910601509107014B
:10209000241B350BE091AF03F091B003E217F30777
:1020A000A0F42E1B3F0B2817390778F0AC014E5FC8
:1020B0005F4F2417350748F04E0F5F1F5093B00352
:1020C0004093AF038193919302C0E0E0F0E0CF0131
:1020D000DF91CF911F910F910895CF93DF930097D8
:1020E00009F481C0FC01329713821282A091B103DE
:1020F000B091B203109781F420813181820F931F38
:102100002091AF033091B0032817390751F5F093B0
:10211000B003E093AF0367C0ED0120E030E0CE17DD
:10212000DF0740F44A815B819E0141155105F1F0C2
:10213000EA01F5CFD383C28340815181840F951F7B
:10214000C817D90759F488819981840F951F029681
:10215000918380838A819B819383828321153105BA
:1021600029F4F093B203E093B1033DC0E901FB838E
:10217000EA8349915991C40FD51FEC17FD0761F40B
:1021800080819181840F951F0296E901998388834C
:10219000828193819B838A83E0E0F0E012968D91A7
:1021A0009C911397009719F0FD01DC01F7CF8D91F9
:1021B0009C9111979D012E5F3F4F820F931F20919D
:1021C000AF033091B0032817390769F4309729F429
:1021D0001092B2031092B10302C013821282B09324
:1021E000B003A093AF03DF91CF910895A0E0B0E0DA
:1021F000ECEFF0E10C94520FEC01009721F4CB01CD
:102200000E94D50FB4C0FC01E60FF71F9C012250BD
:102210003109E217F30708F4A8C0D9010D911C9108
:10222000119706171707B0F00530110508F49BC089
:10223000C80104978617970708F495C00250110942
:10224000061B170B019311936D937C93CF010E9492
:102250006D1089C05B01A01AB10A4C01800E911E5D
:10226000A091B103B091B203612C712CE12CF12C3F
:10227000109709F446C08D919C911197A815B90546
:10228000B1F56C0142E0C40ED11CCA14DB0478F134
:102290004C018A189B08640142E0C40ED11C1296BE
:1022A000BC9012971396AC91B5E0CB16D10440F0D8
:1022B000B282A38391828082D9016D937C9309C0FD
:1022C0000E5F1F4F800F911FF90191838083EB2DCB
:1022D000FA2FE114F10431F0D7011396FC93EE9339
:1022E000129741C0F093B203E093B1033CC068166B
:1022F000790608F43C017D0112960D90BC91A02D49
:10230000B7CF8091AF039091B00388169906E1F49E
:1023100066167706C8F48091020190910301009738
:1023200041F48DB79EB74091060150910701841B7F
:10233000950BE817F907C8F4F093B003E093AF03E7
:10234000F901718360830FC0CB010E94D50F7C011E
:10235000009759F0A801BE010E94C111CE010E9450
:102360006D10C70104C0CE0102C080E090E0CDB77F
:10237000DEB7EEE00C946E0F81E090E0F8940C94E0
:10238000DA11FB01DC0102C001900D924150504076
:10239000D8F70895FB01DC018D910190801901109F
:1023A000D9F3990B0895FB01DC0101900D920020F7
:1023B000E1F7089510E0C2E6D0E004C0FE010E94FB
:0E23C000CF0F2196C336D107C9F7F894FFCF8F
:1023CE0001010000B30380000402000000002001A0
:1023DE008D00B7006D01E800C600DA0000000000B5
:1023EE00EE078D009901240920454D4120464553A5
:1023FE002D526F77696E672000202020436F6E6527
:10240E006374616E646F2E2E2E006100496E6963D7
:10241E0069616E646F20657374696D756C6163615B
:10242E006F0053656C2E4D6F76696D656E746F28F7
:10243E0073293A00457874656E73616F20202020F1
:10244E0020202000202020202020202020666C65C7
:10245E0078616F00457874656E73616F2B666C657D
:10246E0078616F004672657175656E6369613A00D9
:10247E00487A004C617267757261206465205075F0
:10248E006C736F3A006D7300436F7272656E746594
:10249E00457874656E73616F006D41202843482046
:1024AE005B312C325D2900436F7272656E7465204C
:1024BE0041757820457874006D4120284348205B93
:1024CE00352C365D2900436F7272656E7465204639
:1024DE006C6578616F006D4120284348205B332C7A
:1024EE00345D2900436F7272656E74652041757894
:1024FE00466C6578006D4120284348205B372C38A8
:10250E005D2900466C65782E632F20417578696CC5
:10251E006961723F004E616F202020202020202014
:10252E0020202020200053696D2C20434820372F77
:10253E0038004578742E632F20417578696C696177
:10254E00723F0053696D2C20434820352F360020F2
:10255E002020205072657373696F6E6520202000F5
:10256E003C2D466C657820202020204578742D3E29
:10257E000046696D006300640065007000660045EA
:08258E006E7669616E646F0056
:00000001FF
