:100000000C9463000C948B000C948B000C948B006C
:100010000C948B000C948B000C948B000C948B0034
:100020000C948B000C948B000C948B000C948B0024
:100030000C948B000C948B000C948B000C948B0014
:100040000C94C20B0C948B000C940D080C94E707D5
:100050000C948B000C948B000C948B000C948B00F4
:100060000C948B000C948B000000000024002700EF
:100070002A0000000000250028002B0000000000DE
:1000800023002600290004040404040404040202DA
:100090000202020203030303030301020408102007
:1000A0004080010204081020010204081020000012
:1000B0000008000201000003040700000000000027
:1000C00000009B0E8F0E11241FBECFEFD8E0DEBFC5
:1000D000CDBF23E0A0EDB2E001C01D92A03BB2076E
:1000E000E1F712E0A0E0B1E0E4E1F3E202C0059044
:1000F0000D92A03DB107D9F710E0C2E6D0E004C0F0
:100100002197FE010E94720FC136D107C9F70E94E4
:10011000420D0C947D110C940000CF92DF92EF926F
:10012000FF920F931F93CF93DF936C017A018B01A2
:10013000C0E0D0E0CE15DF0581F0D8016D918D01D2
:10014000D601ED91FC910190F081E02DC601099559
:10015000892B11F02196EECF7E01C701DF91CF915F
:100160001F910F91FF90EF90DF90CF900895FC01C9
:10017000538D448D252F30E0842F90E0821B930B0C
:10018000541710F0CF96089501970895FC01918DB2
:10019000828D981761F0828DDF01A80FB11D5D96E9
:1001A0008C91928D9F5F9F73928F90E008958FEF57
:1001B0009FEF0895FC01918D828D981731F0828D0B
:1001C000E80FF11D858D90E008958FEF9FEF089562
:1001D000FC01918D228D892F90E0805C9F4F821BC6
:1001E00091098F73992708958CED92E00E94E800A1
:1001F00021E0892B09F420E0822F0895FC01848DF1
:10020000DF01A80FB11DA35ABF4F2C91848D90E040
:1002100001968F739927848FA689B7892C93A0891B
:10022000B1898C91837080648C93938D848D9813A5
:1002300006C00288F389E02D80818F7D8083089538
:10024000EF92FF920F931F93CF93DF93EC0181E026
:10025000888F9B8D8C8D981305C0E889F9898081E2
:1002600085FD26C0F62E0B8D10E00F5F1F4F0F731C
:100270001127E02E8C8DE8120CC00FB607FCFACFC8
:10028000E889F989808185FFF5CFCE010E94FE00C3
:10029000F1CF8B8DFE01E80FF11DE35AFF4FF08285
:1002A0009FB7F8940B8FEA89FB89808180620AC02E
:1002B0009FB7F894EE89FF896083E889F989808186
:1002C0008370806480839FBF81E090E0DF91CF9155
:1002D0001F910F91FF90EF900895CF93DF93EC0162
:1002E000888D8823C9F0EA89FB89808185FD05C056
:1002F000A889B9898C9186FD0FC00FB607FCF5CF90
:10030000808185FFF2CFA889B9898C9185FFEDCFD7
:10031000CE010E94FE00E7CFDF91CF91089580E0EB
:1003200090E0892B29F00E94F40081110C940000C8
:10033000089580E090E0089581E08093D9021092C2
:1003400008010895CF93DF93EC0160E08E810E9455
:100350007C0A61E08E810E947C0A60E08E810E94AE
:100360007C0A8BE891E00197F1F7DF91CF91089536
:10037000CF93DF93382F292FE0E0F0E0CAE0D0E000
:10038000009731F0BE010E94280FCB013196F8CFC3
:10039000E330F10519F4632F722F14C0E901E23044
:1003A000F10541F03197A1F460E070E08CED92E04E
:1003B0000E94950C60E070E08CED92E00E94950C3C
:1003C0006D2F7C2F8CED92E0DF91CF910C94950CEA
:1003D000DF91CF9108958091D802811105C01092CC
:1003E000D7021092D6022BC0833019F481E090E03E
:1003F00022C08C3019F482E090E01DC08F3019F4D7
:1004000083E090E018C0833319F484E090E013C0D7
:100410008F3319F485E090E00EC08C3C19F486E02F
:1004200090E009C08F3C19F487E090E004C08F3F52
:1004300031F488E090E09093D7028093D6026FE287
:1004400071E08CED92E00E94CF0C80910601082EA5
:10045000000C990B0E94B80161E371E08CED92E011
:100460000E94CF0C80910501082E000C990B0E9470
:10047000B80163E371E08CED92E00E94CF0C8091B3
:100480000401082E000C990B0E94B8016BE072E089
:100490008CED92E00E94CF0C80910301082E000C9D
:1004A000990B0E94B80165E371E08CED92E00E9427
:1004B000CF0C80910101909102010E94B80167E385
:1004C00071E08CED92E00E94CF0C80910001082E2B
:1004D000000C990B0E94B8016DEC72E08CED92E07B
:1004E0000E94CF0C8091D6029091D7020E94B80151
:1004F0000E94BB0969E371E08BE893E00E94CF0C96
:1005000060ED77E080E090E00E94880B8AEF92E057
:100510009093DB028093DA0261E080E00E94C309DD
:100520004091D80250E060E070E022E08BE893E078
:100530000E944C0C61E08FE00E94C3096091D602DA
:100540007091D7028BE893E00C94950CCF93DF93D6
:1005500000D000D000D0CDB7DEB70E94BB0961E06B
:1005600080E00E94C30962E471E08BE893E00E949E
:10057000CF0C68EE73E080E090E00E94880B60E0B2
:1005800080E00E94C30963E571E08BE893E00E947C
:10059000CF0C8CED92E00E94E800892BD1F3CE01C4
:1005A00001960E94120ACE0101960E94D509CE0141
:1005B00001960E942D0C8091890390918A03892BCA
:1005C00041F364E671E080918503909186030E9477
:1005D0006D11892BF1F685E097E09093DB02809313
:1005E000DA0226960FB6F894DEBF0FBECDBFDF91BC
:1005F000CF910895CF93DF9300D000D000D0CDB736
:10060000DEB78CED92E00E94E800892B81F1CE01EB
:1006100001960E94120ACE0101960E94D509CE01D0
:1006200001960E942D0C8091890390918A03892B59
:10063000F1F064E671E080918503909186030E9459
:100640006D11892BA1F40E94BB0966E671E08BE86D
:1006500093E00E94CF0C68EE73E080E090E00E948F
:10066000880B8CE991E09093DB028093DA02269666
:100670000FB6F894DEBF0FBECDBFDF91CF910895C6
:100680000F93CF93DF93CDB7DEB72C970FB6F894C7
:10069000DEBF0FBECDBF6CE771E08FE793E00E9435
:1006A0000C0C80910001082E000C990B9093D50240
:1006B0008093D40285E08093D30268E871E089E7F3
:1006C00093E00E940C0C69E773E0CE0107960E944C
:1006D000320C6FE773E0CE0101960E94320C6091FC
:1006E000D302062E000C770B01E09E01295F3F4FDD
:1006F000AE014F5F5F4F8091D4029091D5020E946E
:10070000D10C80930001CE0101960E942D0CCE01E8
:1007100007960E942D0C6AEF70E080E090E00E9446
:10072000880B83E00E94530A892B51F48BEE91E0F1
:100730009093DB028093DA0261E083E00E947C0AFE
:100740002C960FB6F894DEBF0FBECDBFDF91CF91D0
:100750000F9108950F93CF93DF93CDB7DEB72C970A
:100760000FB6F894DEBF0FBECDBF6BE871E08FE728
:1007700093E00E940C0C80910101909102019093F2
:10078000D5028093D4028AE08093D3026DE971E0B0
:1007900089E793E00E940C0C69E773E0CE010796AD
:1007A0000E94320C6FE773E0CE0101960E94320C7A
:1007B0006091D302062E000C770B01E09E01295FA9
:1007C0003F4FAE014F5F5F4F8091D4029091D502B1
:1007D0000E94D10C9093020180930101CE010196F9
:1007E0000E942D0CCE0107960E942D0C6AEF70E03E
:1007F00080E090E00E94880B83E00E94530A892BDE
:1008000051F480E493E09093DB028093DA0261E09C
:1008100083E00E947C0A2C960FB6F894DEBF0FBED0
:10082000CDBFDF91CF910F9108950F931F93CF9379
:10083000DF93CDB7DEB72C970FB6F894DEBF0FBEAF
:10084000CDBF8091D802837009F45BC061E083E082
:100850000E947C0A6AEF70E080E090E00E94880BC2
:1008600012E083E00E94530A019709F04AC060EA4F
:1008700071E08FE793E00E940C0C80910601082E36
:10088000000C990B9093D5028093D4021093D3025D
:1008900061EB71E089E793E00E940C0C69E773E07B
:1008A000CE0107960E94320C6FE773E0CE010196ED
:1008B0000E94320C6091D302062E000C770B01E0EF
:1008C0009E01295F3F4FAE014F5F5F4F8091D40281
:1008D0009091D5020E94D10C80930601CE01019621
:1008E0000E942D0CCE0107960E942D0C80910601CE
:1008F000809304016AEF70E080E090E00E94880B32
:10090000B0CF8091D802807309F457C061E083E0D2
:100910000E947C0A6AEF70E080E090E00E94880B01
:1009200012E083E00E94530A019709F046C06FEB82
:1009300071E08FE793E00E940C0C80910401082E77
:10094000000C990B9093D5028093D4021093D3029C
:1009500060ED71E089E793E00E940C0C69E773E0B9
:10096000CE0107960E94320C6FE773E0CE0101962C
:100970000E94320C6091D302062E000C770B01E02E
:100980009E01295F3F4FAE014F5F5F4F8091D402C0
:100990009091D5020E94D10C80930401CE01019662
:1009A0000E942D0CCE0107960E942D0C6AEF70E07C
:1009B00080E090E00E94880BB4CF8091D8028C70C8
:1009C00009F45BC061E083E00E947C0A6AEF70E09A
:1009D00080E090E00E94880B12E083E00E94530ABE
:1009E000019709F04AC06EED71E08FE793E00E9435
:1009F0000C0C80910501082E000C990B9093D502E8
:100A00008093D4021093D3026EEE71E089E793E0F5
:100A10000E940C0C69E773E0CE0107960E94320C2D
:100A20006FE773E0CE0101960E94320C6091D30211
:100A3000062E000C770B01E09E01295F3F4FAE01AF
:100A40004F5F5F4F8091D4029091D5020E94D10CEC
:100A500080930501CE0101960E942D0CCE010796D0
:100A60000E942D0C80910501809303016AEF70E0D4
:100A700080E090E00E94880BB0CF8091D802807C0B
:100A800009F457C061E083E00E947C0A6AEF70E0DD
:100A900080E090E00E94880B12E083E00E94530AFD
:100AA000019709F046C06CEF71E08FE793E00E9478
:100AB0000C0C80910301082E000C990B9093D50229
:100AC0008093D4021093D3026DE072E089E793E043
:100AD0000E940C0C69E773E0CE0107960E94320C6D
:100AE0006FE773E0CE0101960E94320C6091D30251
:100AF000062E000C770B01E09E01295F3F4FAE01EF
:100B00004F5F5F4F8091D4029091D5020E94D10C2B
:100B100080930301CE0101960E942D0CCE01079611
:100B20000E942D0C6AEF70E080E090E00E94880B3C
:100B3000B4CF8AEA93E09093DB028093DA022C969A
:100B40000FB6F894DEBF0FBECDBFDF91CF911F91DE
:100B50000F9108950F93CF93DF93CDB7DEB72C9706
:100B60000FB6F894DEBF0FBECDBF6BE172E08FE72A
:100B700093E00E940C0C0E94BB098FE793E00E9457
:100B80004A0A81E08093D3026DE372E089E793E043
:100B90000E940C0C8091D20290E09093D502809339
:100BA000D40269E773E0CE0107960E94320C6FE72A
:100BB00073E0CE0101960E94320C6091D302062EA2
:100BC000000C770B00E09E01295F3F4FAE014F5FA5
:100BD0005F4F8091D4029091D5020E94D10C9093E6
:100BE000D5028093D402CE0101960E942D0CCE0135
:100BF00007960E942D0C8091D4029091D502892BEA
:100C0000A1F41092D20261E080E00E94C3096DE27B
:100C100072E08BE893E00E94CF0C1092D1026AEF51
:100C200070E080E090E00E94880B8091D402909167
:100C3000D5020197B1F481E08093D20261E080E0B7
:100C40000E94C3096EE372E08BE893E00E94CF0C30
:100C500080EC8093D1026AEF70E080E090E00E9427
:100C6000880B83E00E94530A892B69F49091D80283
:100C70008091D102892B8093D80285E194E09093F2
:100C8000DB028093DA026AEF70E080E090E00E947D
:100C9000880B2C960FB6F894DEBF0FBECDBFDF9148
:100CA000CF910F9108950F93CF93DF93CDB7DEB718
:100CB0002C970FB6F894DEBF0FBECDBF6AE472E08A
:100CC0008FE793E00E940C0C0E94BB098FE793E032
:100CD0000E944A0A81E08093D3026DE372E089E7C3
:100CE00093E00E940C0C8091D00290E09093D5028A
:100CF0008093D40269E773E0CE0107960E94320C1C
:100D00006FE773E0CE0101960E94320C6091D3022E
:100D1000062E000C770B00E09E01295F3F4FAE01CD
:100D20004F5F5F4F8091D4029091D5020E94D10C09
:100D30009093D5028093D402CE0101960E942D0C8F
:100D4000CE0107960E942D0C8091D4029091D5027D
:100D5000892BA1F41092D00261E080E00E94C309C7
:100D60006DE272E08BE893E00E94CF0C1092D1020A
:100D70006AEF70E080E090E00E94880B8091D402DE
:100D80009091D5020197B1F481E08093D00261E0A7
:100D900080E00E94C3096BE572E08BE893E00E945B
:100DA000CF0C80E38093D1026AEF70E080E090E0A6
:100DB0000E94880B83E00E94530A892BE1F49091F2
:100DC000D8028091D102892B8093D8028091D602DB
:100DD0009091D702019719F485E194E002C08AEA64
:100DE00095E09093DB028093DA026AEF70E080E096
:100DF00090E00E94880B2C960FB6F894DEBF0FBED1
:100E0000CDBFDF91CF910F9108950F93CF93DF93D3
:100E1000CDB7DEB72C970FB6F894DEBF0FBECDBFAF
:100E200067E672E08FE793E00E940C0C0E94BB091A
:100E30008FE793E00E944A0A8091D6029091D702F0
:100E40009093D5028093D40281E08093D3026DE326
:100E500072E089E793E00E940C0C69E773E0CE0131
:100E600007960E94320C6FE773E0CE0101960E9454
:100E7000320C6091D302062E000C770B00E09E012D
:100E8000295F3F4FAE014F5F5F4F8091D402909139
:100E9000D5020E94D10C9093D7028093D602CE0146
:100EA00001960E942D0CCE0107960E942D0C809178
:100EB000D6029091D702892B31F483E090E0909391
:100EC000D7028093D6028091D6029091D7020497E0
:100ED00031F481E090E09093D7028093D602809124
:100EE000D6029091D702019769F461E080E00E94F8
:100EF000C30969E772E08BE893E00E94CF0C83E0BE
:100F00008093D8028091D6029091D702029769F41B
:100F100061E080E00E94C30969E872E08BE893E039
:100F20000E94CF0C8CE08093D8028091D6029091E1
:100F3000D702039769F461E080E00E94C30969E980
:100F400072E08BE893E00E94CF0C8FE08093D80290
:100F50006AEF70E080E090E00E94880B83E00E94DE
:100F6000530A892BA9F48091D6029091D702029757
:100F700019F48AEA95E002C083E596E09093DB02DB
:100F80008093DA026AEF70E080E090E00E94880BC4
:100F90002C960FB6F894DEBF0FBECDBFDF91CF9178
:100FA0000F9108956115710579F0FB010190002002
:100FB000E9F73197AF01461B570BDC01ED91FC912E
:100FC0000280F381E02D099480E090E008951F9263
:100FD0000F920FB60F9211242F933F934F935F936D
:100FE0006F937F938F939F93AF93BF93EF93FF93F1
:100FF0008CED92E00E94FE00FF91EF91BF91AF91C6
:101000009F918F917F916F915F914F913F912F9120
:101010000F900FBE0F901F9018951F920F920FB652
:101020000F9211242F938F939F93EF93FF93E0914F
:10103000EC02F091ED028081E091F202F091F30276
:1010400082FD12C090818091F5028F5F8F73209195
:10105000F602821751F0E091F502F0E0E452FD4F04
:10106000958F8093F50201C08081FF91EF919F9150
:101070008F912F910F900FBE0F901F901895CF92C8
:10108000DF92EF92FF920F931F93CF93DF936C0148
:101090007C0187E0E80EF11CC0E0D0E0062F10E0F4
:1010A000B8010C2E02C0759567950A94E2F761703D
:1010B000F70181917F010E947C0A2196C430D105FD
:1010C00079F7C601DF91CF911F910F91FF90EF90BB
:1010D000DF90CF900C94A201CF92DF92EF92FF921B
:1010E0000F931F93CF93DF93EC01F62E642F8C8127
:1010F0000E947C0A8D818F3F19F060E00E947C0A7B
:101100008F850F2D10E084FF25C06E0187E0C80E8B
:10111000D11CE12CF12CB8010E2C02C075956795FD
:101120000A94E2F76170F60181916F010E947C0AD6
:10113000FFEFEF1AFF0A88E0E816F10461F7CE012D
:10114000DF91CF911F910F91FF90EF90DF90CF90A3
:101150000C94A201B80184E0759567958A95E1F732
:10116000CE010E943F086F2DCE01DF91CF911F91DC
:101170000F91FF90EF90DF90CF900C943F0841E0EB
:101180000E946C0881E090E00895833081F028F49B
:10119000813099F08230A1F008958730A9F088302D
:1011A000B9F08430D1F4809180008F7D03C08091AC
:1011B00080008F7780938000089584B58F7702C078
:1011C00084B58F7D84BD08958091B0008F7703C072
:1011D0008091B0008F7D8093B00008953FB7F89460
:1011E0008091A8039091A903A091AA03B091AB03A9
:1011F00026B5A89B05C02F3F19F00196A11DB11D72
:101200003FBFBA2FA92F982F8827820F911DA11DAC
:10121000B11DBC01CD0142E0660F771F881F991FE9
:101220004A95D1F708952FB7F8946091A40370916F
:10123000A5038091A6039091A7032FBF0895089559
:101240000F931F930E9413096093E4027093E502C9
:101250008093E6029093E7028CED92E00E94C60034
:1012600097FF1FC00E9413090091E4021091E5024C
:101270002091E6023091E702DC01CB01801B910B4B
:10128000A20BB30B0091E0021091E1022091E20267
:101290003091E30280179107A207B307E8F28FEFBE
:1012A0009FEF1F910F91089540E0682F8BE893E026
:1012B0000C946C080E945F110F931F93CF93DF93E0
:1012C000EC0188819981009729F02A813B812617BA
:1012D000370788F48B016F5F7F4F0E94991000974A
:1012E00061F0998388831B830A832C813D81232BA2
:1012F00011F4FC01108281E001C080E0DF91CF9108
:101300001F910F910895EF92FF920F931F93CF9328
:10131000DF93EC017B018A01BA010E945C092881FC
:10132000398181110DC02115310519F0C9010E94C3
:101330001010198218821D821C821B821A8206C01C
:101340001D830C83B701C9010E947611CE01DF9184
:10135000CF911F910F91FF90EF900895FC011182A2
:101360001082138212821582148240E050E06DE3F5
:1013700072E00C94830981E00E9454098BE39FE1A1
:101380000197F1F70895643008F063E090919E03AF
:10139000691710F06FEF690FE62FF0E0E557FC4F8B
:1013A0009489890F80680C945409CF93DF93EC01E2
:1013B0008091850390918603009739F06881798147
:1013C00061157105C9F40E9410108881998190936C
:1013D0008603809385038A819B8190938803809301
:1013E00087038C819D8190938A038093890319825E
:1013F00018821B821A8211C0409187035091880382
:101400002C813D8142175307F0F20E9476118C81A6
:101410009D8190938A03809389031D821C82DF91B2
:10142000CF910895EF92FF920F931F93CF93DF9385
:1014300000D0CDB7DEB78C010E94AE090E94200912
:1014400097FD1EC089831A82F801E480F580FFEFC2
:10145000EF1AFF0AB701C8010E945C09882371F3E3
:10146000F8012081318184819581BE016F5F7F4FBA
:10147000820F931F0E947611F801F582E482DECF7D
:10148000C8010F900F90DF91CF911F910F91FF90A6
:10149000EF900895FC0144815581608171818BE852
:1014A00093E00C948D00CF93DF93282F30E0F90167
:1014B000E255FF4F8491F901E656FF4FD491F901AF
:1014C000EA57FF4FC491CC2391F081110E94C508C7
:1014D000EC2FF0E0EE0FFF1FE458FF4FA591B49101
:1014E000EC91ED2381E090E021F480E002C080E007
:1014F00090E0DF91CF9108951F93CF93DF93282F32
:1015000030E0F901E255FF4F8491F901E656FF4FB3
:10151000D491F901EA57FF4FC491CC23C1F0162FA3
:1015200081110E94C508EC2FF0E0EE0FFF1FEE586E
:10153000FF4FA591B4919FB7F894111104C08C91FD
:10154000D095D82302C0EC91DE2BDC939FBFDF91B6
:10155000CF911F910895CF93DF9390E0FC01E65661
:10156000FF4F2491FC01EA57FF4F8491882361F1DA
:1015700090E0880F991FFC01E859FF4FC591D49165
:10158000FC01EE58FF4FA591B491611109C09FB7BE
:10159000F8948881209582238883EC912E230BC0B8
:1015A000623061F49FB7F8948881322F309583239D
:1015B0008883EC912E2B2C939FBF06C08FB7F89495
:1015C000E8812E2B28838FBFDF91CF910895CF9391
:1015D000DF93823028F090919A03986090939A0359
:1015E00080939E0310929F0380E48093A00380E188
:1015F0008093A10380E58093A20361E080918F0333
:101600000E94AB0A809190038F3F19F061E00E9425
:10161000AB0A61E0809191030E94AB0ACBE8D3E072
:101620009E012B58334080919A0384FD03C084E0CF
:1016300090E002C088E090E02196281739072CF44A
:1016400061E08E810E94AB0AEBCF8BE39DE00197B6
:10165000F1F760E080918F030E947C0A60E0809146
:1016600091030E947C0A809190038F3F19F060E003
:101670000E947C0A80919A0384FD20C063E08BE87D
:1016800093E00E943F08CBE4D6E4CE010197F1F746
:1016900063E08BE893E00E943F082197F1F763E055
:1016A0008BE893E00E943F0883E592E00197F1F711
:1016B00062E08BE893E00E943F0815C080620E94C0
:1016C00054098BE496E40197F1F780919A038062C4
:1016D0000E94540983E592E00197F1F780919A0303
:1016E00080620E94540980919A0380620E9454098A
:1016F00084E080939B038CE00E9454090E94BB0904
:1017000082E080939C0386E0DF91CF910C94540992
:101710008F929F92AF92BF92CF92DF92EF92FF9201
:101720006B017C010E94EE084B015C01C114D104E5
:10173000E104F104F1F00E94EE08DC01CB0188190C
:101740009909AA09BB09883E9340A105B10570F328
:1017500021E0C21AD108E108F10888EE880E83E082
:10176000981EA11CB11CC114D104E104F10419F7A5
:10177000DDCFFF90EF90DF90CF90BF90AF909F9024
:101780008F9008951F920F920FB60F9211242F93EE
:101790003F938F939F93AF93BF938091A4039091B6
:1017A000A503A091A603B091A7033091A30323E062
:1017B000230F2D3720F40196A11DB11D05C026E889
:1017C000230F0296A11DB11D2093A3038093A403B0
:1017D0009093A503A093A603B093A7038091A803B9
:1017E0009091A903A091AA03B091AB030196A11D0A
:1017F000B11D8093A8039093A903A093AA03B0936B
:10180000AB03BF91AF919F918F913F912F910F901B
:101810000FBE0F901F901895CF93DF93EC016115C9
:10182000710559F0FB0101900020E9F73197AF01F4
:10183000461B570B0E9483090CC088819981009731
:1018400011F00E941010198218821D821C821B82C6
:101850001A82CE01DF91CF910895FC0180819181A0
:101860000C941010FB01DC0111961C921E92139631
:101870001C921E92129715961C921E921497861710
:10188000970749F0608171816115710521F04481EC
:1018900055810C94830908958F929F92AF92BF92C5
:1018A000EF92FF920F931F93CF93DF93CDB7DEB7E5
:1018B000A1970FB6F894DEBF0FBECDBF7C01FA0131
:1018C000CB0119A2223008F42AE08E010F5D1F4FD0
:1018D000822E912CA12CB12CBF01A50194010E9454
:1018E0003C0FF901CA01015011096A3014F4605D1E
:1018F00001C0695CD8016C93232B242B252B61F745
:10190000B801C7010E94D207A1960FB6F894DEBFB6
:101910000FBECDBFDF91CF911F910F91FF90EF9040
:10192000BF90AF909F908F900895CF92DF92EF92EB
:10193000FF920F931F93CF93DF936B01770FEE0806
:10194000FF08F7FE1FC0EC01E881F9810190F081EA
:10195000E02D6DE209958C0144275527BA014C19F9
:101960005D096E097F092AE0CE010E944C0C800FB0
:10197000911FDF91CF911F910F91FF90EF90DF901A
:10198000CF9008952AE0B701A601DF91CF911F9172
:101990000F91FF90EF90DF90CF900C944C0C0C9433
:1019A000D2076F927F928F929F92AF92BF92CF9207
:1019B000DF92EF92FF920F93CF93DF93EC017B01C5
:1019C0004A01390182E00E94530A5C0184E00E94CE
:1019D000530A6C01002319F10E94BB09C4010E9443
:1019E0004A0A61E080E00E94C309BE018BE893E0EF
:1019F0000E94950C6CE372E08BE893E00E94CF0CA0
:101A0000C3010E944A0A6AE372E08BE893E00E94F5
:101A1000CF0C6AEF70E080E090E00E94880BAB286A
:101A200071F40E9413090E9413090E941309CE0D3C
:101A3000DF1D6AEF70E080E090E00E94880BCD2807
:101A400091F40E9413090E9413090E941309CE19F0
:101A5000DF09D7FF02C0C0E0D0E06AEF70E080E0AD
:101A600090E00E94880BCE01DF91CF910F91FF9003
:101A7000EF90DF90CF90BF90AF909F908F907F902E
:101A80006F900895789484B5826084BD84B5816038
:101A900084BD85B5826085BD85B5816085BD809139
:101AA0006E00816080936E001092810080918100B1
:101AB00082608093810080918100816080938100A9
:101AC000809180008160809380008091B10084606B
:101AD0008093B1008091B00081608093B0008091CC
:101AE0007A00846080937A0080917A00826080938B
:101AF0007A0080917A00816080937A0080917A00E8
:101B0000806880937A001092C10082E00E94E70A08
:101B1000E091EC02F091ED0282E08083E091E80236
:101B2000F091E9021082E091EA02F091EB028FEC71
:101B300080831092F402E091F002F091F10286E0CD
:101B40008083E091EE02F091EF02808180618083DA
:101B5000E091EE02F091EF02808188608083E09155
:101B6000EE02F091EF02808180688083E091EE02C6
:101B7000F091EF0280818F7D80838CED92E00E9456
:101B80006D0162E083E00E94AB0A62E084E00E94A3
:101B9000AB0A62E082E00E94AB0A61E086E00E944C
:101BA000AB0A61E085E00E94AB0A61E08DE00E9433
:101BB000AB0A86EA92E09093DB028093DA0280918E
:101BC0000801882309F454C0E091DA02F091DB02A5
:101BD0000995F5CF83E00E94530A892B09F098C03C
:101BE00061E083E00E947C0A0330110509F47DC0A6
:101BF000C3E0D0E0BE018CED92E00E94950C0E9403
:101C0000BB0969EA72E08BE893E00E94CF0C61E0C7
:101C100080E00E94C3096AEB72E08BE893E00E94C7
:101C2000CF0C60E08DE00E947C0A60E085E00E94BD
:101C30007C0AC330D10509F458C06EE170E080E041
:101C400090E00E94880B8E018091070181111CC0D9
:101C50006AEF70E080E090E00E94880B61E086E02F
:101C60000E947C0A6AEF70E080E090E00E94880B9E
:101C70008091D902882309F4A2CF60E086E00E9417
:101C80007C0A01E010E0E0CF82E00E94530A892B39
:101C900099F461E082E00E947C0A0E94BB0968EA34
:101CA00071E08BE893E00E94CF0C61E085E00E9438
:101CB0007C0AC1E0D0E02EC084E00E94530A892B48
:101CC00009F088CF61E084E00E947C0A0E94BB0991
:101CD00067EE71E08BE893E00E94CF0C61E08DE04D
:101CE0000E947C0AC2E0D0E015C063E070E08CED99
:101CF00092E00E94950C109207010E94BB096BECC8
:101D000072E08BE893E00E94CF0CC3E0D0E095CF67
:101D1000C0E0D0E0C017D10709F48FCF6BCF89E7BF
:101D200093E00E942D0C8FE793E00E942D0C85E834
:101D300093E00C942D0CECEDF2E01382128288EE0D
:101D400093E0A0E0B0E084839583A683B78385E128
:101D500091E09183808385EC90E09587848784EC83
:101D600090E09787868780EC90E0918B808B81EC68
:101D700090E0938B828B82EC90E0958B848B86EC49
:101D800090E0978B868B118E128E138E148EEBE85B
:101D9000F3E01382128287E291E09183808389E0ED
:101DA00084838FEF858387E0868388E087838CE058
:101DB00080878AE081878BE0828713861486158668
:101DC0001686178681E00E94E70A85E893E00E9464
:101DD000AE098FE793E00E94AE0989E793E00C9487
:101DE000AE092F923F924F925F926F927F928F92A5
:101DF0009F92AF92BF92CF92DF92EF92FF920F939A
:101E00001F93CF93DF93CDB7DEB7CA1BDB0B0FB6A3
:101E1000F894DEBF0FBECDBF09942A883988488860
:101E20005F846E847D848C849B84AA84B984C884F6
:101E3000DF80EE80FD800C811B81AA81B981CE0FED
:101E4000D11D0FB6F894DEBF0FBECDBFED010895D2
:101E500097FB072E16F4009407D077FD09D00E9457
:101E60005E0F07FC05D03EF4909581959F4F089535
:101E7000709561957F4F0895A1E21A2EAA1BBB1B96
:101E8000FD010DC0AA1FBB1FEE1FFF1FA217B30746
:101E9000E407F50720F0A21BB30BE40BF50B661F5C
:101EA000771F881F991F1A9469F760957095809520
:101EB00090959B01AC01BD01CF010895AA1BBB1BEE
:101EC00051E107C0AA1FBB1FA617B70710F0A61B3A
:101ED000B70B881F991F5A95A9F780959095BC015B
:101EE000CD010895EE0FFF1F0590F491E02D0994A8
:101EF0000F931F93CF93DF938230910510F482E00C
:101F000090E0E091AE03F091AF0320E030E0A0E07C
:101F1000B0E0309719F14081518102811381481757
:101F20005907C8F08417950769F4109731F0129695
:101F30000C93129713961C9327C00093AE03109333
:101F4000AF0322C02115310519F04217530718F4C9
:101F50009A01BD01EF01DF01F801DBCF2115310549
:101F6000F9F0281B390B2430310580F48A819B81DC
:101F70006115710521F0FB019383828304C0909366
:101F8000AF038093AE03FE01329644C0FE01E20F20
:101F9000F31F8193919322503109398328833AC0EA
:101FA0002091AC033091AD03232B41F420910B0120
:101FB00030910C013093AD032093AC0320910901C3
:101FC00030910A012115310541F42DB73EB74091FA
:101FD0000D0150910E01241B350BE091AC03F091E3
:101FE000AD03E217F307A0F42E1B3F0B28173907A8
:101FF00078F0AC014E5F5F4F2417350748F04E0F65
:102000005F1F5093AD034093AC038193919302C043
:10201000E0E0F0E0CF01DF91CF911F910F910895A3
:10202000CF93DF93009709F481C0FC0132971382AC
:102030001282A091AE03B091AF03109781F420817A
:102040003181820F931F2091AC033091AD0328178B
:10205000390751F5F093AD03E093AC0367C0ED0190
:1020600020E030E0CE17DF0740F44A815B819E011B
:1020700041155105F1F0EA01F5CFD383C2834081C8
:102080005181840F951FC817D90759F48881998108
:10209000840F951F0296918380838A819B8193830D
:1020A00082832115310529F4F093AF03E093AE0349
:1020B0003DC0E901FB83EA8349915991C40FD51FC3
:1020C000EC17FD0761F480819181840F951F0296C2
:1020D000E90199838883828193819B838A83E0E0ED
:1020E000F0E012968D919C911397009719F0FD01E5
:1020F000DC01F7CF8D919C9111979D012E5F3F4F91
:10210000820F931F2091AC033091AD03281739073C
:1021100069F4309729F41092AF031092AE0302C015
:1021200013821282B093AD03A093AC03DF91CF91E1
:102130000895A0E0B0E0EFE9F0E10C94F50EEC01B9
:10214000009721F4CB010E94780FB4C0FC01E60F88
:10215000F71F9C0122503109E217F30708F4A8C0C9
:10216000D9010D911C91119706171707B0F0053092
:10217000110508F49BC0C80104978617970708F457
:1021800095C002501109061B170B019311936D9313
:102190007C93CF010E94101089C05B01A01AB10A84
:1021A0004C01800E911EA091AE03B091AF03612C43
:1021B000712CE12CF12C109709F446C08D919C9163
:1021C0001197A815B905B1F56C0142E0C40ED11CF8
:1021D000CA14DB0478F14C018A189B08640142E0C0
:1021E000C40ED11C1296BC9012971396AC91B5E018
:1021F000CB16D10440F0B282A38391828082D901B0
:102200006D937C9309C00E5F1F4F800F911FF901E2
:1022100091838083EB2DFA2FE114F10431F0D70183
:102220001396FC93EE93129741C0F093AF03E093A3
:10223000AE033CC06816790608F43C017D01129695
:102240000D90BC91A02DB7CF8091AC039091AD03C0
:1022500088169906E1F466167706C8F4809109019C
:1022600090910A01009741F48DB79EB740910D01FE
:1022700050910E01841B950BE817F907C8F4F093F1
:10228000AD03E093AC03F901718360830FC0CB0110
:102290000E94780F7C01009759F0A801BE010E94AE
:1022A0006411CE010E941010C70104C0CE0102C00B
:1022B00080E090E0CDB7DEB7EEE00C94110F81E046
:1022C00090E0F8940C947D11FB01DC0102C00190B8
:1022D0000D9241505040D8F70895FB01DC018D91DB
:1022E000019080190110D9F3990B0895FB01DC01CD
:1022F00001900D920020E1F7089510E0C2E6D0E0D1
:1023000004C0FE010E94720F2196C336D107C9F79F
:04231000F894FFCF6F
:10231400282C01060A060A01010000B0038000040B
:10232400020000000020018D00B7006D01E800C626
:1023340000DA0000000000BF088D0099011F096346
:10234400006400650070006600456E7669616E6425
:102354006F0020454D41204645532D526F77696EDD
:10236400672000202020436F6E656374616E646F84
:102374002E2E2E006100496E696369616E646F20C0
:10238400657374696D756C6163616F004672657124
:1023940075656E6369613A00487A004C61726775CD
:1023A40072612064652050756C736F3A006D730020
:1023B400436F7272656E7465457874656E73616F90
:1023C400006D4120284348205B312C325D290043B5
:1023D4006F7272656E74652041757820457874005B
:1023E4006D4120284348205B352C365D2900436F1E
:1023F4007272656E746520466C6578616F006D411C
:1024040020284348205B332C345D2900436F7272CB
:10241400656E746520417578466C6578006D412061
:10242400284348205B372C385D2900466C65782E9C
:10243400632F20417578696C6961723F004E616F4A
:10244400202020202020202020202020200053692C
:102454006D2C20434820372F38004578742E632F85
:1024640020417578696C6961723F0053696D2C2055
:10247400434820352F360053656C2E4D6F76696DB9
:10248400656E746F2873293A00457874656E7361BC
:102494006F20202020202020002020202020202009
:1024A4002020666C6578616F00457874656E736191
:1024B4006F2B666C6578616F002020202050726558
:1024C4007373696F6E65202020003C2D466C65781F
:1024D40020202020204578742D3E0046696D0000A0
:00000001FF
