:100000000C9463000C948B000C948B000C948B006C
:100010000C948B000C948B000C948B000C948B0034
:100020000C948B000C948B000C948B000C948B0024
:100030000C948B000C948B000C948B000C948B0014
:100040000C94A30D0C948B000C9422020C94FC01D4
:100050000C948B000C948B000C948B000C948B00F4
:100060000C948B000C948B000000000024002700EF
:100070002A0000000000250028002B0000000000DE
:1000800023002600290004040404040404040202DA
:100090000202020203030303030301020408102007
:1000A0004080010204081020010204081020000012
:1000B0000008000201000003040700000000000027
:1000C0000000F710DB1011241FBECFEFD8E0DEBF19
:1000D000CDBF23E0AAEDB2E001C01D92AD3DB20755
:1000E000E1F712E0A0E0B1E0EAEFF8E202C005902B
:1000F0000D92AA3DB107D9F710E0C2E6D0E004C0E6
:100100002197FE010E946512C136D107C9F70E94EE
:10011000890F0C9470140C940000CF92DF92EF9230
:10012000FF920F931F93CF93DF936C017A018B01A2
:10013000C0E0D0E0CE15DF0581F0D8016D918D01D2
:10014000D601ED91FC910190F081E02DC601099559
:10015000892B11F02196EECF7E01C701DF91CF915F
:100160001F910F91FF90EF90DF90CF900895FC01C9
:10017000538D448D252F30E0842F90E0821B930B0C
:10018000541710F0CF96089501970895FC01918DB2
:10019000828D981761F0828DDF01A80FB11D5D96E9
:1001A0008C91928D9F5F9F73928F90E008958FEF57
:1001B0009FEF0895FC01918D828D981731F0828D0B
:1001C000E80FF11D858D90E008958FEF9FEF089562
:1001D000FC01918D228D892F90E0805C9F4F821BC6
:1001E00091098F739927089585EE92E00E94E800A7
:1001F00021E0892B09F420E0822F0895FC01848DF1
:10020000DF01A80FB11DA35ABF4F2C91848D90E040
:1002100001968F739927848FA689B7892C93A0891B
:10022000B1898C91837080648C93938D848D9813A5
:1002300006C00288F389E02D80818F7D8083089538
:10024000EF92FF920F931F93CF93DF93EC0181E026
:10025000888F9B8D8C8D981305C0E889F9898081E2
:1002600085FD26C0F62E0B8D10E00F5F1F4F0F731C
:100270001127E02E8C8DE8120CC00FB607FCFACFC8
:10028000E889F989808185FFF5CFCE010E94FE00C3
:10029000F1CF8B8DFE01E80FF11DE35AFF4FF08285
:1002A0009FB7F8940B8FEA89FB89808180620AC02E
:1002B0009FB7F894EE89FF896083E889F989808186
:1002C0008370806480839FBF81E090E0DF91CF9155
:1002D0001F910F91FF90EF900895CF93DF93EC0162
:1002E000888D8823C9F0EA89FB89808185FD05C056
:1002F000A889B9898C9186FD0FC00FB607FCF5CF90
:10030000808185FFF2CFA889B9898C9185FFEDCFD7
:10031000CE010E94FE00E7CFDF91CF91089580E0EB
:1003200090E0892B29F00E94F40081110C940000C8
:10033000089580E090E0089581E08093E2021092B9
:1003400001010895CF93DF93EC0160E08E810E945C
:100350005D0C61E08E810E945D0C60E08E810E94E8
:100360005D0C8BE891E00197F1F7DF91CF91089553
:10037000CF93DF93382F292FE0E0F0E0CAE0D0E000
:10038000009731F0BE010E941B12CB013196F8CFCD
:10039000E330F10519F4832F922F10C0E901E23008
:1003A000F10531F0319771F480E090E00E94950EF4
:1003B00080E090E00E94950E8D2F9C2FDF91CF91D1
:1003C0000C94950EDF91CF9108950C94D611611580
:1003D000710579F0FB0101900020E9F73197AF0139
:1003E000461B570BDC01ED91FC910280F381E02D5F
:1003F000099480E090E008951F920F920FB60F923B
:1004000011242F933F934F935F936F937F938F9319
:100410009F93AF93BF93EF93FF9385EE92E00E947B
:10042000FE00FF91EF91BF91AF919F918F917F91CE
:100430006F915F914F913F912F910F900FBE0F9051
:100440001F9018951F920F920FB60F9211242F93A1
:100450008F939F93EF93FF93E091F502F091F60253
:100460008081E091FB02F091FC0282FD12C090813C
:100470008091FE028F5F8F732091FF02821751F0EF
:10048000E091FE02F0E0EB51FD4F958F8093FE026C
:1004900001C08081FF91EF919F918F912F910F90DB
:1004A0000FBE0F901F901895CF92DF92EF92FF92A0
:1004B0000F931F93CF93DF936C017C0187E0E80ECD
:1004C000F11CC0E0D0E0062F10E0B8010C2E02C0F5
:1004D000759567950A94E2F76170F70181917F0144
:1004E0000E945D0C2196C430D10579F7C601DF91D9
:1004F000CF911F910F91FF90EF90DF90CF900C94D0
:10050000A201CF92DF92EF92FF920F931F93CF93AE
:10051000DF93EC01F62E642F8C810E945D0C8D819F
:100520008F3F19F060E00E945D0C8F850F2D10E069
:1005300084FF25C06E0187E0C80ED11CE12CF12C90
:10054000B8010E2C02C0759567950A94E2F76170A8
:10055000F60181916F010E945D0CFFEFEF1AFF0A17
:1005600088E0E816F10461F7CE01DF91CF911F9189
:100570000F91FF90EF90DF90CF900C94A201B80103
:1005800084E0759567958A95E1F7CE010E94540243
:100590006F2DCE01DF91CF911F910F91FF90EF90C2
:1005A000DF90CF900C94540241E00E94810281E0E0
:1005B00090E008958091E102811103C01092E00261
:1005C00021C0833011F481E01BC08C3011F482E033
:1005D00017C08F3011F483E013C0833311F484E02B
:1005E0000FC08F3311F485E00BC08C3C11F486E012
:1005F00007C08F3C11F487E003C08F3F19F488E0F7
:100600008093E0026EE471E085EE92E00E94C90EF4
:1006100080919E0390919F030E94B80160E571E074
:1006200085EE92E00E94C90E80919C0390919D03FB
:100630000E94B80162E571E085EE92E00E94C90E69
:1006400080919A0390919B030E94B80163E772E046
:1006500085EE92E00E94C90E8091980390919903D3
:100660000E94B80164E571E085EE92E00E94C90E37
:1006700080919603909197030E94B80166E571E01E
:1006800085EE92E00E94C90E8091940390919503AB
:100690000E94B8016CE471E085EE92E00E94C90E00
:1006A0008091E002082E000C990B0E94B8010E9474
:1006B000C30B68E571E088EB93E00E94C90E60ED22
:1006C00077E080E090E00E94690D8CEB95E09093DC
:1006D000E4028093E30261E080E00E94B10B40916C
:1006E000E10250E060E070E022E088EB93E00E94DD
:1006F0004C0E61E08FE00E94B10B41E06091E0029E
:1007000088EB93E00E94810260919E0380E090E07C
:100710000E94E50160919C0381E090E00E94E50168
:1007200060919A0382E090E00E94E5016091980355
:1007300083E090E00E94E5018091960390919703F9
:100740006AE070E00E941B1284E090E00E94E501E4
:100750008091940390919503992765E070E00E9441
:100760001B1285E090E00C94E5010C94CE11FC0185
:1007700024813581FB01448155812417350721F5FA
:10078000FC0180819181FB0160817181009719F0EA
:1007900061157105A1F46115710549F0232BB1F0C4
:1007A000FB01808190E09195819591090AC00097A5
:1007B00069F0232B59F0FC01808190E002C00E9477
:1007C000601421E0892B19F020E001C021E081E0D4
:1007D000822708951F93CF93DF93CDB7DEB72C9771
:1007E0000FB6F894DEBF0FBECDBF61E671E082EBBD
:1007F00093E00E94ED0D62E771E08CEA93E00E94C5
:10080000ED0D62EB73E086EA93E00E94B703182FC8
:100810006CEA73E080EA93E00E94B703812BD9F081
:100820006CEA73E0CE0107960E94430E62EB73E020
:10083000CE0101960E94430EBE01695F7F4FCE013B
:1008400001960E94CB0BCE0101960E943E0ECE0176
:1008500007960E943E0E68EE73E080E090E00E94F2
:10086000690D85EE92E00E94E800892BD1F3CE015C
:1008700001960E94FC0BBE016F5F7F4F8EE893E0F4
:100880000E94040ECE0101960E943E0E80919203BA
:1008900090919303892B29F363E871E080918E0393
:1008A00090918F030E946014892BD9F686E694E01C
:1008B0009093E4028093E3022C960FB6F894DEBF87
:1008C0000FBECDBFDF91CF911F9108950F931F935E
:1008D000CF93DF93CDB7DEB72C970FB6F894DEBF7A
:1008E0000FBECDBF1092E1021092DB021092E00227
:1008F00065E871E082EB93E00E94ED0D62EB73E03E
:1009000086EA93E00E94B703182F6CEA73E080EA4E
:1009100093E00E94B703812BC9F0CE0107960E9495
:10092000EF0B62EB73E0CE0101960E94430EBE0115
:10093000695F7F4FCE0101960E94CB0BCE010196DD
:100940000E943E0ECE0107960E943E0E8091E0026C
:10095000082E000C990B9093DF028093DE0281E059
:100960008093DD0265EA72E082E893E00E94ED0D7B
:1009700062E873E0CE0107960E94430E68E873E0D8
:10098000CE0101960E94430E6091DD02062E000CFE
:10099000770B00E09E01295F3F4FAE014F5F5F4F35
:1009A0008091DE029091DF020E94CB0E8093E002E4
:1009B000CE0101960E943E0ECE0107960E943E0E89
:1009C0008091E002811103C083E08093E002809176
:1009D000E00284301CF081E08093E0028091E0022C
:1009E000813099F567E971E08CEA93E00E94ED0DA2
:1009F00062EB73E086EA93E00E94B703182F6CEA7B
:100A000073E080EA93E00E94B703812BD9F06CEA8F
:100A100073E0CE0107960E94430E66EA73E0CE01B2
:100A200001960E94430EBE01695F7F4FCE01019681
:100A30000E94CB0BCE0101960E943E0ECE0107967E
:100A40000E943E0E83E08093E1028091E0028230BA
:100A500099F567EA71E08CEA93E00E94ED0D62EB94
:100A600073E086EA93E00E94B703182F6CEA73E004
:100A700080EA93E00E94B703812BD9F06CEA73E01F
:100A8000CE0107960E94430E66EA73E0CE010196FE
:100A90000E94430EBE01695F7F4FCE0101960E9406
:100AA000CB0BCE0101960E943E0ECE0107960E940E
:100AB0003E0E8CE08093E1028091E002833099F554
:100AC00067EB71E08CEA93E00E94ED0D62EB73E05E
:100AD00086EA93E00E94B703182F6CEA73E080EA7D
:100AE00093E00E94B703812BD9F06CEA73E0CE014A
:100AF00007960E94430E66EA73E0CE0101960E94BB
:100B0000430EBE01695F7F4FCE0101960E94CB0B61
:100B1000CE0101960E943E0ECE0107960E943E0E27
:100B20008FE08093E10266E970E080E090E00E944F
:100B3000690D83E00E94340C892B99F48091E002C6
:100B4000823019F48BE798E002C08CE899E090932A
:100B5000E4028093E3026AEF70E080E090E00E949C
:100B6000690D2C960FB6F894DEBF0FBECDBFDF9196
:100B7000CF911F910F9108951F93CF93DF93CDB71E
:100B8000DEB72C970FB6F894DEBF0FBECDBF85EE53
:100B900092E00E94E800892B09F454C0CE0101962E
:100BA0000E94FC0BBE016F5F7F4F8EE893E00E94B6
:100BB000040ECE0101960E943E0E80919203909108
:100BC0009303892B09F43EC063E871E080918E03A2
:100BD00090918F030E946014892BA1F567EC71E05E
:100BE00082EB93E00E94ED0D62EB73E086EA93E006
:100BF0000E94B703182F6CEA73E080EA93E00E942A
:100C0000B703812BC9F0CE0107960E94EF0B62EB70
:100C100073E0CE0101960E94430EBE01695F7F4FD3
:100C2000CE0101960E94CB0BCE0101960E943E0E92
:100C3000CE0107960E943E0E8CE991E09093E4026B
:100C40008093E3022C960FB6F894DEBF0FBECDBFA3
:100C5000DF91CF911F9108950F93CF93DF93CDB77D
:100C6000DEB72C970FB6F894DEBF0FBECDBF6DED8B
:100C700071E088E893E00E94ED0D809194039091DB
:100C800095039093DF028093DE0285E08093DD027E
:100C900069EE71E082E893E00E94ED0D62E873E096
:100CA000CE0107960E94430E68E873E0CE010196DC
:100CB0000E94430E6091DD02062E000C770B01E0CE
:100CC0009E01295F3F4FAE014F5F5F4F8091DE0273
:100CD0009091DF020E94CB0E909395038093940332
:100CE000CE0101960E943E0ECE0107960E943E0E56
:100CF00083E00E94340C892B81F48AED92E090937A
:100D0000E4028093E30261E083E00E945D0C6AEFFD
:100D100070E080E090E00E94690D2C960FB6F89488
:100D2000DEBF0FBECDBFDF91CF910F9108950F931E
:100D3000CF93DF93CDB7DEB72C970FB6F894DEBF15
:100D40000FBECDBF6CEE71E088E893E00E94ED0D20
:100D500080919603909197039093DF028093DE0237
:100D60008AE08093DD026EEF71E082E893E00E94FA
:100D7000ED0D62E873E0CE0107960E94430E68E82D
:100D800073E0CE0101960E94430E6091DD02062EB3
:100D9000000C770B01E09E01295F3F4FAE014F5FD2
:100DA0005F4F8091DE029091DF020E94CB0E909304
:100DB000970380939603CE0101960E943E0ECE01CA
:100DC00007960E943E0E83E00E94340C892B81F42A
:100DD0008CE296E09093E4028093E30261E083E08A
:100DE0000E945D0C6AEF70E080E090E00E94690D67
:100DF0002C960FB6F894DEBF0FBECDBFDF91CF911A
:100E00000F9108950F931F93CF93DF93CDB7DEB764
:100E10002C970FB6F894DEBF0FBECDBF8091E102D4
:100E2000837009F452C012E083E00E94340C0197F1
:100E300009F041C068E072E088E893E00E94ED0D9F
:100E400080919E0390919F039093DF028093DE0236
:100E50001093DD0269E172E082E893E00E94ED0DFB
:100E600062E873E0CE0107960E94430E68E873E0E3
:100E7000CE0101960E94430E6091DD02062E000C09
:100E8000770B01E09E01295F3F4FAE014F5F5F4F3F
:100E90008091DE029091DF020E94CB0E90939F031F
:100EA00080939E03CE0101960E943E0ECE010796CE
:100EB0000E943E0EB9CF61E083E00E945D0C6AEFB4
:100EC00070E080E090E00E94690D8091E102807303
:100ED00009F452C012E083E00E94340C019709F03B
:100EE00041C067E272E088E893E00E94ED0D8091D6
:100EF0009A0390919B039093DF028093DE021093FC
:100F0000DD0268E372E082E893E00E94ED0D62E8A2
:100F100073E0CE0107960E94430E68E873E0CE01AD
:100F200001960E94430E6091DD02062E000C770BA5
:100F300001E09E01295F3F4FAE014F5F5F4F8091FF
:100F4000DE029091DF020E94CB0E90939B03809370
:100F50009A03CE0101960E943E0ECE0107960E9492
:100F60003E0EB9CF61E083E00E945D0C6AEF70E055
:100F700080E090E00E94690D8091E1028C7009F49C
:100F800052C012E083E00E94340C019709F041C086
:100F900066E472E088E893E00E94ED0D80919C0386
:100FA00090919D039093DF028093DE021093DD0207
:100FB00066E572E082E893E00E94ED0D62E873E07E
:100FC000CE0107960E94430E68E873E0CE010196B9
:100FD0000E94430E6091DD02062E000C770B01E0AB
:100FE0009E01295F3F4FAE014F5F5F4F8091DE0250
:100FF0009091DF020E94CB0E90939D0380939C03FF
:10100000CE0101960E943E0ECE0107960E943E0E32
:10101000B9CF61E083E00E945D0C6AEF70E080E090
:1010200090E00E94690D8091E102807C09F452C039
:1010300012E083E00E94340C019709F041C064E69D
:1010400072E088E893E00E94ED0D80919803909102
:1010500099039093DF028093DE021093DD0265E72F
:1010600072E082E893E00E94ED0D62E873E0CE0149
:1010700007960E94430E68E873E0CE0101960E9435
:10108000430E6091DD02062E000C770B01E09E01FD
:10109000295F3F4FAE014F5F5F4F8091DE0290911D
:1010A000DF020E94CB0E9093990380939803CE01A8
:1010B00001960E943E0ECE0107960E943E0EB9CFC9
:1010C00061E083E00E945D0C6AEF70E080E090E0F8
:1010D0000E94690D87E996E09093E4028093E30211
:1010E0002C960FB6F894DEBF0FBECDBFDF91CF9127
:1010F0001F910F9108950F931F93CF93DF93CDB757
:10110000DEB72C970FB6F894DEBF0FBECDBF63E8F5
:1011100072E082EB93E00E94ED0D62EB73E086EAF1
:1011200093E00E94B703182F6CEA73E080EA93E023
:101130000E94B703812BC9F0CE0107960E94EF0BE6
:1011400062EB73E0CE0101960E94430EBE01695F1F
:101150007F4FCE0101960E94CB0BCE0101960E94DB
:101160003E0ECE0107960E943E0E81E08093DD0286
:1011700065EA72E082E893E00E94ED0D8091DC0266
:1011800090E09093DF028093DE0262E873E0CE018C
:1011900007960E94430E68E873E0CE0101960E9414
:1011A000430E6091DD02062E000C770B00E09E01DD
:1011B000295F3F4FAE014F5F5F4F8091DE029091FC
:1011C000DF020E94CB0E9093DF028093DE02CE01FD
:1011D00001960E943E0ECE0107960E943E0E80911F
:1011E000DE029091DF02892BA1F51092DC0265E905
:1011F00072E08CEA93E00E94ED0D62EB73E086EA08
:1012000093E00E94B703182F6CEA73E080EA93E042
:101210000E94B703812BD9F06CEA73E0CE010796E8
:101220000E94430E66EA73E0CE0101960E94430ECF
:10123000BE01695F7F4FCE0101960E94CB0BCE01AC
:1012400001960E943E0ECE0107960E943E0E10921D
:10125000DB028091DE029091DF020197B1F581E01F
:101260008093DC0266EA72E08CEA93E00E94ED0D66
:1012700062EB73E086EA93E00E94B703182F6CEAF2
:1012800073E080EA93E00E94B703812BD9F06CEA07
:1012900073E0CE0107960E94430E66EA73E0CE012A
:1012A00001960E94430EBE01695F7F4FCE010196F9
:1012B0000E94CB0BCE0101960E943E0ECE010796F6
:1012C0000E943E0E80EC8093DB0283E00E94340C8F
:1012D000892BB9F49091E1028091DB02892B8093F4
:1012E000E10282E097E09093E4028093E30261E000
:1012F00083E00E945D0C6AEF70E080E090E00E9465
:10130000690D2C960FB6F894DEBF0FBECDBFDF91EE
:10131000CF911F910F9108950F931F93CF93DF9358
:10132000CDB7DEB72C970FB6F894DEBF0FBECDBF9A
:1013300067EB72E082EB93E00E94ED0D62EB73E0ED
:1013400086EA93E00E94B703182F6CEA73E080EA04
:1013500093E00E94B703812BC9F0CE0107960E944B
:10136000EF0B62EB73E0CE0101960E94430EBE01CB
:10137000695F7F4FCE0101960E94CB0BCE01019693
:101380000E943E0ECE0107960E943E0E81E08093A1
:10139000DD0265EA72E082E893E00E94ED0D809143
:1013A000DA0290E09093DF028093DE0262E873E05D
:1013B000CE0107960E94430E68E873E0CE010196C5
:1013C0000E94430E6091DD02062E000C770B00E0B8
:1013D0009E01295F3F4FAE014F5F5F4F8091DE025C
:1013E0009091DF020E94CB0E9093DF028093DE0289
:1013F000CE0101960E943E0ECE0107960E943E0E3F
:101400008091DE029091DF02892BA1F51092DA0221
:1014100065E972E08CEA93E00E94ED0D62EB73E007
:1014200086EA93E00E94B703182F6CEA73E080EA23
:1014300093E00E94B703812BD9F06CEA73E0CE01F0
:1014400007960E94430E66EA73E0CE0101960E9461
:10145000430EBE01695F7F4FCE0101960E94CB0B08
:10146000CE0101960E943E0ECE0107960E943E0ECE
:101470001092DB028091DE029091DF020197B1F5BC
:1014800081E08093DA0268EC72E08CEA93E00E94DB
:10149000ED0D62EB73E086EA93E00E94B703182F2C
:1014A0006CEA73E080EA93E00E94B703812BD9F0E5
:1014B0006CEA73E0CE0107960E94430E66EA73E081
:1014C000CE0101960E94430EBE01695F7F4FCE019F
:1014D00001960E94CB0BCE0101960E943E0ECE01DA
:1014E00007960E943E0E80E38093DB0283E00E9419
:1014F000340C892BD1F49091E1028091DB02892B8D
:101500008093E1028091E002813019F482E097E05B
:1015100002C08BE798E09093E4028093E3026AEFC5
:1015200070E080E090E00E94690D2C960FB6F89470
:10153000DEBF0FBECDBFDF91CF911F910F910895F8
:10154000833081F028F4813099F08230A1F0089541
:101550008730A9F08830B9F08430D1F480918000D0
:101560008F7D03C0809180008F77809380000895E5
:1015700084B58F7702C084B58F7D84BD0895809136
:10158000B0008F7703C08091B0008F7D8093B00052
:1015900008953FB7F8948091D5039091D603A09118
:1015A000D703B091D80326B5A89B05C02F3F19F0EB
:1015B0000196A11DB11D3FBFBA2FA92F982F8827D3
:1015C000820F911DA11DB11DBC01CD0142E0660F2E
:1015D000771F881F991F4A95D1F708952FB7F89460
:1015E0006091D1037091D2038091D3039091D40381
:1015F0002FBF08950895FC01448155816081718158
:1016000088EB93E00C948D000F931F930E94EE0AD9
:101610006093ED027093EE028093EF029093F002DC
:1016200085EE92E00E94C60097FF1FC00E94EE0A5E
:101630000091ED021091EE022091EF023091F00244
:10164000DC01CB01801B910BA20BB30B0091E902D3
:101650001091EA022091EB023091EC028017910781
:10166000A207B307E8F28FEF9FEF1F910F91089544
:1016700040E0682F88EB93E00C9481020E945214A2
:10168000CF93DF93EC0188819981009711F00E943C
:101690000313198218821D821C821B821A82DF9119
:1016A000CF9108950F931F93CF93DF93EC0188811F
:1016B0009981009729F02A813B812617370788F402
:1016C0008B016F5F7F4F0E948C13009761F09983AD
:1016D00088831B830A832C813D81232B11F4FC0119
:1016E000108281E001C080E0DF91CF911F910F91C6
:1016F0000895EF92FF920F931F93CF93DF93EC0126
:101700007B018A01BA010E94520B811104C0CE01F3
:101710000E94400B07C01D830C83B701888199810B
:101720000E946914CE01DF91CF911F910F91FF901C
:10173000EF900895CF93DF93EC01FB018617970795
:1017400061F0608171816115710529F044815581D5
:101750000E94790B02C00E94400BCE01DF91CF9115
:101760000895643008F063E09091CB03691710F09E
:101770006FEF690FE62FF0E0E854FC4F9489890F72
:1017800080680C94380B81E00E94380B8BE39FE15A
:101790000197F1F708950F931F93CF93DF938C0177
:1017A000EB010E94C30B60E080E00E94B10BC80116
:1017B0000E94FB0A61E080E00E94B10BCE010E9412
:1017C000FB0AB80186EA93E00E949A0BBE0180EA08
:1017D00093E0DF91CF911F910F910C949A0BFC0134
:1017E00011821082138212821582148240E050E02E
:1017F00065EA72E00C94790BEF92FF920F931F93BE
:10180000CF93DF9300D0CDB7DEB78C010E94EF0BF2
:101810000E94040B97FD1EC089831A82F801E480A0
:10182000F580FFEFEF1AFF0AB701C8010E94520BC3
:10183000882371F3F8012081318184819581BE0173
:101840006F5F7F4F820F931F0E946914F801F5822A
:10185000E482DECFC8010F900F90DF91CF911F91EE
:101860000F91FF90EF900895CF93DF93282F30E0F2
:10187000F901E255FF4F8491F901E656FF4FD491EB
:10188000F901EA57FF4FC491CC2391F081110E94D6
:10189000A00AEC2FF0E0EE0FFF1FE458FF4FA591D8
:1018A000B491EC91ED2381E090E021F480E002C05E
:1018B00080E090E0DF91CF9108951F93CF93DF9365
:1018C000282F30E0F901E255FF4F8491F901E656E7
:1018D000FF4FD491F901EA57FF4FC491CC23C1F0D7
:1018E000162F81110E94A00AEC2FF0E0EE0FFF1FCF
:1018F000EE58FF4FA591B4919FB7F894111104C011
:101900008C91D095D82302C0EC91DE2BDC939FBF45
:10191000DF91CF911F910895CF93DF9390E0FC0169
:10192000E656FF4F2491FC01EA57FF4F849188232C
:1019300061F190E0880F991FFC01E859FF4FC591B4
:10194000D491FC01EE58FF4FA591B491611109C0EB
:101950009FB7F8948881209582238883EC912E2369
:101960000BC0623061F49FB7F8948881322F3095B4
:1019700083238883EC912E2B2C939FBF06C08FB7B7
:10198000F894E8812E2B28838FBFDF91CF910895A3
:10199000CF93DF93823028F09091C70398609093A3
:1019A000C7038093CB031092CC0380E48093CD03D4
:1019B00080E18093CE0380E58093CF0361E0809146
:1019C000BC030E948C0C8091BD038F3F19F061E035
:1019D0000E948C0C61E08091BE030E948C0CC8EBCD
:1019E000D3E09E01285B33408091C70384FD03C090
:1019F00084E090E002C088E090E021962817390743
:101A00002CF461E08E810E948C0CEBCF8BE39DE087
:101A10000197F1F760E08091BC030E945D0C60E0EB
:101A20008091BE030E945D0C8091BD038F3F19F031
:101A300060E00E945D0C8091C70384FD20C063E0DC
:101A400088EB93E00E945402CBE4D6E4CE010197E8
:101A5000F1F763E088EB93E00E9454022197F1F7DD
:101A600063E088EB93E00E94540283E592E00197E3
:101A7000F1F762E088EB93E00E94540215C08062A7
:101A80000E94380B8BE496E40197F1F78091C7032D
:101A900080620E94380B83E592E00197F1F7809114
:101AA000C70380620E94380B8091C70380620E9446
:101AB000380B84E08093C8038CE00E94380B0E94AE
:101AC000C30B82E08093C90386E0DF91CF910C9431
:101AD000380B8F929F92AF92BF92CF92DF92EF928C
:101AE000FF926B017C010E94C90A4B015C01C11489
:101AF000D104E104F104F1F00E94C90ADC01CB0138
:101B000088199909AA09BB09883E9340A105B10526
:101B100070F321E0C21AD108E108F10888EE880EBE
:101B200083E0981EA11CB11CC114D104E104F1048E
:101B300019F7DDCFFF90EF90DF90CF90BF90AF907F
:101B40009F908F9008951F920F920FB60F921124BD
:101B50002F933F938F939F93AF93BF938091D10324
:101B60009091D203A091D303B091D4033091D003CC
:101B700023E0230F2D3720F40196A11DB11D05C0D0
:101B800026E8230F0296A11DB11D2093D003809358
:101B9000D1039093D203A093D303B093D403809145
:101BA000D5039091D603A091D703B091D8030196A5
:101BB000A11DB11D8093D5039093D603A093D703A5
:101BC000B093D803BF91AF919F918F913F912F9187
:101BD0000F900FBE0F901F901895CF93DF93EC01DD
:101BE0006115710559F0FB0101900020E9F731976B
:101BF000AF01461B570B0E94790B02C00E94400B9D
:101C0000CE01DF91CF9108950F931F93CF93DF9370
:101C10008C01EB01FC0180819181009739F0688192
:101C2000798161157105A1F40E940313888199815E
:101C3000F801918380838A819B81938382838C8145
:101C40009D8195838483198218821B821A820FC01A
:101C5000F801428153812C813D814217530720F3C3
:101C60000E9469148C819D81F801958384831D8273
:101C70001C82DF91CF911F910F910895FC0180810B
:101C800091810C940313FC01118210821382128241
:101C9000158214820C949A0B8F929F92AF92BF92EE
:101CA000EF92FF920F931F93CF93DF93CDB7DEB7E1
:101CB000A1970FB6F894DEBF0FBECDBF7C01FA012D
:101CC000CB0119A2223008F42AE08E010F5D1F4FCC
:101CD000822E912CA12CB12CBF01A50194010E9450
:101CE0002F12F901CA01015011096A3014F4605D24
:101CF00001C0695CD8016C93232B242B252B61F741
:101D0000B801C7010E94E701A1960FB6F894DEBFA3
:101D10000FBECDBFDF91CF911F910F91FF90EF903C
:101D2000BF90AF909F908F900895CF92DF92EF92E7
:101D3000FF92CF93DF936C01990FEE08FF08F7FE37
:101D40001BC06DE285EE92E00E942001EC01442769
:101D50005527BA014C195D096E097F092AE085EE05
:101D600092E00E944C0E8C0F9D1FDF91CF91FF904F
:101D7000EF90DF90CF9008952AE0B701A60185EE9D
:101D800092E0DF91CF91FF90EF90DF90CF900C9495
:101D90004C0E0C94E7014F925F926F927F928F925C
:101DA0009F92AF92BF92CF92DF92EF92FF920F93EA
:101DB000CF93DF93CDB7DEB768970FB6F894DEBF49
:101DC0000FBECDBF7C016B012A01390182E00E9468
:101DD000340C4C0184E00E94340C5C01002309F4B3
:101DE0005DC0B20182EB93E00E949A0B1C8A1B8AB1
:101DF0001E8A1D8A188E1F8A4AE0BE016F5F7F4FC0
:101E0000C7010E949911BE016F5F7F4FCE014396BB
:101E10000E94ED0DBE016D5E7F4F8CEA93E00E9443
:101E2000040ECE0143960E943E0E66EA73E082EBFA
:101E300093E00E94B703582E60EA73E08CEA93E0C7
:101E40000E94B703852951F16CEA73E0CE01019637
:101E50000E94430E62EB73E0CE0143960E94430E54
:101E6000BE016F5F7F4FCE0143960E94CB0BCE0128
:101E700043960E943E0ECE0101960E943E0E64EAF9
:101E800072E088EB93E00E94C90EC3010E94FB0A36
:101E900062EA72E088EB93E00E94C90E892871F42F
:101EA0000E94EE0A0E94EE0A0E94EE0AEC0CFD1C53
:101EB00064EF71E080E090E00E94690DAB2891F43E
:101EC0000E94EE0A0E94EE0A0E94EE0AEC18FD083B
:101ED000F7FE02C0E12CF12C64EF71E080E090E0AD
:101EE0000E94690DC70168960FB6F894DEBF0FBE59
:101EF000CDBFDF91CF910F91FF90EF90DF90CF900A
:101F0000BF90AF909F908F907F906F905F904F9019
:101F10000895789484B5826084BD84B5816084BD61
:101F200085B5826085BD85B5816085BD80916E0077
:101F3000816080936E0010928100809181008260A8
:101F400080938100809181008160809381008091E5
:101F500080008160809380008091B10084608093D4
:101F6000B1008091B00081608093B00080917A00D0
:101F7000846080937A0080917A00826080937A00F6
:101F800080917A00816080937A0080917A008068E5
:101F900080937A001092C10082E00E94C80CE09108
:101FA000F502F091F60282E08083E091F102F09177
:101FB000F2021082E091F302F091F4028FEC808340
:101FC0001092FD02E091F902F091FA0286E080831E
:101FD000E091F702F091F802808180618083E091C6
:101FE000F702F091F802808188608083E091F70227
:101FF000F091F802808180688083E091F702F0918F
:10200000F80280818F7D808385EE92E00E946D01D1
:1020100062E083E00E948C0C62E084E00E948C0C01
:1020200062E082E00E948C0C61E086E00E948C0CF1
:1020300061E085E00E948C0C61E08DE00E948C0CD8
:102040008AEE93E09093E4028093E30286E6C82E42
:1020500084E0D82E80910101882331F0E091E302E1
:10206000F091E4020995F6CFFF24F3948091E20207
:10207000882381F360E086E00E945D0C01E010E0BF
:1020800080910001882309F485C083E00E94340C0C
:10209000892B59F461E083E00E945D0C0330110547
:1020A00009F458C0C3E0D0E035C084E00E94340C8D
:1020B000892B99F461E084E00E945D0C0E94C30BBF
:1020C0006FE472E088EB93E00E94C90E61E08DE05E
:1020D0000E945D0CC2E0D0E01AC082E00E94340C85
:1020E000892B99F461E082E00E945D0C0E94C30B91
:1020F00060E172E088EB93E00E94C90E61E085E048
:102100000E945D0CC1E0D0E002C0C0E0D0E0C0178A
:10211000D107C1F1CE010E94950E0E94C30B68E267
:1021200071E088EB93E00E94C90E61E080E00E94BC
:10213000B10B69E371E088EB93E00E94C90E60E0A7
:102140008DE00E945D0C60E085E00E945D0CC33074
:10215000D105C1F483E090E00E94950E0E94C30B6C
:102160006AE471E088EB93E00E94C90E1092E202EB
:1021700010920001F0920101D092E402C092E302B9
:10218000C3E0D0E066E970E080E090E00E94690D75
:102190008E0176CF66E970E080E090E00E94690DE4
:1021A00061E086E00E945D0C66E970E080E090E00E
:1021B0000E94690D5BCF82E893E00E943E0E88E8A2
:1021C00093E00E943E0E8EE893E00E943E0E80EA6D
:1021D00093E00E943E0E86EA93E00E943E0E8CEA57
:1021E00093E00E943E0E82EB93E00C943E0EE5EEEF
:1021F000F2E01382128288EE93E0A0E0B0E08483E4
:102200009583A683B7838EE091E09183808385ECEC
:1022100090E09587848784EC90E09787868780ECB0
:1022200090E0918B808B81EC90E0938B828B82ECA1
:1022300090E0958B848B86EC90E0978B868B118E4B
:10224000128E138E148EE8EBF3E01382128280E27A
:1022500091E09183808389E084838FEF858387E099
:10226000868388E087838CE080878AE081878BE0A3
:1022700082871386148615861686178681E00E944B
:10228000C80C82EB93E00E94EF0B8CEA93E00E9473
:10229000EF0B86EA93E00E94EF0B80EA93E00E9446
:1022A000EF0B80E090E00E94B50390E090939F03D5
:1022B00080939E0381E090E00E94B50390E09093AC
:1022C0009D0380939C0382E090E00E94B50390E020
:1022D00090939B0380939A0383E090E00E94B50360
:1022E00090E0909399038093980384E090E00E949B
:1022F000B5032AE0829FC001112490939703809335
:10230000960385E090E00E94B50325E0829FC0011E
:10231000112490939503809394038EE893E00E9498
:10232000EF0B88E893E00E94EF0B82E893E00C94B7
:10233000EF0BBB274A3031F4992322F4BDE290958C
:1023400081959F4F0C94A511BB27FB015527AA2708
:10235000880F991FAA1FA41710F0A41B8395505132
:10236000B9F7A05DAA3308F0A95DA193009779F7AA
:10237000B111B1931192CB010C94BE11DC01FC019F
:10238000672F71917723E1F7329704C07C916D93A9
:1023900070836291AE17BF07C8F30895F999FECF15
:1023A00092BD81BDF89A992780B50895262FF99995
:1023B000FECF1FBA92BD81BD20BD0FB6F894FA9A28
:1023C000F99A0FBE019608952F923F924F925F9215
:1023D0006F927F928F929F92AF92BF92CF92DF9235
:1023E000EF92FF920F931F93CF93DF93CDB7DEB79A
:1023F000CA1BDB0B0FB6F894DEBF0FBECDBF09942E
:102400002A88398848885F846E847D848C849B8484
:10241000AA84B984C884DF80EE80FD800C811B8192
:10242000AA81B981CE0FD11D0FB6F894DEBF0FBEC1
:10243000CDBFED01089597FB072E16F4009407D049
:1024400077FD09D00E94511207FC05D03EF490950B
:1024500081959F4F0895709561957F4F0895A1E2F2
:102460001A2EAA1BBB1BFD010DC0AA1FBB1FEE1F0E
:10247000FF1FA217B307E407F50720F0A21BB30B59
:10248000E40BF50B661F771F881F991F1A9469F7D5
:1024900060957095809590959B01AC01BD01CF0131
:1024A0000895AA1BBB1B51E107C0AA1FBB1FA6179B
:1024B000B70710F0A61BB70B881F991F5A95A9F7ED
:1024C00080959095BC01CD010895EE0FFF1F0590FA
:1024D000F491E02D09940F931F93CF93DF938230F3
:1024E000910510F482E090E0E091DB03F091DC03D1
:1024F00020E030E0A0E0B0E0309719F14081518158
:102500000281138148175907C8F08417950769F4A9
:10251000109731F012960C93129713961C9327C0C4
:102520000093DB031093DC0322C02115310519F061
:102530004217530718F49A01BD01EF01DF01F801BA
:10254000DBCF21153105F9F0281B390B243031057B
:1025500080F48A819B816115710521F0FB019383D1
:10256000828304C09093DC038093DB03FE013296E8
:1025700044C0FE01E20FF31F819391932250310971
:10258000398328833AC02091D9033091DA03232B71
:1025900041F420910401309105013093DA03209336
:1025A000D90320910201309103012115310541F435
:1025B0002DB73EB74091060150910701241B350B02
:1025C000E091D903F091DA03E217F307A0F42E1B90
:1025D0003F0B2817390778F0AC014E5F5F4F241787
:1025E000350748F04E0F5F1F5093DA034093D9032D
:1025F0008193919302C0E0E0F0E0CF01DF91CF91B1
:102600001F910F910895CF93DF93009709F481C034
:10261000FC01329713821282A091DB03B091DC039C
:10262000109781F420813181820F931F2091D9036B
:102630003091DA032817390751F5F093DA03E09364
:10264000D90367C0ED0120E030E0CE17DF0740F48A
:102650004A815B819E0141155105F1F0EA01F5CFF8
:10266000D383C28340815181840F951FC817D90736
:1026700059F488819981840F951F029691838083F4
:102680008A819B81938382832115310529F4F093FC
:10269000DC03E093DB033DC0E901FB83EA8349915E
:1026A0005991C40FD51FEC17FD0761F4808191810A
:1026B000840F951F0296E901998388838281938113
:1026C0009B838A83E0E0F0E012968D919C911397B2
:1026D000009719F0FD01DC01F7CF8D919C911197C6
:1026E0009D012E5F3F4F820F931F2091D9033091A0
:1026F000DA032817390769F4309729F41092DC03BC
:102700001092DB0302C013821282B093DA03A0930B
:10271000D903DF91CF910895A0E0B0E0E2E9F3E1C1
:102720000C94E811EC01009721F4CB010E946B128C
:10273000B4C0FC01E60FF71F9C0122503109E217DB
:10274000F30708F4A8C0D9010D911C911197061741
:102750001707B0F00530110508F49BC0C8010497B5
:102760008617970708F495C002501109061B170B2E
:10277000019311936D937C93CF010E94031389C041
:102780005B01A01AB10A4C01800E911EA091DB03DF
:10279000B091DC03612C712CE12CF12C109709F421
:1027A00046C08D919C911197A815B905B1F56C01A2
:1027B00042E0C40ED11CCA14DB0478F14C018A1823
:1027C0009B08640142E0C40ED11C1296BC90129783
:1027D0001396AC91B5E0CB16D10440F0B282A3833E
:1027E00091828082D9016D937C9309C00E5F1F4F47
:1027F000800F911FF90191838083EB2DFA2FE11453
:10280000F10431F0D7011396FC93EE93129741C077
:10281000F093DC03E093DB033CC06816790608F410
:102820003C017D0112960D90BC91A02DB7CF8091F7
:10283000D9039091DA0388169906E1F466167706B3
:10284000C8F48091020190910301009741F48DB783
:102850009EB74091060150910701841B950BE81724
:10286000F907C8F4F093DA03E093D903F90171830F
:1028700060830FC0CB010E946B127C01009759F05E
:10288000A801BE010E945714CE010E940313C70184
:1028900004C0CE0102C080E090E0CDB7DEB7EEE02C
:1028A0000C94041281E090E0F8940C947014FB01F5
:1028B000DC0102C001900D9241505040D8F70895BC
:1028C000FB01DC018D91019080190110D9F3990B66
:1028D0000895FB01DC0101900D920020E1F70895BD
:1028E00010E0C2E6D0E004C0FE010E94651221960D
:0A28F000C336D107C9F7F894FFCFF3
:1028FA0001010000DD038000040200000000200145
:10290A008D00B7006D01E800C600DA000000000083
:10291A00D4028D009901FA0A202020205072657392
:10292A0073696F6E65202020003C2D466C65782007
:10293A00202020204578742D3E0046696D006300F2
:10294A006400650070006600456E7669616E646FAA
:10295A0000202020436F6E656374616E646F2E2EB3
:10296A002E0020454D41204645532D526F77696E02
:10297A00672000610053656C2E4D6F76696D656E38
:10298A00746F2873293A00457874656E73616F20F5
:10299A00202020202020002020202020202020204D
:1029AA00666C6578616F00457874656E73616F2B2C
:1029BA00666C6578616F00496E696369616E646F00
:1029CA0020657374696D756C6163616F0046726529
:1029DA007175656E6369613A00487A004C61726785
:1029EA007572612064652050756C736F3A006D6969
:1029FA0063726F2073656700436F7272656E7465E8
:102A0A00457874656E73616F006D412028434820D4
:102A1A005B312C325D2900436F7272656E746520DA
:102A2A0041757820457874006D4120284348205B21
:102A3A00352C365D2900436F7272656E74652046C7
:102A4A006C6578616F006D4120284348205B332C08
:102A5A00345D2900436F7272656E74652041757822
:102A6A00466C6578006D4120284348205B372C3836
:102A7A005D2900466C65782E632F20417578696C54
:102A8A006961723F004E616F2020202020202020A3
:102A9A0020202020200053696D2C20434820372F06
:102AAA00382020202020004578742E632F2041757D
:102ABA0078696C6961723F0053696D2C2043482024
:0A2ACA00352F3620202020200000C8
:00000001FF
