:100000000C9463000C948B000C948B000C948B006C
:100010000C948B000C948B000C948B000C948B0034
:100020000C948B000C948B000C948B000C948B0024
:100030000C948B000C948B000C948B000C948B0014
:100040000C94000D0C948B000C94F1020C94CB02D8
:100050000C948B000C948B000C948B000C948B00F4
:100060000C948B000C948B000000000024002700EF
:100070002A0000000000250028002B0000000000DE
:1000800023002600290004040404040404040202DA
:100090000202020203030303030301020408102007
:1000A0004080010204081020010204081020000012
:1000B0000008000201000003040700000000000027
:1000C000000059103D1011241FBECFEFD8E0DEBF55
:1000D000CDBF23E0A8ECB2E001C01D92AD3CB20759
:1000E000E1F712E0A0E0B1E0EEEBF7E202C005902C
:1000F0000D92A83CB107D9F710E0C2E6D0E004C0E9
:100100002197FE010E94C711C136D107C9F70E948D
:10011000E60E0C94D2130C940000CF92DF92EF9273
:10012000FF920F931F93CF93DF936C017A018B01A2
:10013000C0E0D0E0CE15DF0581F0D8016D918D01D2
:10014000D601ED91FC910190F081E02DC601099559
:10015000892B11F02196EECF7E01C701DF91CF915F
:100160001F910F91FF90EF90DF90CF900895FC01C9
:10017000538D448D252F30E0842F90E0821B930B0C
:10018000541710F0CF96089501970895FC01918DB2
:10019000828D981761F0828DDF01A80FB11D5D96E9
:1001A0008C91928D9F5F9F73928F90E008958FEF57
:1001B0009FEF0895FC01918D828D981731F0828D0B
:1001C000E80FF11D858D90E008958FEF9FEF089562
:1001D000FC01918D228D892F90E0805C9F4F821BC6
:1001E00091098F739927089585ED92E00E94E800A8
:1001F00021E0892B09F420E0822F0895FC01848DF1
:10020000DF01A80FB11DA35ABF4F2C91848D90E040
:1002100001968F739927848FA689B7892C93A0891B
:10022000B1898C91837080648C93938D848D9813A5
:1002300006C00288F389E02D80818F7D8083089538
:10024000EF92FF920F931F93CF93DF93EC0181E026
:10025000888F9B8D8C8D981305C0E889F9898081E2
:1002600085FD26C0F62E0B8D10E00F5F1F4F0F731C
:100270001127E02E8C8DE8120CC00FB607FCFACFC8
:10028000E889F989808185FFF5CFCE010E94FE00C3
:10029000F1CF8B8DFE01E80FF11DE35AFF4FF08285
:1002A0009FB7F8940B8FEA89FB89808180620AC02E
:1002B0009FB7F894EE89FF896083E889F989808186
:1002C0008370806480839FBF81E090E0DF91CF9155
:1002D0001F910F91FF90EF900895CF93DF93EC0162
:1002E000888D8823C9F0EA89FB89808185FD05C056
:1002F000A889B9898C9186FD0FC00FB607FCF5CF90
:10030000808185FFF2CFA889B9898C9185FFEDCFD7
:10031000CE010E94FE00E7CFDF91CF91089580E0EB
:1003200090E0892B29F00E94F40081110C940000C8
:10033000089580E090E0089581E08093D2021092C9
:1003400001010895CF93DF93EC0160E08E810E945C
:10035000BA0B61E08E810E94BA0B60E08E810E9430
:10036000BA0B8BE891E00197F1F7DF91CF910895F7
:10037000CF93DF93382F292FE0E0F0E0CAE0D0E000
:10038000009731F0BE010E947D11CB013196F8CF6C
:10039000E330F10519F4832F922F10C0E901E23008
:1003A000F10531F0319771F480E090E00E94F20D98
:1003B00080E090E00E94F20D8D2F9C2FDF91CF9175
:1003C0000C94F20DDF91CF9108950C943811809127
:1003D000D102811103C01092CF0221C0833011F4E9
:1003E00081E01BC08C3011F482E017C08F3011F413
:1003F00083E013C0833311F484E00FC08F3311F412
:1004000085E00BC08C3C11F486E007C08F3C11F4F2
:1004100087E003C08F3F19F488E08093CF0268E241
:1004200071E085ED92E00E94260E8091A6039091E6
:10043000A7030E94B8016AE271E085ED92E00E9494
:10044000260E8091A4039091A5030E94B8016CE24E
:1004500071E085ED92E00E94260E8091A2039091BA
:10046000A3030E94B80163E772E085ED92E00E9469
:10047000260E8091A0039091A1030E94B8016EE224
:1004800071E085ED92E00E94260E80919C03909190
:100490009D030E94B80160E371E085ED92E00E9447
:1004A000260E80919E0390919F030E94B8016FE5F4
:1004B00071E085ED92E00E94260E8091CF02082E19
:1004C000000C990B0E94B8010E94220B62E371E0BC
:1004D00088EA93E00E94260E60ED77E080E090E0ED
:1004E0000E94C60C8AEA95E09093D4028093D302CE
:1004F00081E00E94110B4091D10250E060E070E079
:1005000022E088EA93E00E94A90D6091A60380E0B2
:1005100090E00E94E5016091A40381E090E00E94D8
:10052000E5016091A20382E090E00E94E501609104
:10053000A00383E090E00E94E50180919C039091EC
:100540009D036AE070E00E947D1184E090E00E94CB
:10055000E50180919E0390919F03992765E070E0EB
:100560000E947D1185E090E00C94E5016115710514
:1005700079F0FB0101900020E9F73197AF01461BAC
:10058000570BDC01ED91FC910280F381E02D099481
:1005900080E090E008951F920F920FB60F92112401
:1005A0002F933F934F935F936F937F938F939F937B
:1005B000AF93BF93EF93FF9385ED92E00E94FE000F
:1005C000FF91EF91BF91AF919F918F917F916F912B
:1005D0005F914F913F912F910F900FBE0F901F9001
:1005E00018951F920F920FB60F9211242F938F938D
:1005F0009F93EF93FF93E091E502F091E6028081F3
:10060000E091EB02F091EC0282FD12C090818091AA
:10061000EE028F5F8F732091EF02821751F0E0910D
:10062000EE02F0E0EB52FD4F958F8093EE0201C099
:100630008081FF91EF919F918F912F910F900FBE2D
:100640000F901F901895CF92DF92EF92FF920F9329
:100650001F93CF93DF936C017C0187E0E80EF11CC0
:10066000C0E0D0E0062F10E0B8010C2E02C0759556
:1006700067950A94E2F76170F70181917F010E940A
:10068000BA0B2196C430D10579F7C601DF91CF911D
:100690001F910F91FF90EF90DF90CF900C94A201EB
:1006A000CF92DF92EF92FF920F931F93CF93DF933E
:1006B000EC01F62E642F8C810E94BA0B8D818F3F46
:1006C00019F060E00E94BA0B8F850F2D10E084FFB7
:1006D00025C06E0187E0C80ED11CE12CF12CB801B9
:1006E0000E2C02C0759567950A94E2F76170F601C9
:1006F00081916F010E94BA0BFFEFEF1AFF0A88E0A9
:10070000E816F10461F7CE01DF91CF911F910F91AF
:10071000FF90EF90DF90CF900C94A201B80184E09D
:10072000759567958A95E1F7CE010E9423036F2D99
:10073000CE01DF91CF911F910F91FF90EF90DF904D
:10074000CF900C94230341E00E94500381E090E09D
:1007500008950C943011FC0124813581FB01448102
:1007600055812417350721F5FC0180819181FB011A
:1007700060817181009719F061157105A1F461150F
:10078000710549F0232BB1F0FB01808190E0919538
:10079000819591090AC0009769F0232B59F0FC015B
:1007A000808190E002C00E94C21321E0892B19F0E1
:1007B00020E001C021E081E0822708951F93CF93BC
:1007C000DF93CDB7DEB72C970FB6F894DEBF0FBE20
:1007D000CDBF61E671E080E993E00E944A0D62E7D7
:1007E00071E08AE893E00E944A0D60E973E084E8D2
:1007F00093E00E94AB03182F6AE873E08EE793E062
:100800000E94AB03812BD9F06AE873E0CE01079612
:100810000E94A00D60E973E0CE0101960E94A00D38
:10082000BE01695F7F4FCE0101960E942A0BCE0167
:1008300001960E949B0DCE0107960E949B0D68EECB
:1008400073E080E090E00E94C60C85ED92E00E948B
:10085000E800892BD1F3CE0101960E94590BBE010D
:100860006F5F7F4F86E993E00E94610DCE01019694
:100870000E949B0D80919A0390919B03892B29F3F1
:1008800063E871E080919603909197030E94C213F0
:10089000892BD9F68AE594E09093D4028093D30211
:1008A0002C960FB6F894DEBF0FBECDBFDF91CF916F
:1008B0001F9108950F931F93CF93DF93CDB7DEB7AA
:1008C0002C970FB6F894DEBF0FBECDBF65E871E080
:1008D00080E993E00E944A0D60E973E084E893E0C8
:1008E0000E94AB03182F6AE873E08EE793E00E9442
:1008F000AB03812BC9F0CE0107960E944C0B60E937
:1009000073E0CE0101960E94A00DBE01695F7F4F8A
:10091000CE0101960E942A0BCE0101960E949B0DEA
:10092000CE0107960E949B0D8091CF02082E000CED
:10093000990B9093CE028093CD0281E08093CC02FC
:1009400063E972E082E793E00E944A0D62E773E098
:10095000CE0107960E94A00D68E773E0CE010196D4
:100960000E94A00D6091CC02062E000C770B00E0D7
:100970009E01295F3F4FAE014F5F5F4F8091CD02D7
:100980009091CE020E94280E8093CF02CE01019654
:100990000E949B0DCE0107960E949B0D8091CF0275
:1009A000811103C083E08093CF028091CF02843015
:1009B0001CF081E08093CF028091CF02813099F5C5
:1009C00067E971E08AE893E00E944A0D60E973E00C
:1009D00084E893E00E94AB03182F6AE873E08EE787
:1009E00093E00E94AB03812BD9F06AE873E0CE015B
:1009F00007960E94A00D64E873E0CE0101960E9464
:100A0000A00DBE01695F7F4FCE0101960E942A0BA7
:100A1000CE0101960E949B0DCE0107960E949B0D70
:100A200083E08093D1028091CF02823099F567EA0A
:100A300071E08AE893E00E944A0D60E973E084E87F
:100A400093E00E94AB03182F6AE873E08EE793E00F
:100A50000E94AB03812BD9F06AE873E0CE010796C0
:100A60000E94A00D64E873E0CE0101960E94A00DE3
:100A7000BE01695F7F4FCE0101960E942A0BCE0115
:100A800001960E949B0DCE0107960E949B0D8CE063
:100A90008093D1028091CF02833099F567EB71E0AA
:100AA0008AE893E00E944A0D60E973E084E893E0ED
:100AB0000E94AB03182F6AE873E08EE793E00E9470
:100AC000AB03812BD9F06AE873E0CE0107960E9450
:100AD000A00D64E873E0CE0101960E94A00DBE0156
:100AE000695F7F4FCE0101960E942A0BCE010196CD
:100AF0000E949B0DCE0107960E949B0D8FE0809374
:100B0000D10266E970E080E090E00E94C60C83E0CC
:100B10000E94910B892B99F48091CF02823019F4B5
:100B200089E698E002C083E399E09093D402809331
:100B3000D3026AEF70E080E090E00E94C60C2C9631
:100B40000FB6F894DEBF0FBECDBFDF91CF911F91DE
:100B50000F9108951F93CF93DF93CDB7DEB72C97F6
:100B60000FB6F894DEBF0FBECDBF85ED92E00E94B8
:100B7000E800892B09F454C0CE0101960E94590B5C
:100B8000BE016F5F7F4F86E993E00E94610DCE0149
:100B900001960E949B0D80919A0390919B03892B53
:100BA00009F43EC063E871E0809196039091970349
:100BB0000E94C213892BA1F567EC71E080E993E0F4
:100BC0000E944A0D60E973E084E893E00E94AB0361
:100BD000182F6AE873E08EE793E00E94AB03812B45
:100BE000C9F0CE0107960E944C0B60E973E0CE017C
:100BF00001960E94A00DBE01695F7F4FCE01019654
:100C00000E942A0BCE0101960E949B0DCE010796F1
:100C10000E949B0D8CE991E09093D4028093D302C3
:100C20002C960FB6F894DEBF0FBECDBFDF91CF91EB
:100C30001F9108950F93CF93DF93CDB7DEB72C9715
:100C40000FB6F894DEBF0FBECDBF6DED71E088E743
:100C500093E00E944A0D80919E0390919F03909390
:100C6000CE028093CD0285E08093CC0269EE71E0E4
:100C700082E793E00E944A0D62E773E0CE01079697
:100C80000E94A00D68E773E0CE0101960E94A00DBE
:100C90006091CC02062E000C770B01E09E01295FCB
:100CA0003F4FAE014F5F5F4F8091CD029091CE02DA
:100CB0000E94280E90939F0380939E03CE0101967D
:100CC0000E949B0DCE0107960E949B0D83E00E941F
:100CD000910B892B81F487EE91E09093D40280935D
:100CE000D30261E083E00E94BA0B6AEF70E080E01B
:100CF00090E00E94C60C2C960FB6F894DEBF0FBE93
:100D0000CDBFDF91CF910F9108950F93CF93DF93D4
:100D1000CDB7DEB72C970FB6F894DEBF0FBECDBFB0
:100D20006CEE71E088E793E00E944A0D80919C038D
:100D300090919D039093CE028093CD028AE08093A0
:100D4000CC026EEF71E082E793E00E944A0D62E709
:100D500073E0CE0107960E94A00D68E773E0CE0114
:100D600001960E94A00D6091CC02062E000C770B1C
:100D700001E09E01295F3F4FAE014F5F5F4F8091C1
:100D8000CD029091CE020E94280E90939D038093F5
:100D90009C03CE0101960E949B0DCE0107960E94F6
:100DA0009B0D83E00E94910B892B81F48AE196E0F0
:100DB0009093D4028093D30261E083E00E94BA0B47
:100DC0006AEF70E080E090E00E94C60C2C960FB6AF
:100DD000F894DEBF0FBECDBFDF91CF910F91089584
:100DE0000F931F93CF93DF93CDB7DEB72C970FB63A
:100DF000F894DEBF0FBECDBF8091D102837009F49D
:100E000052C012E083E00E94910B019709F041C0AB
:100E100068E072E088E793E00E944A0D8091A603A3
:100E20009091A7039093CE028093CD021093CC02B1
:100E300069E172E082E793E00E944A0D62E773E0A5
:100E4000CE0107960E94A00D68E773E0CE010196DF
:100E50000E94A00D6091CC02062E000C770B01E0E1
:100E60009E01295F3F4FAE014F5F5F4F8091CD02E2
:100E70009091CE020E94280E9093A7038093A60320
:100E8000CE0101960E949B0DCE0107960E949B0DFC
:100E9000B9CF61E083E00E94BA0B6AEF70E080E0B6
:100EA00090E00E94C60C8091D102807309F452C078
:100EB00012E083E00E94910B019709F041C067E2C4
:100EC00072E088E793E00E944A0D8091A20390911E
:100ED000A3039093CE028093CD021093CC0268E3DB
:100EE00072E082E793E00E944A0D62E773E0CE0170
:100EF00007960E94A00D68E773E0CE0101960E945C
:100F0000A00D6091CC02062E000C770B01E09E0133
:100F1000295F3F4FAE014F5F5F4F8091CD029091AF
:100F2000CE020E94280E9093A3038093A203CE01C9
:100F300001960E949B0DCE0107960E949B0DB9CF92
:100F400061E083E00E94BA0B6AEF70E080E090E01D
:100F50000E94C60C8091D1028C7009F452C012E03C
:100F600083E00E94910B019709F041C066E472E0B2
:100F700088E793E00E944A0D8091A4039091A50315
:100F80009093CE028093CD021093CC0266E572E07E
:100F900082E793E00E944A0D62E773E0CE01079674
:100FA0000E94A00D68E773E0CE0101960E94A00D9B
:100FB0006091CC02062E000C770B01E09E01295FA8
:100FC0003F4FAE014F5F5F4F8091CD029091CE02B7
:100FD0000E94280E9093A5038093A403CE0101964E
:100FE0000E949B0DCE0107960E949B0DB9CF61E038
:100FF00083E00E94BA0B6AEF70E080E090E00E940C
:10100000C60C8091D102807C09F452C012E083E0CA
:101010000E94910B019709F041C064E672E088E7F5
:1010200093E00E944A0D8091A0039091A1039093B8
:10103000CE028093CD021093CC0265E772E082E786
:1010400093E00E944A0D62E773E0CE0107960E948A
:10105000A00D68E773E0CE0101960E94A00D60919B
:10106000CC02062E000C770B01E09E01295F3F4F5A
:10107000AE014F5F5F4F8091CD029091CE020E94F2
:10108000280E9093A1038093A003CE0101960E94A5
:101090009B0DCE0107960E949B0DB9CF61E083E0C6
:1010A0000E94BA0B6AEF70E080E090E00E94C60CEC
:1010B00085E896E09093D4028093D3022C960FB6E5
:1010C000F894DEBF0FBECDBFDF91CF911F910F917E
:1010D00008950F931F93CF93DF93CDB7DEB72C976F
:1010E0000FB6F894DEBF0FBECDBF11E01093CC0257
:1010F00063E972E082E793E00E944A0D8091CB029F
:1011000090E080589F4F9093CE028093CD029093B1
:10111000CA028093C90262E773E0CE0107960E947B
:10112000A00D68E773E0CE0101960E94A00D6091CA
:10113000CC02062E000C770B00E09E01295F3F4F8A
:10114000AE014F5F5F4F8091CD029091CE020E9421
:10115000280E9093CE028093CD02CE0101960E947C
:101160009B0DCE0107960E949B0D2091CD023091E0
:10117000CE028091C9029091CA022817390729F03E
:101180008091CB0218271093CB028091CB02811162
:1011900055C063E872E08AE893E00E944A0D10921D
:1011A000D00264E972E080E993E00E944A0D60E9B0
:1011B00073E084E893E00E94AB03182F6AE873E0C1
:1011C0008EE793E00E94AB03812BD9F06AE873E0CD
:1011D000CE0107960E94A00D60E973E0CE01019652
:1011E0000E94A00DBE01695F7F4FCE0101960E9453
:1011F0002A0BCE0101960E949B0DCE0107960E94FC
:101200009B0D83E00E94910B892B11F59091D102E7
:101210008091D002892B8093D10280EF96E0909349
:10122000D4028093D30261E083E00E94BA0B6AEF9C
:1012300070E080E090E00E94C60C0AC065EA72E0AF
:101240008AE893E00E944A0D80EC8093D002A9CFF7
:101250002C960FB6F894DEBF0FBECDBFDF91CF91B5
:101260001F910F9108950F931F93CF93DF93CDB7E5
:10127000DEB72C970FB6F894DEBF0FBECDBF11E0DE
:101280001093CC0263E972E082E793E00E944A0D7A
:101290008091C80290E080589F4F9093CE02809337
:1012A000CD029093CA028093C90262E773E0CE0137
:1012B00007960E94A00D68E773E0CE0101960E9498
:1012C000A00D6091CC02062E000C770B00E09E0171
:1012D000295F3F4FAE014F5F5F4F8091CD029091EC
:1012E000CE020E94280E9093CE028093CD02CE01B2
:1012F00001960E949B0DCE0107960E949B0D2091A6
:10130000CD023091CE028091C9029091CA02281775
:10131000390729F08091C80218271093C8028091DC
:10132000C802811158C063E872E08AE893E00E9425
:101330004A0D1092D00264E972E080E993E00E94C5
:101340004A0D60E973E084E893E00E94AB03182F34
:101350006AE873E08EE793E00E94AB03812BD9F03B
:101360006AE873E0CE0107960E94A00D60E973E081
:10137000CE0101960E94A00DBE01695F7F4FCE0194
:1013800001960E942A0BCE0101960E949B0DCE0170
:1013900007960E949B0D83E00E94910B892B29F5F3
:1013A0009091D1028091D002892B8093D1028091BB
:1013B000CF02813019F480EF96E002C089E698E010
:1013C0009093D4028093D3026AEF70E080E090E0C3
:1013D0000E94C60C0AC066EB72E08AE893E00E94A5
:1013E0004A0D80E38093D002A6CF2C960FB6F894D6
:1013F000DEBF0FBECDBFDF91CF911F910F9108953A
:10140000833081F028F4813099F08230A1F0089582
:101410008730A9F08830B9F08430D1F48091800011
:101420008F7D03C0809180008F7780938000089526
:1014300084B58F7702C084B58F7D84BD0895809177
:10144000B0008F7703C08091B0008F7D8093B00093
:1014500008953FB7F8948091C5039091C603A09179
:10146000C703B091C80326B5A89B05C02F3F19F04C
:101470000196A11DB11D3FBFBA2FA92F982F882714
:10148000820F911DA11DB11DBC01CD0142E0660F6F
:10149000771F881F991F4A95D1F708952FB7F894A1
:1014A0006091C1037091C2038091C3039091C40302
:1014B0002FBF08950895FC01448155816081718199
:1014C00088EA93E00C948D000F931F930E944E0ABC
:1014D0006093DD027093DE028093DF029093E0025E
:1014E00085ED92E00E94C60097FF1FC00E944E0A41
:1014F0000091DD021091DE022091DF023091E002C6
:10150000DC01CB01801B910BA20BB30B0091D90224
:101510001091DA022091DB023091DC0280179107F2
:10152000A207B307E8F28FEF9FEF1F910F91089585
:1015300040E0682F88EA93E00C9450030E94B413B3
:10154000CF93DF93EC0188819981009711F00E947D
:101550006512198218821D821C821B821A82DF91F9
:10156000CF9108950F931F93CF93DF93EC01888160
:101570009981009729F02A813B812617370788F443
:101580008B016F5F7F4F0E94EE12009761F099838D
:1015900088831B830A832C813D81232B11F4FC015A
:1015A000108281E001C080E0DF91CF911F910F9107
:1015B0000895EF92FF920F931F93CF93DF93EC0167
:1015C0007B018A01BA010E94B20A811104C0CE01D6
:1015D0000E94A00A07C01D830C83B70188819981EE
:1015E0000E94CB13CE01DF91CF911F910F91FF90FD
:1015F000EF900895CF93DF93EC01FB0186179707D7
:1016000061F0608171816115710529F04481558116
:101610000E94D90A02C00E94A00ACE01DF91CF9198
:101620000895843008F083E09091BB03891710F08F
:101630008FEF890FE82FF0E0E855FC4F8489806830
:101640000C94980A81E00E94980A8BE39FE101972D
:10165000F1F708950F931F93CF93DF938C01EB0164
:101660000E94220B80E00E94110BC8010E945B0ABD
:1016700081E00E94110BCE010E945B0AB80184E850
:1016800093E00E94FA0ABE018EE793E0DF91CF91CA
:101690001F910F910C94FA0AFC011182108213829F
:1016A00012821582148240E050E063E972E00C94EB
:1016B000D90AEF92FF920F931F93CF93DF9300D03D
:1016C000CDB7DEB78C010E944C0B0E94640A97FDD7
:1016D0001EC089831A82F801E480F580FFEFEF1ABB
:1016E000FF0AB701C8010E94B20A882371F3F8010A
:1016F0002081318184819581BE016F5F7F4F820F90
:10170000931F0E94CB13F801F582E482DECFC8015B
:101710000F900F90DF91CF911F910F91FF90EF905D
:101720000895CF93DF93282F30E0F901E255FF4F62
:101730008491F901E656FF4FD491F901EA57FF4F22
:10174000C491CC2391F081110E94000AEC2FF0E0AB
:10175000EE0FFF1FE458FF4FA591B491EC91ED23DC
:1017600081E090E021F480E002C080E090E0DF9131
:10177000CF9108951F93CF93DF93282F30E0F90185
:10178000E255FF4F8491F901E656FF4FD491F901DC
:10179000EA57FF4FC491CC23C1F0162F81110E944C
:1017A000000AEC2FF0E0EE0FFF1FEE58FF4FA5915F
:1017B000B4919FB7F894111104C08C91D095D8239F
:1017C00002C0EC91DE2BDC939FBFDF91CF911F9184
:1017D0000895CF93DF9390E0FC01E656FF4F2491EC
:1017E000FC01EA57FF4F8491882361F190E0880F54
:1017F000991FFC01E859FF4FC591D491FC01EE58A7
:10180000FF4FA591B491611109C09FB7F8948881E9
:10181000209582238883EC912E230BC0623061F4E3
:101820009FB7F8948881322F309583238883EC9179
:101830002E2B2C939FBF06C08FB7F894E8812E2BD8
:1018400028838FBFDF91CF910895CF93DF938230AC
:1018500028F09091B70398609093B7038093BB03EF
:101860001092BC0380E48093BD0380E18093BE03AB
:1018700080E58093BF0361E08091AC030E94E90B97
:101880008091AD038F3F19F061E00E94E90B61E0A8
:101890008091AE030E94E90BC8EAD3E09E01285A6A
:1018A00033408091B70384FD03C084E090E002C020
:1018B00088E090E02196281739072CF461E08E81AA
:1018C0000E94E90BEBCF8BE39DE00197F1F760E01D
:1018D0008091AC030E94BA0B60E08091AE030E943D
:1018E000BA0B8091AD038F3F19F060E00E94BA0BF4
:1018F0008091B70384FD20C063E088EA93E00E94F2
:101900002303CBE4D6E4CE010197F1F763E088EA44
:1019100093E00E9423032197F1F763E088EA93E0C4
:101920000E94230383E592E00197F1F762E088EAE1
:1019300093E00E94230315C080620E94980A8BE402
:1019400096E40197F1F78091B70380620E94980AAC
:1019500083E592E00197F1F78091B70380620E94DE
:10196000980A8091B70380620E94980A84E080936D
:10197000B8038CE00E94980A0E94220B82E08093B8
:10198000B90386E0DF91CF910C94980A8F929F92D1
:10199000AF92BF92CF92DF92EF92FF926B017C01E8
:1019A0000E94290A4B015C01C114D104E104F10435
:1019B000F1F00E94290ADC01CB0188199909AA09D2
:1019C000BB09883E9340A105B10570F321E0C21A1E
:1019D000D108E108F10888EE880E83E0981EA11C6A
:1019E000B11CC114D104E104F10419F7DDCFFF905B
:1019F000EF90DF90CF90BF90AF909F908F90089521
:101A00001F920F920FB60F9211242F933F938F9333
:101A10009F93AF93BF938091C1039091C203A09114
:101A2000C303B091C4033091C00323E0230F2D37CB
:101A300020F40196A11DB11D05C026E8230F0296D2
:101A4000A11DB11D2093C0038093C1039093C203D5
:101A5000A093C303B093C4038091C5039091C603C0
:101A6000A091C703B091C8030196A11DB11D809339
:101A7000C5039093C603A093C703B093C803BF9157
:101A8000AF919F918F913F912F910F900FBE0F902B
:101A90001F901895CF93DF93EC016115710559F0F4
:101AA000FB0101900020E9F73197AF01461B570B6E
:101AB0000E94D90A02C00E94A00ACE01DF91CF91F4
:101AC00008950F931F93CF93DF938C01EB01FC01DB
:101AD00080819181009739F0688179816115710564
:101AE000A1F40E94651288819981F8019183808315
:101AF0008A819B81938382838C819D81958384835A
:101B0000198218821B821A820FC0F8014281538108
:101B10002C813D814217530720F30E94CB138C8107
:101B20009D81F801958384831D821C82DF91CF9172
:101B30001F910F910895FC01808191810C94651291
:101B4000FC011182108213821282158214820C947D
:101B5000FA0A8F929F92AF92BF92EF92FF920F93E9
:101B60001F93CF93DF93CDB7DEB7A1970FB6F8944D
:101B7000DEBF0FBECDBF7C01FA01CB0119A222301E
:101B800008F42AE08E010F5D1F4F822E912CA12CAC
:101B9000B12CBF01A50194010E949111F901CA0164
:101BA000015011096A3014F4605D01C0695CD8010C
:101BB0006C93232B242B252B61F7B801C7010E94BE
:101BC000B602A1960FB6F894DEBF0FBECDBFDF916F
:101BD000CF911F910F91FF90EF90BF90AF909F908A
:101BE0008F900895CF92DF92EF92FF92CF93DF9381
:101BF0006C01990FEE08FF08F7FE1BC06DE285ED42
:101C000092E00E942001EC0144275527BA014C19AB
:101C10005D096E097F092AE085ED92E00E94A90D19
:101C20008C0F9D1FDF91CF91FF90EF90DF90CF90B1
:101C300008952AE0B701A60185ED92E0DF91CF91EA
:101C4000FF90EF90DF90CF900C94A90D0C94B6020A
:101C50004F925F926F927F928F929F92AF92BF92BC
:101C6000CF92DF92EF92FF920F93CF93DF93CDB796
:101C7000DEB768970FB6F894DEBF0FBECDBF7C010C
:101C80006B012A01390182E00E94910B4C0184E032
:101C90000E94910B5C01002309F45DC0B20180E950
:101CA00093E00E94FA0A1C8A1B8A1E8A1D8A188EDB
:101CB0001F8A4AE0BE016F5F7F4FC7010E94FB1081
:101CC000BE016F5F7F4FCE0143960E944A0DBE0159
:101CD0006D5E7F4F8AE893E00E94610DCE014396CE
:101CE0000E949B0D64E873E080E993E00E94AB03DF
:101CF000582E6EE773E08AE893E00E94AB038529D3
:101D000051F16AE873E0CE0101960E94A00D60E9EE
:101D100073E0CE0143960E94A00DBE016F5F7F4F1E
:101D2000CE0143960E942A0BCE0143960E949B0D42
:101D3000CE0101960E949B0D62E972E088EA93E071
:101D40000E94260EC3010E945B0A60E972E088EAE5
:101D500093E00E94260E892871F40E944E0A0E9488
:101D60004E0A0E944E0AEC0CFD1C64EF71E080E00C
:101D700090E00E94C60CAB2891F40E944E0A0E948B
:101D80004E0A0E944E0AEC18FD08F7FE02C0E12C34
:101D9000F12C64EF71E080E090E00E94C60CC70176
:101DA00068960FB6F894DEBF0FBECDBFDF91CF911E
:101DB0000F91FF90EF90DF90CF90BF90AF909F90EA
:101DC0008F907F906F905F904F900895789484B536
:101DD000826084BD84B5816084BD85B5826085BD27
:101DE00085B5816085BD80916E00816080936E00B5
:101DF00010928100809181008260809381008091A7
:101E00008100816080938100809180008160809357
:101E100080008091B10084608093B1008091B00017
:101E200081608093B00080917A00846080937A0012
:101E300080917A00826080937A0080917A0081603C
:101E400080937A0080917A00806880937A00109263
:101E5000C10082E00E94250CE091E502F091E602CB
:101E600082E08083E091E102F091E2021082E09151
:101E7000E302F091E4028FEC80831092ED02E09196
:101E8000E902F091EA0286E08083E091E702F091B6
:101E9000E802808180618083E091E702F091E802AE
:101EA000808188608083E091E702F091E802808180
:101EB00080688083E091E702F091E80280818F7D65
:101EC000808385ED92E00E946D0162E083E00E94D4
:101ED000E90B62E084E00E94E90B62E082E00E948C
:101EE000E90B61E086E00E94E90B61E085E00E9479
:101EF000E90B61E08DE00E94E90B8EED93E0909399
:101F0000D4028093D3028AE5C82E84E0D82E809133
:101F10000101882331F0E091D302F091D4020995B8
:101F2000F6CFFF24F3948091D202882381F360E0FE
:101F300086E00E94BA0B01E010E080910001882346
:101F400009F48AC083E00E94910B892B59F461E067
:101F500083E00E94BA0B0330110509F457C0C3E0B7
:101F6000D0E035C084E00E94910B892B99F461E0A8
:101F700084E00E94BA0B0E94220B6FE472E088EAB0
:101F800093E00E94260E61E08DE00E94BA0BC2E051
:101F9000D0E01AC082E00E94910B892B99F461E095
:101FA00082E00E94BA0B0E94220B60E172E088EA94
:101FB00093E00E94260E61E085E00E94BA0BC1E02A
:101FC000D0E002C0C0E0D0E0C017D107E9F1CE01F7
:101FD0000E94F20D0E94220B6BE371E088EA93E00D
:101FE0000E94260E81E00E94110B6CE471E088EAE9
:101FF00093E00E94260E60E08DE00E94BA0B60E044
:1020000085E00E94BA0BC330D105F1F483E090E083
:102010000E94F20D0E94220B6DE571E088EA93E0C8
:102020000E94260E1092D20210920001F09201013D
:10203000D092D402C092D3021092D1021092D00258
:102040001092CF02C3E0D0E066E970E080E090E05B
:102050000E94C60C8E0171CF66E970E080E090E0CE
:102060000E94C60C61E086E00E94BA0B66E970E04F
:1020700080E090E00E94C60C56CF82E793E00E9479
:102080009B0D88E793E00E949B0D8EE793E00E94F2
:102090009B0D84E893E00E949B0D8AE893E00E94E8
:1020A0009B0D80E993E00E949B0D86E993E00C94E0
:1020B0009B0DE5EDF2E01382128288EE93E0A0E042
:1020C000B0E084839583A683B7838EE091E091830B
:1020D000808385EC90E09587848784EC90E09787F7
:1020E000868780EC90E0918B808B81EC90E0938BE5
:1020F000828B82EC90E0958B848B86EC90E0978BC2
:10210000868B118E128E138E148EE8EAF3E0138202
:10211000128280E291E09183808389E084838FEF53
:10212000858387E0868388E087838CE080878AE0E8
:1021300081878BE08287138614861586168617861C
:1021400081E00E94250C80E090E00E94A90390E0CD
:102150009093A7038093A60381E090E00E94A903D7
:1021600090E09093A5038093A40382E090E00E9406
:10217000A90390E09093A3038093A20383E090E0EF
:102180000E94A90390E09093A1038093A00385E0AF
:1021900090E00E94A90325E0829FC0011124909342
:1021A0009F0380939E0384E090E00E94A9032AE0AD
:1021B000829FC001112490939D0380939C0386E924
:1021C00093E00E944C0B80E993E00E944C0B8AE85C
:1021D00093E00E944C0B84E893E00E944C0B8EE746
:1021E00093E00E944C0B88E793E00E944C0B82E73F
:1021F00093E00C944C0BBB274A3031F4992322F422
:10220000BDE2909581959F4F0C940711BB27FB0170
:102210005527AA27880F991FAA1FA41710F0A41BDF
:1022200083955051B9F7A05DAA3308F0A95DA19339
:10223000009779F7B111B1931192CB010C94201151
:10224000DC01FC01672F71917723E1F7329704C01D
:102250007C916D9370836291AE17BF07C8F30895A8
:10226000F999FECF92BD81BDF89A992780B508955E
:10227000262FF999FECF1FBA92BD81BD20BD0FB6A2
:10228000F894FA9AF99A0FBE019608952F923F9208
:102290004F925F926F927F928F929F92AF92BF9276
:1022A000CF92DF92EF92FF920F931F93CF93DF9322
:1022B000CDB7DEB7CA1BDB0B0FB6F894DEBF0FBE7F
:1022C000CDBF09942A88398848885F846E847D84CC
:1022D0008C849B84AA84B984C884DF80EE80FD80CE
:1022E0000C811B81AA81B981CE0FD11D0FB6F89444
:1022F000DEBF0FBECDBFED01089597FB072E16F48C
:10230000009407D077FD09D00E94B31107FC05D0D7
:102310003EF4909581959F4F0895709561957F4FFC
:102320000895A1E21A2EAA1BBB1BFD010DC0AA1F16
:10233000BB1FEE1FFF1FA217B307E407F50720F02E
:10234000A21BB30BE40BF50B661F771F881F991FA9
:102350001A9469F760957095809590959B01AC01F2
:10236000BD01CF010895AA1BBB1B51E107C0AA1FE5
:10237000BB1FA617B70710F0A61BB70B881F991F26
:102380005A95A9F780959095BC01CD010895EE0F5F
:10239000FF1F0590F491E02D09940F931F93CF93A5
:1023A000DF938230910510F482E090E0E091CB035E
:1023B000F091CC0320E030E0A0E0B0E0309719F1DC
:1023C000408151810281138148175907C8F0841751
:1023D000950769F4109731F012960C9312971396A3
:1023E0001C9327C00093CB031093CC0322C021156C
:1023F000310519F04217530718F49A01BD01EF0196
:10240000DF01F801DBCF21153105F9F0281B390B6D
:102410002430310580F48A819B816115710521F09A
:10242000FB019383828304C09093CC038093CB03FE
:10243000FE01329644C0FE01E20FF31F8193919397
:1024400022503109398328833AC02091C903309141
:10245000CA03232B41F420910401309105013093EC
:10246000CA032093C9032091020130910301211571
:10247000310541F42DB73EB7409106015091070157
:10248000241B350BE091C903F091CA03E217F3074F
:10249000A0F42E1B3F0B2817390778F0AC014E5FD4
:1024A0005F4F2417350748F04E0F5F1F5093CA0344
:1024B0004093C9038193919302C0E0E0F0E0CF0123
:1024C000DF91CF911F910F910895CF93DF930097E4
:1024D00009F481C0FC01329713821282A091CB03D0
:1024E000B091CC03109781F420813181820F931F2A
:1024F0002091C9033091CA032817390751F5F09389
:10250000CA03E093C90367C0ED0120E030E0CE17B5
:10251000DF0740F44A815B819E0141155105F1F0CE
:10252000EA01F5CFD383C28340815181840F951F87
:10253000C817D90759F488819981840F951F02968D
:10254000918380838A819B819383828321153105C6
:1025500029F4F093CC03E093CB033DC0E901FB8366
:10256000EA8349915991C40FD51FEC17FD0761F417
:1025700080819181840F951F0296E9019983888358
:10258000828193819B838A83E0E0F0E012968D91B3
:102590009C911397009719F0FD01DC01F7CF8D9105
:1025A0009C9111979D012E5F3F4F820F931F2091A9
:1025B000C9033091CA032817390769F4309729F401
:1025C0001092CC031092CB0302C013821282B093FC
:1025D000CA03A093C903DF91CF910895A0E0B0E0B2
:1025E000E4EFF2E10C944A11EC01009721F4CB01E5
:1025F0000E94CD11B4C0FC01E60FF71F9C012250D0
:102600003109E217F30708F4A8C0D9010D911C9114
:10261000119706171707B0F00530110508F49BC095
:10262000C80104978617970708F495C0025011094E
:10263000061B170B019311936D937C93CF010E949E
:10264000651289C05B01A01AB10A4C01800E911E6F
:10265000A091CB03B091CC03612C712CE12CF12C17
:10266000109709F446C08D919C911197A815B90552
:10267000B1F56C0142E0C40ED11CCA14DB0478F140
:102680004C018A189B08640142E0C40ED11C1296CA
:10269000BC9012971396AC91B5E0CB16D10440F0E4
:1026A000B282A38391828082D9016D937C9309C009
:1026B0000E5F1F4F800F911FF90191838083EB2DD7
:1026C000FA2FE114F10431F0D7011396FC93EE9345
:1026D000129741C0F093CC03E093CB033CC0681643
:1026E000790608F43C017D0112960D90BC91A02D55
:1026F000B7CF8091C9039091CA0388169906E1F477
:1027000066167706C8F48091020190910301009744
:1027100041F48DB79EB74091060150910701841B8B
:10272000950BE817F907C8F4F093CA03E093C903BF
:10273000F901718360830FC0CB010E94CD117C0130
:10274000009759F0A801BE010E94B913CE010E9462
:102750006512C70104C0CE0102C080E090E0CDB791
:10276000DEB7EEE00C94661181E090E0F8940C94F2
:10277000D213FB01DC0102C001900D924150504088
:10278000D8F70895FB01DC018D91019080190110AB
:10279000D9F3990B0895FB01DC0101900D92002003
:1027A000E1F7089510E0C2E6D0E004C0FE010E9407
:0E27B000C7112196C336D107C9F7F894FFCFA1
:1027BE0001010000CD038000040200000000200192
:1027CE008D00B7006D01E800C600DA0000000000C1
:1027DE00A3038D0099015A0A63006400650070001E
:1027EE006600456E7669616E646F00202020205071
:1027FE0072657373696F6E65202020003C2D466CE8
:10280E00657820202020204578742D3E0046696D85
:10281E0000202020436F6E656374616E646F2E2EF0
:10282E002E0020454D41204645532D526F77696E3F
:10283E00672000610053656C2E4D6F76696D656E75
:10284E00746F2873293A00457874656E73616F2032
:10285E00202020202020002020202020202020208A
:10286E00666C6578616F00457874656E73616F2B69
:10287E00666C6578616F00496E696369616E646F3D
:10288E0020657374696D756C6163616F0046726566
:10289E007175656E6369613A00487A004C617267C2
:1028AE007572612064652050756C736F3A006D69A6
:1028BE0063726F2073656700436F7272656E746525
:1028CE00457874656E73616F006D41202843482012
:1028DE005B312C325D2900436F7272656E74652018
:1028EE0041757820457874006D4120284348205B5F
:1028FE00352C365D2900436F7272656E7465204605
:10290E006C6578616F006D4120284348205B332C45
:10291E00345D2900436F7272656E7465204175785F
:10292E00466C6578006D4120284348205B372C3873
:10293E005D29004E616F20202020202020202020A5
:10294E00202020004578742E632F20417578696C05
:10295E006961723F0053696D2C20434820372F3830
:10296E0020202020200053696D2C20434820352F35
:08297E0036202020202000007B
:00000001FF
